{
	"Tokenslab.sol": {
		"Tokenslab": {
			"abi": [
				{
					"inputs": [],
					"stateMutability": "nonpayable",
					"type": "constructor"
				},
				{
					"inputs": [
						{
							"internalType": "uint64",
							"name": "noofTokens",
							"type": "uint64"
						}
					],
					"name": "tokenDeposit",
					"outputs": [],
					"stateMutability": "nonpayable",
					"type": "function"
				},
				{
					"inputs": [],
					"name": "viewSlabDetails",
					"outputs": [
						{
							"internalType": "uint8",
							"name": "",
							"type": "uint8"
						}
					],
					"stateMutability": "view",
					"type": "function"
				}
			],
			"devdoc": {
				"kind": "dev",
				"methods": {},
				"version": 1
			},
			"evm": {
				"assembly": "    /* \"Tokenslab.sol\":71:1430  contract Tokenslab {\r... */\n  mstore(0x40, 0x80)\n    /* \"Tokenslab.sol\":193:372  constructor()\r... */\n  callvalue\n  dup1\n  iszero\n  tag_1\n  jumpi\n  0x00\n  dup1\n  revert\ntag_1:\n  pop\n    /* \"Tokenslab.sol\":231:265  slabLimits = [100,200,300,400,500] */\n  mload(0x40)\n  dup1\n  0xa0\n  add\n  0x40\n  mstore\n  dup1\n    /* \"Tokenslab.sol\":245:248  100 */\n  0x64\n    /* \"Tokenslab.sol\":231:265  slabLimits = [100,200,300,400,500] */\n  0xffff\n  and\n  dup2\n  mstore\n  0x20\n  add\n    /* \"Tokenslab.sol\":249:252  200 */\n  0xc8\n    /* \"Tokenslab.sol\":231:265  slabLimits = [100,200,300,400,500] */\n  0xffff\n  and\n  dup2\n  mstore\n  0x20\n  add\n    /* \"Tokenslab.sol\":253:256  300 */\n  0x012c\n    /* \"Tokenslab.sol\":231:265  slabLimits = [100,200,300,400,500] */\n  0xffff\n  and\n  dup2\n  mstore\n  0x20\n  add\n    /* \"Tokenslab.sol\":257:260  400 */\n  0x0190\n    /* \"Tokenslab.sol\":231:265  slabLimits = [100,200,300,400,500] */\n  0xffff\n  and\n  dup2\n  mstore\n  0x20\n  add\n    /* \"Tokenslab.sol\":261:264  500 */\n  0x01f4\n    /* \"Tokenslab.sol\":231:265  slabLimits = [100,200,300,400,500] */\n  0xffff\n  and\n  dup2\n  mstore\n  pop\n    /* \"Tokenslab.sol\":231:241  slabLimits */\n  0x01\n    /* \"Tokenslab.sol\":231:265  slabLimits = [100,200,300,400,500] */\n  swap1\n  0x05\n  tag_4\n  swap3\n  swap2\n  swap1\n  tag_5\n  jump\t// in\ntag_4:\n  pop\n    /* \"Tokenslab.sol\":294:295  4 */\n  0x04\n    /* \"Tokenslab.sol\":280:291  currentSlab */\n  0x00\n  dup1\n    /* \"Tokenslab.sol\":280:295  currentSlab = 4 */\n  0x0100\n  exp\n  dup2\n  sload\n  dup2\n  0xff\n  mul\n  not\n  and\n  swap1\n  dup4\n  0xff\n  and\n  mul\n  or\n  swap1\n  sstore\n  pop\n    /* \"Tokenslab.sol\":336:360  slabValues = [0,0,0,0,0] */\n  mload(0x40)\n  dup1\n  0xa0\n  add\n  0x40\n  mstore\n  dup1\n    /* \"Tokenslab.sol\":350:351  0 */\n  0x00\n    /* \"Tokenslab.sol\":336:360  slabValues = [0,0,0,0,0] */\n  0xff\n  and\n  dup2\n  mstore\n  0x20\n  add\n    /* \"Tokenslab.sol\":352:353  0 */\n  0x00\n    /* \"Tokenslab.sol\":336:360  slabValues = [0,0,0,0,0] */\n  0xff\n  and\n  dup2\n  mstore\n  0x20\n  add\n    /* \"Tokenslab.sol\":354:355  0 */\n  0x00\n    /* \"Tokenslab.sol\":336:360  slabValues = [0,0,0,0,0] */\n  0xff\n  and\n  dup2\n  mstore\n  0x20\n  add\n    /* \"Tokenslab.sol\":356:357  0 */\n  0x00\n    /* \"Tokenslab.sol\":336:360  slabValues = [0,0,0,0,0] */\n  0xff\n  and\n  dup2\n  mstore\n  0x20\n  add\n    /* \"Tokenslab.sol\":358:359  0 */\n  0x00\n    /* \"Tokenslab.sol\":336:360  slabValues = [0,0,0,0,0] */\n  0xff\n  and\n  dup2\n  mstore\n  pop\n    /* \"Tokenslab.sol\":336:346  slabValues */\n  0x02\n    /* \"Tokenslab.sol\":336:360  slabValues = [0,0,0,0,0] */\n  swap1\n  0x05\n  tag_6\n  swap3\n  swap2\n  swap1\n  tag_7\n  jump\t// in\ntag_6:\n  pop\n    /* \"Tokenslab.sol\":71:1430  contract Tokenslab {\r... */\n  jump(tag_8)\ntag_5:\n  dup3\n  add(0x07, 0x05)\n  0x08\n  swap1\n  div\n  dup2\n  add\n  swap3\n  dup3\n  iszero\n  tag_9\n  jumpi\n  swap2\n  0x20\n  mul\n  dup3\n  add\n  0x00\ntag_10:\n  dup4\n  dup3\n  gt\n  iszero\n  tag_11\n  jumpi\n  dup4\n  mload\n  dup4\n  dup3\n  0x0100\n  exp\n  dup2\n  sload\n  dup2\n  0xffffffff\n  mul\n  not\n  and\n  swap1\n  dup4\n  0xffff\n  and\n  mul\n  or\n  swap1\n  sstore\n  pop\n  swap3\n  0x20\n  add\n  swap3\n  0x04\n  add\n  0x20\n  dup2\n  0x03\n  add\n  div\n  swap3\n  dup4\n  add\n  swap3\n  0x01\n  sub\n  mul\n  jump(tag_10)\ntag_11:\n  dup1\n  iszero\n  tag_12\n  jumpi\n  dup3\n  dup2\n  0x0100\n  exp\n  dup2\n  sload\n  swap1\n  0xffffffff\n  mul\n  not\n  and\n  swap1\n  sstore\n  0x04\n  add\n  0x20\n  dup2\n  0x03\n  add\n  div\n  swap3\n  dup4\n  add\n  swap3\n  0x01\n  sub\n  mul\n  jump(tag_11)\ntag_12:\n  pop\ntag_9:\n  pop\n  swap1\n  pop\n  tag_13\n  swap2\n  swap1\n  tag_14\n  jump\t// in\ntag_13:\n  pop\n  swap1\n  jump\t// out\ntag_7:\n  dup3\n  add(0x03, 0x05)\n  0x04\n  swap1\n  div\n  dup2\n  add\n  swap3\n  dup3\n  iszero\n  tag_15\n  jumpi\n  swap2\n  0x20\n  mul\n  dup3\n  add\n  0x00\ntag_16:\n  dup4\n  dup3\n  gt\n  iszero\n  tag_17\n  jumpi\n  dup4\n  mload\n  dup4\n  dup3\n  0x0100\n  exp\n  dup2\n  sload\n  dup2\n  0xffffffffffffffff\n  mul\n  not\n  and\n  swap1\n  dup4\n  0xff\n  and\n  mul\n  or\n  swap1\n  sstore\n  pop\n  swap3\n  0x20\n  add\n  swap3\n  0x08\n  add\n  0x20\n  dup2\n  0x07\n  add\n  div\n  swap3\n  dup4\n  add\n  swap3\n  0x01\n  sub\n  mul\n  jump(tag_16)\ntag_17:\n  dup1\n  iszero\n  tag_18\n  jumpi\n  dup3\n  dup2\n  0x0100\n  exp\n  dup2\n  sload\n  swap1\n  0xffffffffffffffff\n  mul\n  not\n  and\n  swap1\n  sstore\n  0x08\n  add\n  0x20\n  dup2\n  0x07\n  add\n  div\n  swap3\n  dup4\n  add\n  swap3\n  0x01\n  sub\n  mul\n  jump(tag_17)\ntag_18:\n  pop\ntag_15:\n  pop\n  swap1\n  pop\n  tag_19\n  swap2\n  swap1\n  tag_14\n  jump\t// in\ntag_19:\n  pop\n  swap1\n  jump\t// out\ntag_14:\ntag_20:\n  dup1\n  dup3\n  gt\n  iszero\n  tag_21\n  jumpi\n  0x00\n  dup2\n  0x00\n  swap1\n  sstore\n  pop\n  0x01\n  add\n  jump(tag_20)\ntag_21:\n  pop\n  swap1\n  jump\t// out\ntag_8:\n  dataSize(sub_0)\n  dup1\n  dataOffset(sub_0)\n  0x00\n  codecopy\n  0x00\n  return\nstop\n\nsub_0: assembly {\n        /* \"Tokenslab.sol\":71:1430  contract Tokenslab {\r... */\n      mstore(0x40, 0x80)\n      callvalue\n      dup1\n      iszero\n      tag_1\n      jumpi\n      0x00\n      dup1\n      revert\n    tag_1:\n      pop\n      jumpi(tag_2, lt(calldatasize, 0x04))\n      shr(0xe0, calldataload(0x00))\n      dup1\n      0x10af504a\n      eq\n      tag_3\n      jumpi\n      dup1\n      0xeda2ab68\n      eq\n      tag_4\n      jumpi\n    tag_2:\n      0x00\n      dup1\n      revert\n        /* \"Tokenslab.sol\":384:687  function tokenDeposit(uint64 noofTokens) public\r... */\n    tag_3:\n      tag_5\n      0x04\n      dup1\n      calldatasize\n      sub\n      dup2\n      add\n      swap1\n      tag_6\n      swap2\n      swap1\n      tag_7\n      jump\t// in\n    tag_6:\n      tag_8\n      jump\t// in\n    tag_5:\n      stop\n        /* \"Tokenslab.sol\":1312:1421  function viewSlabDetails() public view returns(uint8)\r... */\n    tag_4:\n      tag_9\n      tag_10\n      jump\t// in\n    tag_9:\n      mload(0x40)\n      tag_11\n      swap2\n      swap1\n      tag_12\n      jump\t// in\n    tag_11:\n      mload(0x40)\n      dup1\n      swap2\n      sub\n      swap1\n      return\n        /* \"Tokenslab.sol\":384:687  function tokenDeposit(uint64 noofTokens) public\r... */\n    tag_8:\n        /* \"Tokenslab.sol\":483:493  noofTokens */\n      dup1\n        /* \"Tokenslab.sol\":456:466  slabValues */\n      0x02\n        /* \"Tokenslab.sol\":467:478  currentSlab */\n      0x00\n      dup1\n      sload\n      swap1\n      0x0100\n      exp\n      swap1\n      div\n      0xff\n      and\n        /* \"Tokenslab.sol\":456:479  slabValues[currentSlab] */\n      0xff\n      and\n      0x05\n      dup2\n      lt\n      tag_14\n      jumpi\n      tag_15\n      tag_16\n      jump\t// in\n    tag_15:\n    tag_14:\n      0x04\n      swap2\n      dup3\n      dup3\n      div\n      add\n      swap2\n      swap1\n      mod\n      0x08\n      mul\n        /* \"Tokenslab.sol\":456:493  slabValues[currentSlab] += noofTokens */\n      dup3\n      dup3\n      dup3\n      swap1\n      sload\n      swap1\n      0x0100\n      exp\n      swap1\n      div\n      0xffffffffffffffff\n      and\n      tag_18\n      swap2\n      swap1\n      tag_19\n      jump\t// in\n    tag_18:\n      swap3\n      pop\n      0x0100\n      exp\n      dup2\n      sload\n      dup2\n      0xffffffffffffffff\n      mul\n      not\n      and\n      swap1\n      dup4\n      0xffffffffffffffff\n      and\n      mul\n      or\n      swap1\n      sstore\n      pop\n        /* \"Tokenslab.sol\":537:547  slabLimits */\n      0x01\n        /* \"Tokenslab.sol\":548:559  currentSlab */\n      0x00\n      dup1\n      sload\n      swap1\n      0x0100\n      exp\n      swap1\n      div\n      0xff\n      and\n        /* \"Tokenslab.sol\":537:560  slabLimits[currentSlab] */\n      0xff\n      and\n      0x05\n      dup2\n      lt\n      tag_20\n      jumpi\n      tag_21\n      tag_16\n      jump\t// in\n    tag_21:\n    tag_20:\n      0x08\n      swap2\n      dup3\n      dup3\n      div\n      add\n      swap2\n      swap1\n      mod\n      0x04\n      mul\n      swap1\n      sload\n      swap1\n      0x0100\n      exp\n      swap1\n      div\n      0xffffffff\n      and\n        /* \"Tokenslab.sol\":511:560  slabValues[currentSlab] > slabLimits[currentSlab] */\n      0xffffffff\n      and\n        /* \"Tokenslab.sol\":511:521  slabValues */\n      0x02\n        /* \"Tokenslab.sol\":522:533  currentSlab */\n      0x00\n      dup1\n      sload\n      swap1\n      0x0100\n      exp\n      swap1\n      div\n      0xff\n      and\n        /* \"Tokenslab.sol\":511:534  slabValues[currentSlab] */\n      0xff\n      and\n      0x05\n      dup2\n      lt\n      tag_23\n      jumpi\n      tag_24\n      tag_16\n      jump\t// in\n    tag_24:\n    tag_23:\n      0x04\n      swap2\n      dup3\n      dup3\n      div\n      add\n      swap2\n      swap1\n      mod\n      0x08\n      mul\n      swap1\n      sload\n      swap1\n      0x0100\n      exp\n      swap1\n      div\n      0xffffffffffffffff\n      and\n        /* \"Tokenslab.sol\":511:560  slabValues[currentSlab] > slabLimits[currentSlab] */\n      0xffffffffffffffff\n      and\n      gt\n        /* \"Tokenslab.sol\":508:676  if(slabValues[currentSlab] > slabLimits[currentSlab])\r... */\n      iszero\n      tag_26\n      jumpi\n        /* \"Tokenslab.sol\":594:660  overflowHandler(slabValues[currentSlab] - slabLimits[currentSlab]) */\n      tag_27\n        /* \"Tokenslab.sol\":636:646  slabLimits */\n      0x01\n        /* \"Tokenslab.sol\":647:658  currentSlab */\n      0x00\n      dup1\n      sload\n      swap1\n      0x0100\n      exp\n      swap1\n      div\n      0xff\n      and\n        /* \"Tokenslab.sol\":636:659  slabLimits[currentSlab] */\n      0xff\n      and\n      0x05\n      dup2\n      lt\n      tag_28\n      jumpi\n      tag_29\n      tag_16\n      jump\t// in\n    tag_29:\n    tag_28:\n      0x08\n      swap2\n      dup3\n      dup3\n      div\n      add\n      swap2\n      swap1\n      mod\n      0x04\n      mul\n      swap1\n      sload\n      swap1\n      0x0100\n      exp\n      swap1\n      div\n      0xffffffff\n      and\n        /* \"Tokenslab.sol\":610:659  slabValues[currentSlab] - slabLimits[currentSlab] */\n      0xffffffff\n      and\n        /* \"Tokenslab.sol\":610:620  slabValues */\n      0x02\n        /* \"Tokenslab.sol\":621:632  currentSlab */\n      0x00\n      dup1\n      sload\n      swap1\n      0x0100\n      exp\n      swap1\n      div\n      0xff\n      and\n        /* \"Tokenslab.sol\":610:633  slabValues[currentSlab] */\n      0xff\n      and\n      0x05\n      dup2\n      lt\n      tag_31\n      jumpi\n      tag_32\n      tag_16\n      jump\t// in\n    tag_32:\n    tag_31:\n      0x04\n      swap2\n      dup3\n      dup3\n      div\n      add\n      swap2\n      swap1\n      mod\n      0x08\n      mul\n      swap1\n      sload\n      swap1\n      0x0100\n      exp\n      swap1\n      div\n      0xffffffffffffffff\n      and\n        /* \"Tokenslab.sol\":610:659  slabValues[currentSlab] - slabLimits[currentSlab] */\n      tag_34\n      swap2\n      swap1\n      tag_35\n      jump\t// in\n    tag_34:\n        /* \"Tokenslab.sol\":594:609  overflowHandler */\n      tag_36\n        /* \"Tokenslab.sol\":594:660  overflowHandler(slabValues[currentSlab] - slabLimits[currentSlab]) */\n      jump\t// in\n    tag_27:\n        /* \"Tokenslab.sol\":508:676  if(slabValues[currentSlab] > slabLimits[currentSlab])\r... */\n    tag_26:\n        /* \"Tokenslab.sol\":384:687  function tokenDeposit(uint64 noofTokens) public\r... */\n      pop\n      jump\t// out\n        /* \"Tokenslab.sol\":1312:1421  function viewSlabDetails() public view returns(uint8)\r... */\n    tag_10:\n        /* \"Tokenslab.sol\":1359:1364  uint8 */\n      0x00\n        /* \"Tokenslab.sol\":1397:1408  currentSlab */\n      dup1\n      0x00\n      swap1\n      sload\n      swap1\n      0x0100\n      exp\n      swap1\n      div\n      0xff\n      and\n        /* \"Tokenslab.sol\":1390:1409  return(currentSlab) */\n      swap1\n      pop\n        /* \"Tokenslab.sol\":1312:1421  function viewSlabDetails() public view returns(uint8)\r... */\n      swap1\n      jump\t// out\n        /* \"Tokenslab.sol\":699:1299  function overflowHandler(uint64 overFlow) private \r... */\n    tag_36:\n        /* \"Tokenslab.sol\":877:887  slabLimits */\n      0x01\n        /* \"Tokenslab.sol\":888:899  currentSlab */\n      0x00\n      dup1\n      sload\n      swap1\n      0x0100\n      exp\n      swap1\n      div\n      0xff\n      and\n        /* \"Tokenslab.sol\":877:900  slabLimits[currentSlab] */\n      0xff\n      and\n      0x05\n      dup2\n      lt\n      tag_39\n      jumpi\n      tag_40\n      tag_16\n      jump\t// in\n    tag_40:\n    tag_39:\n      0x08\n      swap2\n      dup3\n      dup3\n      div\n      add\n      swap2\n      swap1\n      mod\n      0x04\n      mul\n      swap1\n      sload\n      swap1\n      0x0100\n      exp\n      swap1\n      div\n      0xffffffff\n      and\n        /* \"Tokenslab.sol\":851:900  slabValues[currentSlab] = slabLimits[currentSlab] */\n      0xffffffff\n      and\n        /* \"Tokenslab.sol\":851:861  slabValues */\n      0x02\n        /* \"Tokenslab.sol\":862:873  currentSlab */\n      0x00\n      dup1\n      sload\n      swap1\n      0x0100\n      exp\n      swap1\n      div\n      0xff\n      and\n        /* \"Tokenslab.sol\":851:874  slabValues[currentSlab] */\n      0xff\n      and\n      0x05\n      dup2\n      lt\n      tag_42\n      jumpi\n      tag_43\n      tag_16\n      jump\t// in\n    tag_43:\n    tag_42:\n      0x04\n      swap2\n      dup3\n      dup3\n      div\n      add\n      swap2\n      swap1\n      mod\n      0x08\n      mul\n        /* \"Tokenslab.sol\":851:900  slabValues[currentSlab] = slabLimits[currentSlab] */\n      0x0100\n      exp\n      dup2\n      sload\n      dup2\n      0xffffffffffffffff\n      mul\n      not\n      and\n      swap1\n      dup4\n      0xffffffffffffffff\n      and\n      mul\n      or\n      swap1\n      sstore\n      pop\n        /* \"Tokenslab.sol\":943:944  1 */\n      0x01\n        /* \"Tokenslab.sol\":929:940  currentSlab */\n      0x00\n      dup1\n      sload\n      swap1\n      0x0100\n      exp\n      swap1\n      div\n      0xff\n      and\n        /* \"Tokenslab.sol\":929:944  currentSlab - 1 */\n      tag_45\n      swap2\n      swap1\n      tag_46\n      jump\t// in\n    tag_45:\n        /* \"Tokenslab.sol\":915:926  currentSlab */\n      0x00\n      dup1\n        /* \"Tokenslab.sol\":915:944  currentSlab = currentSlab - 1 */\n      0x0100\n      exp\n      dup2\n      sload\n      dup2\n      0xff\n      mul\n      not\n      and\n      swap1\n      dup4\n      0xff\n      and\n      mul\n      or\n      swap1\n      sstore\n      pop\n        /* \"Tokenslab.sol\":984:985  0 */\n      0x00\n        /* \"Tokenslab.sol\":969:980  currentSlab */\n      dup1\n      0x00\n      swap1\n      sload\n      swap1\n      0x0100\n      exp\n      swap1\n      div\n      0xff\n      and\n        /* \"Tokenslab.sol\":969:985  currentSlab >= 0 */\n      0xff\n      and\n      lt\n      iszero\n        /* \"Tokenslab.sol\":961:1037  require(currentSlab >= 0, \"All slabs are full, more tokens cannot be added\") */\n      tag_47\n      jumpi\n      mload(0x40)\n      0x08c379a000000000000000000000000000000000000000000000000000000000\n      dup2\n      mstore\n      0x04\n      add\n      tag_48\n      swap1\n      tag_49\n      jump\t// in\n    tag_48:\n      mload(0x40)\n      dup1\n      swap2\n      sub\n      swap1\n      revert\n    tag_47:\n        /* \"Tokenslab.sol\":1081:1089  overFlow */\n      dup1\n        /* \"Tokenslab.sol\":1054:1064  slabValues */\n      0x02\n        /* \"Tokenslab.sol\":1065:1076  currentSlab */\n      0x00\n      dup1\n      sload\n      swap1\n      0x0100\n      exp\n      swap1\n      div\n      0xff\n      and\n        /* \"Tokenslab.sol\":1054:1077  slabValues[currentSlab] */\n      0xff\n      and\n      0x05\n      dup2\n      lt\n      tag_50\n      jumpi\n      tag_51\n      tag_16\n      jump\t// in\n    tag_51:\n    tag_50:\n      0x04\n      swap2\n      dup3\n      dup3\n      div\n      add\n      swap2\n      swap1\n      mod\n      0x08\n      mul\n        /* \"Tokenslab.sol\":1054:1089  slabValues[currentSlab] += overFlow */\n      dup3\n      dup3\n      dup3\n      swap1\n      sload\n      swap1\n      0x0100\n      exp\n      swap1\n      div\n      0xffffffffffffffff\n      and\n      tag_53\n      swap2\n      swap1\n      tag_19\n      jump\t// in\n    tag_53:\n      swap3\n      pop\n      0x0100\n      exp\n      dup2\n      sload\n      dup2\n      0xffffffffffffffff\n      mul\n      not\n      and\n      swap1\n      dup4\n      0xffffffffffffffff\n      and\n      mul\n      or\n      swap1\n      sstore\n      pop\n        /* \"Tokenslab.sol\":1135:1145  slabLimits */\n      0x01\n        /* \"Tokenslab.sol\":1146:1157  currentSlab */\n      0x00\n      dup1\n      sload\n      swap1\n      0x0100\n      exp\n      swap1\n      div\n      0xff\n      and\n        /* \"Tokenslab.sol\":1135:1158  slabLimits[currentSlab] */\n      0xff\n      and\n      0x05\n      dup2\n      lt\n      tag_54\n      jumpi\n      tag_55\n      tag_16\n      jump\t// in\n    tag_55:\n    tag_54:\n      0x08\n      swap2\n      dup3\n      dup3\n      div\n      add\n      swap2\n      swap1\n      mod\n      0x04\n      mul\n      swap1\n      sload\n      swap1\n      0x0100\n      exp\n      swap1\n      div\n      0xffffffff\n      and\n        /* \"Tokenslab.sol\":1109:1158  slabValues[currentSlab] > slabLimits[currentSlab] */\n      0xffffffff\n      and\n        /* \"Tokenslab.sol\":1109:1119  slabValues */\n      0x02\n        /* \"Tokenslab.sol\":1120:1131  currentSlab */\n      0x00\n      dup1\n      sload\n      swap1\n      0x0100\n      exp\n      swap1\n      div\n      0xff\n      and\n        /* \"Tokenslab.sol\":1109:1132  slabValues[currentSlab] */\n      0xff\n      and\n      0x05\n      dup2\n      lt\n      tag_57\n      jumpi\n      tag_58\n      tag_16\n      jump\t// in\n    tag_58:\n    tag_57:\n      0x04\n      swap2\n      dup3\n      dup3\n      div\n      add\n      swap2\n      swap1\n      mod\n      0x08\n      mul\n      swap1\n      sload\n      swap1\n      0x0100\n      exp\n      swap1\n      div\n      0xffffffffffffffff\n      and\n        /* \"Tokenslab.sol\":1109:1158  slabValues[currentSlab] > slabLimits[currentSlab] */\n      0xffffffffffffffff\n      and\n      gt\n        /* \"Tokenslab.sol\":1106:1274  if(slabValues[currentSlab] > slabLimits[currentSlab])\r... */\n      iszero\n      tag_60\n      jumpi\n        /* \"Tokenslab.sol\":1192:1258  overflowHandler(slabValues[currentSlab] - slabLimits[currentSlab]) */\n      tag_61\n        /* \"Tokenslab.sol\":1234:1244  slabLimits */\n      0x01\n        /* \"Tokenslab.sol\":1245:1256  currentSlab */\n      0x00\n      dup1\n      sload\n      swap1\n      0x0100\n      exp\n      swap1\n      div\n      0xff\n      and\n        /* \"Tokenslab.sol\":1234:1257  slabLimits[currentSlab] */\n      0xff\n      and\n      0x05\n      dup2\n      lt\n      tag_62\n      jumpi\n      tag_63\n      tag_16\n      jump\t// in\n    tag_63:\n    tag_62:\n      0x08\n      swap2\n      dup3\n      dup3\n      div\n      add\n      swap2\n      swap1\n      mod\n      0x04\n      mul\n      swap1\n      sload\n      swap1\n      0x0100\n      exp\n      swap1\n      div\n      0xffffffff\n      and\n        /* \"Tokenslab.sol\":1208:1257  slabValues[currentSlab] - slabLimits[currentSlab] */\n      0xffffffff\n      and\n        /* \"Tokenslab.sol\":1208:1218  slabValues */\n      0x02\n        /* \"Tokenslab.sol\":1219:1230  currentSlab */\n      0x00\n      dup1\n      sload\n      swap1\n      0x0100\n      exp\n      swap1\n      div\n      0xff\n      and\n        /* \"Tokenslab.sol\":1208:1231  slabValues[currentSlab] */\n      0xff\n      and\n      0x05\n      dup2\n      lt\n      tag_65\n      jumpi\n      tag_66\n      tag_16\n      jump\t// in\n    tag_66:\n    tag_65:\n      0x04\n      swap2\n      dup3\n      dup3\n      div\n      add\n      swap2\n      swap1\n      mod\n      0x08\n      mul\n      swap1\n      sload\n      swap1\n      0x0100\n      exp\n      swap1\n      div\n      0xffffffffffffffff\n      and\n        /* \"Tokenslab.sol\":1208:1257  slabValues[currentSlab] - slabLimits[currentSlab] */\n      tag_68\n      swap2\n      swap1\n      tag_35\n      jump\t// in\n    tag_68:\n        /* \"Tokenslab.sol\":1192:1207  overflowHandler */\n      tag_36\n        /* \"Tokenslab.sol\":1192:1258  overflowHandler(slabValues[currentSlab] - slabLimits[currentSlab]) */\n      jump\t// in\n    tag_61:\n        /* \"Tokenslab.sol\":1106:1274  if(slabValues[currentSlab] > slabLimits[currentSlab])\r... */\n    tag_60:\n        /* \"Tokenslab.sol\":699:1299  function overflowHandler(uint64 overFlow) private \r... */\n      pop\n      jump\t// out\n        /* \"#utility.yul\":7:144   */\n    tag_70:\n        /* \"#utility.yul\":52:57   */\n      0x00\n        /* \"#utility.yul\":90:96   */\n      dup2\n        /* \"#utility.yul\":77:97   */\n      calldataload\n        /* \"#utility.yul\":68:97   */\n      swap1\n      pop\n        /* \"#utility.yul\":106:138   */\n      tag_72\n        /* \"#utility.yul\":132:137   */\n      dup2\n        /* \"#utility.yul\":106:138   */\n      tag_73\n      jump\t// in\n    tag_72:\n        /* \"#utility.yul\":7:144   */\n      swap3\n      swap2\n      pop\n      pop\n      jump\t// out\n        /* \"#utility.yul\":150:477   */\n    tag_7:\n        /* \"#utility.yul\":208:214   */\n      0x00\n        /* \"#utility.yul\":257:259   */\n      0x20\n        /* \"#utility.yul\":245:254   */\n      dup3\n        /* \"#utility.yul\":236:243   */\n      dup5\n        /* \"#utility.yul\":232:255   */\n      sub\n        /* \"#utility.yul\":228:260   */\n      slt\n        /* \"#utility.yul\":225:344   */\n      iszero\n      tag_75\n      jumpi\n        /* \"#utility.yul\":263:342   */\n      tag_76\n      tag_77\n      jump\t// in\n    tag_76:\n        /* \"#utility.yul\":225:344   */\n    tag_75:\n        /* \"#utility.yul\":383:384   */\n      0x00\n        /* \"#utility.yul\":408:460   */\n      tag_78\n        /* \"#utility.yul\":452:459   */\n      dup5\n        /* \"#utility.yul\":443:449   */\n      dup3\n        /* \"#utility.yul\":432:441   */\n      dup6\n        /* \"#utility.yul\":428:450   */\n      add\n        /* \"#utility.yul\":408:460   */\n      tag_70\n      jump\t// in\n    tag_78:\n        /* \"#utility.yul\":398:460   */\n      swap2\n      pop\n        /* \"#utility.yul\":354:470   */\n      pop\n        /* \"#utility.yul\":150:477   */\n      swap3\n      swap2\n      pop\n      pop\n      jump\t// out\n        /* \"#utility.yul\":483:849   */\n    tag_79:\n        /* \"#utility.yul\":625:628   */\n      0x00\n        /* \"#utility.yul\":646:713   */\n      tag_81\n        /* \"#utility.yul\":710:712   */\n      0x2f\n        /* \"#utility.yul\":705:708   */\n      dup4\n        /* \"#utility.yul\":646:713   */\n      tag_82\n      jump\t// in\n    tag_81:\n        /* \"#utility.yul\":639:713   */\n      swap2\n      pop\n        /* \"#utility.yul\":722:815   */\n      tag_83\n        /* \"#utility.yul\":811:814   */\n      dup3\n        /* \"#utility.yul\":722:815   */\n      tag_84\n      jump\t// in\n    tag_83:\n        /* \"#utility.yul\":840:842   */\n      0x40\n        /* \"#utility.yul\":835:838   */\n      dup3\n        /* \"#utility.yul\":831:843   */\n      add\n        /* \"#utility.yul\":824:843   */\n      swap1\n      pop\n        /* \"#utility.yul\":483:849   */\n      swap2\n      swap1\n      pop\n      jump\t// out\n        /* \"#utility.yul\":855:967   */\n    tag_85:\n        /* \"#utility.yul\":938:960   */\n      tag_87\n        /* \"#utility.yul\":954:959   */\n      dup2\n        /* \"#utility.yul\":938:960   */\n      tag_88\n      jump\t// in\n    tag_87:\n        /* \"#utility.yul\":933:936   */\n      dup3\n        /* \"#utility.yul\":926:961   */\n      mstore\n        /* \"#utility.yul\":855:967   */\n      pop\n      pop\n      jump\t// out\n        /* \"#utility.yul\":973:1392   */\n    tag_49:\n        /* \"#utility.yul\":1139:1143   */\n      0x00\n        /* \"#utility.yul\":1177:1179   */\n      0x20\n        /* \"#utility.yul\":1166:1175   */\n      dup3\n        /* \"#utility.yul\":1162:1180   */\n      add\n        /* \"#utility.yul\":1154:1180   */\n      swap1\n      pop\n        /* \"#utility.yul\":1226:1235   */\n      dup2\n        /* \"#utility.yul\":1220:1224   */\n      dup2\n        /* \"#utility.yul\":1216:1236   */\n      sub\n        /* \"#utility.yul\":1212:1213   */\n      0x00\n        /* \"#utility.yul\":1201:1210   */\n      dup4\n        /* \"#utility.yul\":1197:1214   */\n      add\n        /* \"#utility.yul\":1190:1237   */\n      mstore\n        /* \"#utility.yul\":1254:1385   */\n      tag_90\n        /* \"#utility.yul\":1380:1384   */\n      dup2\n        /* \"#utility.yul\":1254:1385   */\n      tag_79\n      jump\t// in\n    tag_90:\n        /* \"#utility.yul\":1246:1385   */\n      swap1\n      pop\n        /* \"#utility.yul\":973:1392   */\n      swap2\n      swap1\n      pop\n      jump\t// out\n        /* \"#utility.yul\":1398:1612   */\n    tag_12:\n        /* \"#utility.yul\":1487:1491   */\n      0x00\n        /* \"#utility.yul\":1525:1527   */\n      0x20\n        /* \"#utility.yul\":1514:1523   */\n      dup3\n        /* \"#utility.yul\":1510:1528   */\n      add\n        /* \"#utility.yul\":1502:1528   */\n      swap1\n      pop\n        /* \"#utility.yul\":1538:1605   */\n      tag_92\n        /* \"#utility.yul\":1602:1603   */\n      0x00\n        /* \"#utility.yul\":1591:1600   */\n      dup4\n        /* \"#utility.yul\":1587:1604   */\n      add\n        /* \"#utility.yul\":1578:1584   */\n      dup5\n        /* \"#utility.yul\":1538:1605   */\n      tag_85\n      jump\t// in\n    tag_92:\n        /* \"#utility.yul\":1398:1612   */\n      swap3\n      swap2\n      pop\n      pop\n      jump\t// out\n        /* \"#utility.yul\":1699:1868   */\n    tag_82:\n        /* \"#utility.yul\":1783:1794   */\n      0x00\n        /* \"#utility.yul\":1817:1823   */\n      dup3\n        /* \"#utility.yul\":1812:1815   */\n      dup3\n        /* \"#utility.yul\":1805:1824   */\n      mstore\n        /* \"#utility.yul\":1857:1861   */\n      0x20\n        /* \"#utility.yul\":1852:1855   */\n      dup3\n        /* \"#utility.yul\":1848:1862   */\n      add\n        /* \"#utility.yul\":1833:1862   */\n      swap1\n      pop\n        /* \"#utility.yul\":1699:1868   */\n      swap3\n      swap2\n      pop\n      pop\n      jump\t// out\n        /* \"#utility.yul\":1874:2128   */\n    tag_19:\n        /* \"#utility.yul\":1913:1916   */\n      0x00\n        /* \"#utility.yul\":1932:1951   */\n      tag_97\n        /* \"#utility.yul\":1949:1950   */\n      dup3\n        /* \"#utility.yul\":1932:1951   */\n      tag_98\n      jump\t// in\n    tag_97:\n        /* \"#utility.yul\":1927:1951   */\n      swap2\n      pop\n        /* \"#utility.yul\":1965:1984   */\n      tag_99\n        /* \"#utility.yul\":1982:1983   */\n      dup4\n        /* \"#utility.yul\":1965:1984   */\n      tag_98\n      jump\t// in\n    tag_99:\n        /* \"#utility.yul\":1960:1984   */\n      swap3\n      pop\n        /* \"#utility.yul\":2070:2071   */\n      dup3\n        /* \"#utility.yul\":2050:2068   */\n      0xffffffffffffffff\n        /* \"#utility.yul\":2046:2072   */\n      sub\n        /* \"#utility.yul\":2043:2044   */\n      dup3\n        /* \"#utility.yul\":2040:2073   */\n      gt\n        /* \"#utility.yul\":2037:2096   */\n      iszero\n      tag_100\n      jumpi\n        /* \"#utility.yul\":2076:2094   */\n      tag_101\n      tag_102\n      jump\t// in\n    tag_101:\n        /* \"#utility.yul\":2037:2096   */\n    tag_100:\n        /* \"#utility.yul\":2120:2121   */\n      dup3\n        /* \"#utility.yul\":2117:2118   */\n      dup3\n        /* \"#utility.yul\":2113:2122   */\n      add\n        /* \"#utility.yul\":2106:2122   */\n      swap1\n      pop\n        /* \"#utility.yul\":1874:2128   */\n      swap3\n      swap2\n      pop\n      pop\n      jump\t// out\n        /* \"#utility.yul\":2134:2322   */\n    tag_35:\n        /* \"#utility.yul\":2173:2177   */\n      0x00\n        /* \"#utility.yul\":2193:2212   */\n      tag_104\n        /* \"#utility.yul\":2210:2211   */\n      dup3\n        /* \"#utility.yul\":2193:2212   */\n      tag_98\n      jump\t// in\n    tag_104:\n        /* \"#utility.yul\":2188:2212   */\n      swap2\n      pop\n        /* \"#utility.yul\":2226:2245   */\n      tag_105\n        /* \"#utility.yul\":2243:2244   */\n      dup4\n        /* \"#utility.yul\":2226:2245   */\n      tag_98\n      jump\t// in\n    tag_105:\n        /* \"#utility.yul\":2221:2245   */\n      swap3\n      pop\n        /* \"#utility.yul\":2264:2265   */\n      dup3\n        /* \"#utility.yul\":2261:2262   */\n      dup3\n        /* \"#utility.yul\":2258:2266   */\n      lt\n        /* \"#utility.yul\":2255:2289   */\n      iszero\n      tag_106\n      jumpi\n        /* \"#utility.yul\":2269:2287   */\n      tag_107\n      tag_102\n      jump\t// in\n    tag_107:\n        /* \"#utility.yul\":2255:2289   */\n    tag_106:\n        /* \"#utility.yul\":2314:2315   */\n      dup3\n        /* \"#utility.yul\":2311:2312   */\n      dup3\n        /* \"#utility.yul\":2307:2316   */\n      sub\n        /* \"#utility.yul\":2299:2316   */\n      swap1\n      pop\n        /* \"#utility.yul\":2134:2322   */\n      swap3\n      swap2\n      pop\n      pop\n      jump\t// out\n        /* \"#utility.yul\":2328:2513   */\n    tag_46:\n        /* \"#utility.yul\":2366:2370   */\n      0x00\n        /* \"#utility.yul\":2386:2404   */\n      tag_109\n        /* \"#utility.yul\":2402:2403   */\n      dup3\n        /* \"#utility.yul\":2386:2404   */\n      tag_88\n      jump\t// in\n    tag_109:\n        /* \"#utility.yul\":2381:2404   */\n      swap2\n      pop\n        /* \"#utility.yul\":2418:2436   */\n      tag_110\n        /* \"#utility.yul\":2434:2435   */\n      dup4\n        /* \"#utility.yul\":2418:2436   */\n      tag_88\n      jump\t// in\n    tag_110:\n        /* \"#utility.yul\":2413:2436   */\n      swap3\n      pop\n        /* \"#utility.yul\":2455:2456   */\n      dup3\n        /* \"#utility.yul\":2452:2453   */\n      dup3\n        /* \"#utility.yul\":2449:2457   */\n      lt\n        /* \"#utility.yul\":2446:2480   */\n      iszero\n      tag_111\n      jumpi\n        /* \"#utility.yul\":2460:2478   */\n      tag_112\n      tag_102\n      jump\t// in\n    tag_112:\n        /* \"#utility.yul\":2446:2480   */\n    tag_111:\n        /* \"#utility.yul\":2505:2506   */\n      dup3\n        /* \"#utility.yul\":2502:2503   */\n      dup3\n        /* \"#utility.yul\":2498:2507   */\n      sub\n        /* \"#utility.yul\":2490:2507   */\n      swap1\n      pop\n        /* \"#utility.yul\":2328:2513   */\n      swap3\n      swap2\n      pop\n      pop\n      jump\t// out\n        /* \"#utility.yul\":2519:2620   */\n    tag_98:\n        /* \"#utility.yul\":2555:2562   */\n      0x00\n        /* \"#utility.yul\":2595:2613   */\n      0xffffffffffffffff\n        /* \"#utility.yul\":2588:2593   */\n      dup3\n        /* \"#utility.yul\":2584:2614   */\n      and\n        /* \"#utility.yul\":2573:2614   */\n      swap1\n      pop\n        /* \"#utility.yul\":2519:2620   */\n      swap2\n      swap1\n      pop\n      jump\t// out\n        /* \"#utility.yul\":2626:2712   */\n    tag_88:\n        /* \"#utility.yul\":2661:2668   */\n      0x00\n        /* \"#utility.yul\":2701:2705   */\n      0xff\n        /* \"#utility.yul\":2694:2699   */\n      dup3\n        /* \"#utility.yul\":2690:2706   */\n      and\n        /* \"#utility.yul\":2679:2706   */\n      swap1\n      pop\n        /* \"#utility.yul\":2626:2712   */\n      swap2\n      swap1\n      pop\n      jump\t// out\n        /* \"#utility.yul\":2718:2898   */\n    tag_102:\n        /* \"#utility.yul\":2766:2843   */\n      0x4e487b7100000000000000000000000000000000000000000000000000000000\n        /* \"#utility.yul\":2763:2764   */\n      0x00\n        /* \"#utility.yul\":2756:2844   */\n      mstore\n        /* \"#utility.yul\":2863:2867   */\n      0x11\n        /* \"#utility.yul\":2860:2861   */\n      0x04\n        /* \"#utility.yul\":2853:2868   */\n      mstore\n        /* \"#utility.yul\":2887:2891   */\n      0x24\n        /* \"#utility.yul\":2884:2885   */\n      0x00\n        /* \"#utility.yul\":2877:2892   */\n      revert\n        /* \"#utility.yul\":2904:3084   */\n    tag_16:\n        /* \"#utility.yul\":2952:3029   */\n      0x4e487b7100000000000000000000000000000000000000000000000000000000\n        /* \"#utility.yul\":2949:2950   */\n      0x00\n        /* \"#utility.yul\":2942:3030   */\n      mstore\n        /* \"#utility.yul\":3049:3053   */\n      0x32\n        /* \"#utility.yul\":3046:3047   */\n      0x04\n        /* \"#utility.yul\":3039:3054   */\n      mstore\n        /* \"#utility.yul\":3073:3077   */\n      0x24\n        /* \"#utility.yul\":3070:3071   */\n      0x00\n        /* \"#utility.yul\":3063:3078   */\n      revert\n        /* \"#utility.yul\":3213:3330   */\n    tag_77:\n        /* \"#utility.yul\":3322:3323   */\n      0x00\n        /* \"#utility.yul\":3319:3320   */\n      dup1\n        /* \"#utility.yul\":3312:3324   */\n      revert\n        /* \"#utility.yul\":3336:3570   */\n    tag_84:\n        /* \"#utility.yul\":3476:3510   */\n      0x416c6c20736c616273206172652066756c6c2c206d6f726520746f6b656e7320\n        /* \"#utility.yul\":3472:3473   */\n      0x00\n        /* \"#utility.yul\":3464:3470   */\n      dup3\n        /* \"#utility.yul\":3460:3474   */\n      add\n        /* \"#utility.yul\":3453:3511   */\n      mstore\n        /* \"#utility.yul\":3545:3562   */\n      0x63616e6e6f742062652061646465640000000000000000000000000000000000\n        /* \"#utility.yul\":3540:3542   */\n      0x20\n        /* \"#utility.yul\":3532:3538   */\n      dup3\n        /* \"#utility.yul\":3528:3543   */\n      add\n        /* \"#utility.yul\":3521:3563   */\n      mstore\n        /* \"#utility.yul\":3336:3570   */\n      pop\n      jump\t// out\n        /* \"#utility.yul\":3576:3696   */\n    tag_73:\n        /* \"#utility.yul\":3648:3671   */\n      tag_122\n        /* \"#utility.yul\":3665:3670   */\n      dup2\n        /* \"#utility.yul\":3648:3671   */\n      tag_98\n      jump\t// in\n    tag_122:\n        /* \"#utility.yul\":3641:3646   */\n      dup2\n        /* \"#utility.yul\":3638:3672   */\n      eq\n        /* \"#utility.yul\":3628:3690   */\n      tag_123\n      jumpi\n        /* \"#utility.yul\":3686:3687   */\n      0x00\n        /* \"#utility.yul\":3683:3684   */\n      dup1\n        /* \"#utility.yul\":3676:3688   */\n      revert\n        /* \"#utility.yul\":3628:3690   */\n    tag_123:\n        /* \"#utility.yul\":3576:3696   */\n      pop\n      jump\t// out\n\n    auxdata: 0xa2646970667358221220e10ae6e5ea7ecd5ab6f976f93de29112a103f11e43124e9edf40cd758b51530264736f6c63430008070033\n}\n",
				"bytecode": {
					"linkReferences": {},
					"object": "608060405234801561001057600080fd5b506040518060a00160405280606461ffff16815260200160c861ffff16815260200161012c61ffff16815260200161019061ffff1681526020016101f461ffff1681525060019060056100649291906100d1565b5060046000806101000a81548160ff021916908360ff1602179055506040518060a00160405280600060ff168152602001600060ff168152602001600060ff168152602001600060ff168152602001600060ff1681525060029060056100cb929190610172565b50610237565b8260056007016008900481019282156101615791602002820160005b8382111561012f57835183826101000a81548163ffffffff021916908361ffff16021790555092602001926004016020816003010492830192600103026100ed565b801561015f5782816101000a81549063ffffffff021916905560040160208160030104928301926001030261012f565b505b50905061016e919061021a565b5090565b8260056003016004900481019282156102095791602002820160005b838211156101d357835183826101000a81548167ffffffffffffffff021916908360ff160217905550926020019260080160208160070104928301926001030261018e565b80156102075782816101000a81549067ffffffffffffffff02191690556008016020816007010492830192600103026101d3565b505b509050610216919061021a565b5090565b5b8082111561023357600081600090555060010161021b565b5090565b610798806102466000396000f3fe608060405234801561001057600080fd5b50600436106100365760003560e01c806310af504a1461003b578063eda2ab6814610057575b600080fd5b61005560048036038101906100509190610527565b610075565b005b61005f610227565b60405161006c91906105a6565b60405180910390f35b80600260008054906101000a900460ff1660ff166005811061009a576100996106c8565b5b600491828204019190066008028282829054906101000a900467ffffffffffffffff166100c791906105d2565b92506101000a81548167ffffffffffffffff021916908367ffffffffffffffff160217905550600160008054906101000a900460ff1660ff1660058110610111576101106106c8565b5b600891828204019190066004029054906101000a900463ffffffff1663ffffffff16600260008054906101000a900460ff1660ff1660058110610157576101566106c8565b5b600491828204019190066008029054906101000a900467ffffffffffffffff1667ffffffffffffffff16111561022457610223600160008054906101000a900460ff1660ff16600581106101ae576101ad6106c8565b5b600891828204019190066004029054906101000a900463ffffffff1663ffffffff16600260008054906101000a900460ff1660ff16600581106101f4576101f36106c8565b5b600491828204019190066008029054906101000a900467ffffffffffffffff1661021e9190610610565b61023d565b5b50565b60008060009054906101000a900460ff16905090565b600160008054906101000a900460ff1660ff1660058110610261576102606106c8565b5b600891828204019190066004029054906101000a900463ffffffff1663ffffffff16600260008054906101000a900460ff1660ff16600581106102a7576102a66106c8565b5b600491828204019190066008026101000a81548167ffffffffffffffff021916908367ffffffffffffffff160217905550600160008054906101000a900460ff166102f29190610644565b6000806101000a81548160ff021916908360ff16021790555060008060009054906101000a900460ff1660ff161015610360576040517f08c379a000000000000000000000000000000000000000000000000000000000815260040161035790610586565b60405180910390fd5b80600260008054906101000a900460ff1660ff1660058110610385576103846106c8565b5b600491828204019190066008028282829054906101000a900467ffffffffffffffff166103b291906105d2565b92506101000a81548167ffffffffffffffff021916908367ffffffffffffffff160217905550600160008054906101000a900460ff1660ff16600581106103fc576103fb6106c8565b5b600891828204019190066004029054906101000a900463ffffffff1663ffffffff16600260008054906101000a900460ff1660ff1660058110610442576104416106c8565b5b600491828204019190066008029054906101000a900467ffffffffffffffff1667ffffffffffffffff16111561050f5761050e600160008054906101000a900460ff1660ff1660058110610499576104986106c8565b5b600891828204019190066004029054906101000a900463ffffffff1663ffffffff16600260008054906101000a900460ff1660ff16600581106104df576104de6106c8565b5b600491828204019190066008029054906101000a900467ffffffffffffffff166105099190610610565b61023d565b5b50565b6000813590506105218161074b565b92915050565b60006020828403121561053d5761053c6106f7565b5b600061054b84828501610512565b91505092915050565b6000610561602f836105c1565b915061056c826106fc565b604082019050919050565b6105808161068c565b82525050565b6000602082019050818103600083015261059f81610554565b9050919050565b60006020820190506105bb6000830184610577565b92915050565b600082825260208201905092915050565b60006105dd82610678565b91506105e883610678565b92508267ffffffffffffffff0382111561060557610604610699565b5b828201905092915050565b600061061b82610678565b915061062683610678565b92508282101561063957610638610699565b5b828203905092915050565b600061064f8261068c565b915061065a8361068c565b92508282101561066d5761066c610699565b5b828203905092915050565b600067ffffffffffffffff82169050919050565b600060ff82169050919050565b7f4e487b7100000000000000000000000000000000000000000000000000000000600052601160045260246000fd5b7f4e487b7100000000000000000000000000000000000000000000000000000000600052603260045260246000fd5b600080fd5b7f416c6c20736c616273206172652066756c6c2c206d6f726520746f6b656e732060008201527f63616e6e6f742062652061646465640000000000000000000000000000000000602082015250565b61075481610678565b811461075f57600080fd5b5056fea2646970667358221220e10ae6e5ea7ecd5ab6f976f93de29112a103f11e43124e9edf40cd758b51530264736f6c63430008070033",
					"opcodes": "PUSH1 0x80 PUSH1 0x40 MSTORE CALLVALUE DUP1 ISZERO PUSH2 0x10 JUMPI PUSH1 0x0 DUP1 REVERT JUMPDEST POP PUSH1 0x40 MLOAD DUP1 PUSH1 0xA0 ADD PUSH1 0x40 MSTORE DUP1 PUSH1 0x64 PUSH2 0xFFFF AND DUP2 MSTORE PUSH1 0x20 ADD PUSH1 0xC8 PUSH2 0xFFFF AND DUP2 MSTORE PUSH1 0x20 ADD PUSH2 0x12C PUSH2 0xFFFF AND DUP2 MSTORE PUSH1 0x20 ADD PUSH2 0x190 PUSH2 0xFFFF AND DUP2 MSTORE PUSH1 0x20 ADD PUSH2 0x1F4 PUSH2 0xFFFF AND DUP2 MSTORE POP PUSH1 0x1 SWAP1 PUSH1 0x5 PUSH2 0x64 SWAP3 SWAP2 SWAP1 PUSH2 0xD1 JUMP JUMPDEST POP PUSH1 0x4 PUSH1 0x0 DUP1 PUSH2 0x100 EXP DUP2 SLOAD DUP2 PUSH1 0xFF MUL NOT AND SWAP1 DUP4 PUSH1 0xFF AND MUL OR SWAP1 SSTORE POP PUSH1 0x40 MLOAD DUP1 PUSH1 0xA0 ADD PUSH1 0x40 MSTORE DUP1 PUSH1 0x0 PUSH1 0xFF AND DUP2 MSTORE PUSH1 0x20 ADD PUSH1 0x0 PUSH1 0xFF AND DUP2 MSTORE PUSH1 0x20 ADD PUSH1 0x0 PUSH1 0xFF AND DUP2 MSTORE PUSH1 0x20 ADD PUSH1 0x0 PUSH1 0xFF AND DUP2 MSTORE PUSH1 0x20 ADD PUSH1 0x0 PUSH1 0xFF AND DUP2 MSTORE POP PUSH1 0x2 SWAP1 PUSH1 0x5 PUSH2 0xCB SWAP3 SWAP2 SWAP1 PUSH2 0x172 JUMP JUMPDEST POP PUSH2 0x237 JUMP JUMPDEST DUP3 PUSH1 0x5 PUSH1 0x7 ADD PUSH1 0x8 SWAP1 DIV DUP2 ADD SWAP3 DUP3 ISZERO PUSH2 0x161 JUMPI SWAP2 PUSH1 0x20 MUL DUP3 ADD PUSH1 0x0 JUMPDEST DUP4 DUP3 GT ISZERO PUSH2 0x12F JUMPI DUP4 MLOAD DUP4 DUP3 PUSH2 0x100 EXP DUP2 SLOAD DUP2 PUSH4 0xFFFFFFFF MUL NOT AND SWAP1 DUP4 PUSH2 0xFFFF AND MUL OR SWAP1 SSTORE POP SWAP3 PUSH1 0x20 ADD SWAP3 PUSH1 0x4 ADD PUSH1 0x20 DUP2 PUSH1 0x3 ADD DIV SWAP3 DUP4 ADD SWAP3 PUSH1 0x1 SUB MUL PUSH2 0xED JUMP JUMPDEST DUP1 ISZERO PUSH2 0x15F JUMPI DUP3 DUP2 PUSH2 0x100 EXP DUP2 SLOAD SWAP1 PUSH4 0xFFFFFFFF MUL NOT AND SWAP1 SSTORE PUSH1 0x4 ADD PUSH1 0x20 DUP2 PUSH1 0x3 ADD DIV SWAP3 DUP4 ADD SWAP3 PUSH1 0x1 SUB MUL PUSH2 0x12F JUMP JUMPDEST POP JUMPDEST POP SWAP1 POP PUSH2 0x16E SWAP2 SWAP1 PUSH2 0x21A JUMP JUMPDEST POP SWAP1 JUMP JUMPDEST DUP3 PUSH1 0x5 PUSH1 0x3 ADD PUSH1 0x4 SWAP1 DIV DUP2 ADD SWAP3 DUP3 ISZERO PUSH2 0x209 JUMPI SWAP2 PUSH1 0x20 MUL DUP3 ADD PUSH1 0x0 JUMPDEST DUP4 DUP3 GT ISZERO PUSH2 0x1D3 JUMPI DUP4 MLOAD DUP4 DUP3 PUSH2 0x100 EXP DUP2 SLOAD DUP2 PUSH8 0xFFFFFFFFFFFFFFFF MUL NOT AND SWAP1 DUP4 PUSH1 0xFF AND MUL OR SWAP1 SSTORE POP SWAP3 PUSH1 0x20 ADD SWAP3 PUSH1 0x8 ADD PUSH1 0x20 DUP2 PUSH1 0x7 ADD DIV SWAP3 DUP4 ADD SWAP3 PUSH1 0x1 SUB MUL PUSH2 0x18E JUMP JUMPDEST DUP1 ISZERO PUSH2 0x207 JUMPI DUP3 DUP2 PUSH2 0x100 EXP DUP2 SLOAD SWAP1 PUSH8 0xFFFFFFFFFFFFFFFF MUL NOT AND SWAP1 SSTORE PUSH1 0x8 ADD PUSH1 0x20 DUP2 PUSH1 0x7 ADD DIV SWAP3 DUP4 ADD SWAP3 PUSH1 0x1 SUB MUL PUSH2 0x1D3 JUMP JUMPDEST POP JUMPDEST POP SWAP1 POP PUSH2 0x216 SWAP2 SWAP1 PUSH2 0x21A JUMP JUMPDEST POP SWAP1 JUMP JUMPDEST JUMPDEST DUP1 DUP3 GT ISZERO PUSH2 0x233 JUMPI PUSH1 0x0 DUP2 PUSH1 0x0 SWAP1 SSTORE POP PUSH1 0x1 ADD PUSH2 0x21B JUMP JUMPDEST POP SWAP1 JUMP JUMPDEST PUSH2 0x798 DUP1 PUSH2 0x246 PUSH1 0x0 CODECOPY PUSH1 0x0 RETURN INVALID PUSH1 0x80 PUSH1 0x40 MSTORE CALLVALUE DUP1 ISZERO PUSH2 0x10 JUMPI PUSH1 0x0 DUP1 REVERT JUMPDEST POP PUSH1 0x4 CALLDATASIZE LT PUSH2 0x36 JUMPI PUSH1 0x0 CALLDATALOAD PUSH1 0xE0 SHR DUP1 PUSH4 0x10AF504A EQ PUSH2 0x3B JUMPI DUP1 PUSH4 0xEDA2AB68 EQ PUSH2 0x57 JUMPI JUMPDEST PUSH1 0x0 DUP1 REVERT JUMPDEST PUSH2 0x55 PUSH1 0x4 DUP1 CALLDATASIZE SUB DUP2 ADD SWAP1 PUSH2 0x50 SWAP2 SWAP1 PUSH2 0x527 JUMP JUMPDEST PUSH2 0x75 JUMP JUMPDEST STOP JUMPDEST PUSH2 0x5F PUSH2 0x227 JUMP JUMPDEST PUSH1 0x40 MLOAD PUSH2 0x6C SWAP2 SWAP1 PUSH2 0x5A6 JUMP JUMPDEST PUSH1 0x40 MLOAD DUP1 SWAP2 SUB SWAP1 RETURN JUMPDEST DUP1 PUSH1 0x2 PUSH1 0x0 DUP1 SLOAD SWAP1 PUSH2 0x100 EXP SWAP1 DIV PUSH1 0xFF AND PUSH1 0xFF AND PUSH1 0x5 DUP2 LT PUSH2 0x9A JUMPI PUSH2 0x99 PUSH2 0x6C8 JUMP JUMPDEST JUMPDEST PUSH1 0x4 SWAP2 DUP3 DUP3 DIV ADD SWAP2 SWAP1 MOD PUSH1 0x8 MUL DUP3 DUP3 DUP3 SWAP1 SLOAD SWAP1 PUSH2 0x100 EXP SWAP1 DIV PUSH8 0xFFFFFFFFFFFFFFFF AND PUSH2 0xC7 SWAP2 SWAP1 PUSH2 0x5D2 JUMP JUMPDEST SWAP3 POP PUSH2 0x100 EXP DUP2 SLOAD DUP2 PUSH8 0xFFFFFFFFFFFFFFFF MUL NOT AND SWAP1 DUP4 PUSH8 0xFFFFFFFFFFFFFFFF AND MUL OR SWAP1 SSTORE POP PUSH1 0x1 PUSH1 0x0 DUP1 SLOAD SWAP1 PUSH2 0x100 EXP SWAP1 DIV PUSH1 0xFF AND PUSH1 0xFF AND PUSH1 0x5 DUP2 LT PUSH2 0x111 JUMPI PUSH2 0x110 PUSH2 0x6C8 JUMP JUMPDEST JUMPDEST PUSH1 0x8 SWAP2 DUP3 DUP3 DIV ADD SWAP2 SWAP1 MOD PUSH1 0x4 MUL SWAP1 SLOAD SWAP1 PUSH2 0x100 EXP SWAP1 DIV PUSH4 0xFFFFFFFF AND PUSH4 0xFFFFFFFF AND PUSH1 0x2 PUSH1 0x0 DUP1 SLOAD SWAP1 PUSH2 0x100 EXP SWAP1 DIV PUSH1 0xFF AND PUSH1 0xFF AND PUSH1 0x5 DUP2 LT PUSH2 0x157 JUMPI PUSH2 0x156 PUSH2 0x6C8 JUMP JUMPDEST JUMPDEST PUSH1 0x4 SWAP2 DUP3 DUP3 DIV ADD SWAP2 SWAP1 MOD PUSH1 0x8 MUL SWAP1 SLOAD SWAP1 PUSH2 0x100 EXP SWAP1 DIV PUSH8 0xFFFFFFFFFFFFFFFF AND PUSH8 0xFFFFFFFFFFFFFFFF AND GT ISZERO PUSH2 0x224 JUMPI PUSH2 0x223 PUSH1 0x1 PUSH1 0x0 DUP1 SLOAD SWAP1 PUSH2 0x100 EXP SWAP1 DIV PUSH1 0xFF AND PUSH1 0xFF AND PUSH1 0x5 DUP2 LT PUSH2 0x1AE JUMPI PUSH2 0x1AD PUSH2 0x6C8 JUMP JUMPDEST JUMPDEST PUSH1 0x8 SWAP2 DUP3 DUP3 DIV ADD SWAP2 SWAP1 MOD PUSH1 0x4 MUL SWAP1 SLOAD SWAP1 PUSH2 0x100 EXP SWAP1 DIV PUSH4 0xFFFFFFFF AND PUSH4 0xFFFFFFFF AND PUSH1 0x2 PUSH1 0x0 DUP1 SLOAD SWAP1 PUSH2 0x100 EXP SWAP1 DIV PUSH1 0xFF AND PUSH1 0xFF AND PUSH1 0x5 DUP2 LT PUSH2 0x1F4 JUMPI PUSH2 0x1F3 PUSH2 0x6C8 JUMP JUMPDEST JUMPDEST PUSH1 0x4 SWAP2 DUP3 DUP3 DIV ADD SWAP2 SWAP1 MOD PUSH1 0x8 MUL SWAP1 SLOAD SWAP1 PUSH2 0x100 EXP SWAP1 DIV PUSH8 0xFFFFFFFFFFFFFFFF AND PUSH2 0x21E SWAP2 SWAP1 PUSH2 0x610 JUMP JUMPDEST PUSH2 0x23D JUMP JUMPDEST JUMPDEST POP JUMP JUMPDEST PUSH1 0x0 DUP1 PUSH1 0x0 SWAP1 SLOAD SWAP1 PUSH2 0x100 EXP SWAP1 DIV PUSH1 0xFF AND SWAP1 POP SWAP1 JUMP JUMPDEST PUSH1 0x1 PUSH1 0x0 DUP1 SLOAD SWAP1 PUSH2 0x100 EXP SWAP1 DIV PUSH1 0xFF AND PUSH1 0xFF AND PUSH1 0x5 DUP2 LT PUSH2 0x261 JUMPI PUSH2 0x260 PUSH2 0x6C8 JUMP JUMPDEST JUMPDEST PUSH1 0x8 SWAP2 DUP3 DUP3 DIV ADD SWAP2 SWAP1 MOD PUSH1 0x4 MUL SWAP1 SLOAD SWAP1 PUSH2 0x100 EXP SWAP1 DIV PUSH4 0xFFFFFFFF AND PUSH4 0xFFFFFFFF AND PUSH1 0x2 PUSH1 0x0 DUP1 SLOAD SWAP1 PUSH2 0x100 EXP SWAP1 DIV PUSH1 0xFF AND PUSH1 0xFF AND PUSH1 0x5 DUP2 LT PUSH2 0x2A7 JUMPI PUSH2 0x2A6 PUSH2 0x6C8 JUMP JUMPDEST JUMPDEST PUSH1 0x4 SWAP2 DUP3 DUP3 DIV ADD SWAP2 SWAP1 MOD PUSH1 0x8 MUL PUSH2 0x100 EXP DUP2 SLOAD DUP2 PUSH8 0xFFFFFFFFFFFFFFFF MUL NOT AND SWAP1 DUP4 PUSH8 0xFFFFFFFFFFFFFFFF AND MUL OR SWAP1 SSTORE POP PUSH1 0x1 PUSH1 0x0 DUP1 SLOAD SWAP1 PUSH2 0x100 EXP SWAP1 DIV PUSH1 0xFF AND PUSH2 0x2F2 SWAP2 SWAP1 PUSH2 0x644 JUMP JUMPDEST PUSH1 0x0 DUP1 PUSH2 0x100 EXP DUP2 SLOAD DUP2 PUSH1 0xFF MUL NOT AND SWAP1 DUP4 PUSH1 0xFF AND MUL OR SWAP1 SSTORE POP PUSH1 0x0 DUP1 PUSH1 0x0 SWAP1 SLOAD SWAP1 PUSH2 0x100 EXP SWAP1 DIV PUSH1 0xFF AND PUSH1 0xFF AND LT ISZERO PUSH2 0x360 JUMPI PUSH1 0x40 MLOAD PUSH32 0x8C379A000000000000000000000000000000000000000000000000000000000 DUP2 MSTORE PUSH1 0x4 ADD PUSH2 0x357 SWAP1 PUSH2 0x586 JUMP JUMPDEST PUSH1 0x40 MLOAD DUP1 SWAP2 SUB SWAP1 REVERT JUMPDEST DUP1 PUSH1 0x2 PUSH1 0x0 DUP1 SLOAD SWAP1 PUSH2 0x100 EXP SWAP1 DIV PUSH1 0xFF AND PUSH1 0xFF AND PUSH1 0x5 DUP2 LT PUSH2 0x385 JUMPI PUSH2 0x384 PUSH2 0x6C8 JUMP JUMPDEST JUMPDEST PUSH1 0x4 SWAP2 DUP3 DUP3 DIV ADD SWAP2 SWAP1 MOD PUSH1 0x8 MUL DUP3 DUP3 DUP3 SWAP1 SLOAD SWAP1 PUSH2 0x100 EXP SWAP1 DIV PUSH8 0xFFFFFFFFFFFFFFFF AND PUSH2 0x3B2 SWAP2 SWAP1 PUSH2 0x5D2 JUMP JUMPDEST SWAP3 POP PUSH2 0x100 EXP DUP2 SLOAD DUP2 PUSH8 0xFFFFFFFFFFFFFFFF MUL NOT AND SWAP1 DUP4 PUSH8 0xFFFFFFFFFFFFFFFF AND MUL OR SWAP1 SSTORE POP PUSH1 0x1 PUSH1 0x0 DUP1 SLOAD SWAP1 PUSH2 0x100 EXP SWAP1 DIV PUSH1 0xFF AND PUSH1 0xFF AND PUSH1 0x5 DUP2 LT PUSH2 0x3FC JUMPI PUSH2 0x3FB PUSH2 0x6C8 JUMP JUMPDEST JUMPDEST PUSH1 0x8 SWAP2 DUP3 DUP3 DIV ADD SWAP2 SWAP1 MOD PUSH1 0x4 MUL SWAP1 SLOAD SWAP1 PUSH2 0x100 EXP SWAP1 DIV PUSH4 0xFFFFFFFF AND PUSH4 0xFFFFFFFF AND PUSH1 0x2 PUSH1 0x0 DUP1 SLOAD SWAP1 PUSH2 0x100 EXP SWAP1 DIV PUSH1 0xFF AND PUSH1 0xFF AND PUSH1 0x5 DUP2 LT PUSH2 0x442 JUMPI PUSH2 0x441 PUSH2 0x6C8 JUMP JUMPDEST JUMPDEST PUSH1 0x4 SWAP2 DUP3 DUP3 DIV ADD SWAP2 SWAP1 MOD PUSH1 0x8 MUL SWAP1 SLOAD SWAP1 PUSH2 0x100 EXP SWAP1 DIV PUSH8 0xFFFFFFFFFFFFFFFF AND PUSH8 0xFFFFFFFFFFFFFFFF AND GT ISZERO PUSH2 0x50F JUMPI PUSH2 0x50E PUSH1 0x1 PUSH1 0x0 DUP1 SLOAD SWAP1 PUSH2 0x100 EXP SWAP1 DIV PUSH1 0xFF AND PUSH1 0xFF AND PUSH1 0x5 DUP2 LT PUSH2 0x499 JUMPI PUSH2 0x498 PUSH2 0x6C8 JUMP JUMPDEST JUMPDEST PUSH1 0x8 SWAP2 DUP3 DUP3 DIV ADD SWAP2 SWAP1 MOD PUSH1 0x4 MUL SWAP1 SLOAD SWAP1 PUSH2 0x100 EXP SWAP1 DIV PUSH4 0xFFFFFFFF AND PUSH4 0xFFFFFFFF AND PUSH1 0x2 PUSH1 0x0 DUP1 SLOAD SWAP1 PUSH2 0x100 EXP SWAP1 DIV PUSH1 0xFF AND PUSH1 0xFF AND PUSH1 0x5 DUP2 LT PUSH2 0x4DF JUMPI PUSH2 0x4DE PUSH2 0x6C8 JUMP JUMPDEST JUMPDEST PUSH1 0x4 SWAP2 DUP3 DUP3 DIV ADD SWAP2 SWAP1 MOD PUSH1 0x8 MUL SWAP1 SLOAD SWAP1 PUSH2 0x100 EXP SWAP1 DIV PUSH8 0xFFFFFFFFFFFFFFFF AND PUSH2 0x509 SWAP2 SWAP1 PUSH2 0x610 JUMP JUMPDEST PUSH2 0x23D JUMP JUMPDEST JUMPDEST POP JUMP JUMPDEST PUSH1 0x0 DUP2 CALLDATALOAD SWAP1 POP PUSH2 0x521 DUP2 PUSH2 0x74B JUMP JUMPDEST SWAP3 SWAP2 POP POP JUMP JUMPDEST PUSH1 0x0 PUSH1 0x20 DUP3 DUP5 SUB SLT ISZERO PUSH2 0x53D JUMPI PUSH2 0x53C PUSH2 0x6F7 JUMP JUMPDEST JUMPDEST PUSH1 0x0 PUSH2 0x54B DUP5 DUP3 DUP6 ADD PUSH2 0x512 JUMP JUMPDEST SWAP2 POP POP SWAP3 SWAP2 POP POP JUMP JUMPDEST PUSH1 0x0 PUSH2 0x561 PUSH1 0x2F DUP4 PUSH2 0x5C1 JUMP JUMPDEST SWAP2 POP PUSH2 0x56C DUP3 PUSH2 0x6FC JUMP JUMPDEST PUSH1 0x40 DUP3 ADD SWAP1 POP SWAP2 SWAP1 POP JUMP JUMPDEST PUSH2 0x580 DUP2 PUSH2 0x68C JUMP JUMPDEST DUP3 MSTORE POP POP JUMP JUMPDEST PUSH1 0x0 PUSH1 0x20 DUP3 ADD SWAP1 POP DUP2 DUP2 SUB PUSH1 0x0 DUP4 ADD MSTORE PUSH2 0x59F DUP2 PUSH2 0x554 JUMP JUMPDEST SWAP1 POP SWAP2 SWAP1 POP JUMP JUMPDEST PUSH1 0x0 PUSH1 0x20 DUP3 ADD SWAP1 POP PUSH2 0x5BB PUSH1 0x0 DUP4 ADD DUP5 PUSH2 0x577 JUMP JUMPDEST SWAP3 SWAP2 POP POP JUMP JUMPDEST PUSH1 0x0 DUP3 DUP3 MSTORE PUSH1 0x20 DUP3 ADD SWAP1 POP SWAP3 SWAP2 POP POP JUMP JUMPDEST PUSH1 0x0 PUSH2 0x5DD DUP3 PUSH2 0x678 JUMP JUMPDEST SWAP2 POP PUSH2 0x5E8 DUP4 PUSH2 0x678 JUMP JUMPDEST SWAP3 POP DUP3 PUSH8 0xFFFFFFFFFFFFFFFF SUB DUP3 GT ISZERO PUSH2 0x605 JUMPI PUSH2 0x604 PUSH2 0x699 JUMP JUMPDEST JUMPDEST DUP3 DUP3 ADD SWAP1 POP SWAP3 SWAP2 POP POP JUMP JUMPDEST PUSH1 0x0 PUSH2 0x61B DUP3 PUSH2 0x678 JUMP JUMPDEST SWAP2 POP PUSH2 0x626 DUP4 PUSH2 0x678 JUMP JUMPDEST SWAP3 POP DUP3 DUP3 LT ISZERO PUSH2 0x639 JUMPI PUSH2 0x638 PUSH2 0x699 JUMP JUMPDEST JUMPDEST DUP3 DUP3 SUB SWAP1 POP SWAP3 SWAP2 POP POP JUMP JUMPDEST PUSH1 0x0 PUSH2 0x64F DUP3 PUSH2 0x68C JUMP JUMPDEST SWAP2 POP PUSH2 0x65A DUP4 PUSH2 0x68C JUMP JUMPDEST SWAP3 POP DUP3 DUP3 LT ISZERO PUSH2 0x66D JUMPI PUSH2 0x66C PUSH2 0x699 JUMP JUMPDEST JUMPDEST DUP3 DUP3 SUB SWAP1 POP SWAP3 SWAP2 POP POP JUMP JUMPDEST PUSH1 0x0 PUSH8 0xFFFFFFFFFFFFFFFF DUP3 AND SWAP1 POP SWAP2 SWAP1 POP JUMP JUMPDEST PUSH1 0x0 PUSH1 0xFF DUP3 AND SWAP1 POP SWAP2 SWAP1 POP JUMP JUMPDEST PUSH32 0x4E487B7100000000000000000000000000000000000000000000000000000000 PUSH1 0x0 MSTORE PUSH1 0x11 PUSH1 0x4 MSTORE PUSH1 0x24 PUSH1 0x0 REVERT JUMPDEST PUSH32 0x4E487B7100000000000000000000000000000000000000000000000000000000 PUSH1 0x0 MSTORE PUSH1 0x32 PUSH1 0x4 MSTORE PUSH1 0x24 PUSH1 0x0 REVERT JUMPDEST PUSH1 0x0 DUP1 REVERT JUMPDEST PUSH32 0x416C6C20736C616273206172652066756C6C2C206D6F726520746F6B656E7320 PUSH1 0x0 DUP3 ADD MSTORE PUSH32 0x63616E6E6F742062652061646465640000000000000000000000000000000000 PUSH1 0x20 DUP3 ADD MSTORE POP JUMP JUMPDEST PUSH2 0x754 DUP2 PUSH2 0x678 JUMP JUMPDEST DUP2 EQ PUSH2 0x75F JUMPI PUSH1 0x0 DUP1 REVERT JUMPDEST POP JUMP INVALID LOG2 PUSH5 0x6970667358 0x22 SLT KECCAK256 0xE1 EXP 0xE6 0xE5 0xEA PUSH31 0xCD5AB6F976F93DE29112A103F11E43124E9EDF40CD758B51530264736F6C63 NUMBER STOP ADDMOD SMOD STOP CALLER "
				},
				"gasEstimates": {
					"creation": {
						"codeDepositCost": "388800",
						"executionCost": "infinite",
						"totalCost": "infinite"
					},
					"external": {
						"tokenDeposit(uint64)": "infinite",
						"viewSlabDetails()": "2479"
					},
					"internal": {
						"overflowHandler(uint64)": "infinite"
					}
				},
				"methodIdentifiers": {
					"tokenDeposit(uint64)": "10af504a",
					"viewSlabDetails()": "eda2ab68"
				}
			},
			"storageLayout": {
				"storage": [
					{
						"astId": 3,
						"contract": "Tokenslab.sol:Tokenslab",
						"label": "currentSlab",
						"offset": 0,
						"slot": "0",
						"type": "t_uint8"
					},
					{
						"astId": 7,
						"contract": "Tokenslab.sol:Tokenslab",
						"label": "slabLimits",
						"offset": 0,
						"slot": "1",
						"type": "t_array(t_uint32)5_storage"
					},
					{
						"astId": 11,
						"contract": "Tokenslab.sol:Tokenslab",
						"label": "slabValues",
						"offset": 0,
						"slot": "2",
						"type": "t_array(t_uint64)5_storage"
					}
				],
				"types": {
					"t_array(t_uint32)5_storage": {
						"base": "t_uint32",
						"encoding": "inplace",
						"label": "uint32[5]",
						"numberOfBytes": "32"
					},
					"t_array(t_uint64)5_storage": {
						"base": "t_uint64",
						"encoding": "inplace",
						"label": "uint64[5]",
						"numberOfBytes": "64"
					},
					"t_uint32": {
						"encoding": "inplace",
						"label": "uint32",
						"numberOfBytes": "4"
					},
					"t_uint64": {
						"encoding": "inplace",
						"label": "uint64",
						"numberOfBytes": "8"
					},
					"t_uint8": {
						"encoding": "inplace",
						"label": "uint8",
						"numberOfBytes": "1"
					}
				}
			},
			"userdoc": {
				"kind": "user",
				"methods": {},
				"version": 1
			}
		}
	}
}