{
	"Tokenslab.sol": {
		"Tokenslab": {
			"abi": [
				{
					"inputs": [],
					"stateMutability": "nonpayable",
					"type": "constructor"
				},
				{
					"inputs": [
						{
							"internalType": "uint256",
							"name": "",
							"type": "uint256"
						}
					],
					"name": "slabValues",
					"outputs": [
						{
							"internalType": "uint64",
							"name": "",
							"type": "uint64"
						}
					],
					"stateMutability": "view",
					"type": "function"
				},
				{
					"inputs": [
						{
							"internalType": "uint64",
							"name": "noofTokens",
							"type": "uint64"
						}
					],
					"name": "tokenDeposit",
					"outputs": [],
					"stateMutability": "nonpayable",
					"type": "function"
				},
				{
					"inputs": [],
					"name": "viewSlabDetails",
					"outputs": [
						{
							"internalType": "uint8",
							"name": "",
							"type": "uint8"
						}
					],
					"stateMutability": "view",
					"type": "function"
				}
			],
			"devdoc": {
				"kind": "dev",
				"methods": {},
				"version": 1
			},
			"evm": {
				"assembly": "    /* \"Tokenslab.sol\":71:1437  contract Tokenslab {\r... */\n  mstore(0x40, 0x80)\n    /* \"Tokenslab.sol\":200:379  constructor()\r... */\n  callvalue\n  dup1\n  iszero\n  tag_1\n  jumpi\n  0x00\n  dup1\n  revert\ntag_1:\n  pop\n    /* \"Tokenslab.sol\":238:272  slabLimits = [100,200,300,400,500] */\n  mload(0x40)\n  dup1\n  0xa0\n  add\n  0x40\n  mstore\n  dup1\n    /* \"Tokenslab.sol\":252:255  100 */\n  0x64\n    /* \"Tokenslab.sol\":238:272  slabLimits = [100,200,300,400,500] */\n  0xffff\n  and\n  dup2\n  mstore\n  0x20\n  add\n    /* \"Tokenslab.sol\":256:259  200 */\n  0xc8\n    /* \"Tokenslab.sol\":238:272  slabLimits = [100,200,300,400,500] */\n  0xffff\n  and\n  dup2\n  mstore\n  0x20\n  add\n    /* \"Tokenslab.sol\":260:263  300 */\n  0x012c\n    /* \"Tokenslab.sol\":238:272  slabLimits = [100,200,300,400,500] */\n  0xffff\n  and\n  dup2\n  mstore\n  0x20\n  add\n    /* \"Tokenslab.sol\":264:267  400 */\n  0x0190\n    /* \"Tokenslab.sol\":238:272  slabLimits = [100,200,300,400,500] */\n  0xffff\n  and\n  dup2\n  mstore\n  0x20\n  add\n    /* \"Tokenslab.sol\":268:271  500 */\n  0x01f4\n    /* \"Tokenslab.sol\":238:272  slabLimits = [100,200,300,400,500] */\n  0xffff\n  and\n  dup2\n  mstore\n  pop\n    /* \"Tokenslab.sol\":238:248  slabLimits */\n  0x01\n    /* \"Tokenslab.sol\":238:272  slabLimits = [100,200,300,400,500] */\n  swap1\n  0x05\n  tag_4\n  swap3\n  swap2\n  swap1\n  tag_5\n  jump\t// in\ntag_4:\n  pop\n    /* \"Tokenslab.sol\":301:302  4 */\n  0x04\n    /* \"Tokenslab.sol\":287:298  currentSlab */\n  0x00\n  dup1\n    /* \"Tokenslab.sol\":287:302  currentSlab = 4 */\n  0x0100\n  exp\n  dup2\n  sload\n  dup2\n  0xff\n  mul\n  not\n  and\n  swap1\n  dup4\n  0xff\n  and\n  mul\n  or\n  swap1\n  sstore\n  pop\n    /* \"Tokenslab.sol\":343:367  slabValues = [0,0,0,0,0] */\n  mload(0x40)\n  dup1\n  0xa0\n  add\n  0x40\n  mstore\n  dup1\n    /* \"Tokenslab.sol\":357:358  0 */\n  0x00\n    /* \"Tokenslab.sol\":343:367  slabValues = [0,0,0,0,0] */\n  0xff\n  and\n  dup2\n  mstore\n  0x20\n  add\n    /* \"Tokenslab.sol\":359:360  0 */\n  0x00\n    /* \"Tokenslab.sol\":343:367  slabValues = [0,0,0,0,0] */\n  0xff\n  and\n  dup2\n  mstore\n  0x20\n  add\n    /* \"Tokenslab.sol\":361:362  0 */\n  0x00\n    /* \"Tokenslab.sol\":343:367  slabValues = [0,0,0,0,0] */\n  0xff\n  and\n  dup2\n  mstore\n  0x20\n  add\n    /* \"Tokenslab.sol\":363:364  0 */\n  0x00\n    /* \"Tokenslab.sol\":343:367  slabValues = [0,0,0,0,0] */\n  0xff\n  and\n  dup2\n  mstore\n  0x20\n  add\n    /* \"Tokenslab.sol\":365:366  0 */\n  0x00\n    /* \"Tokenslab.sol\":343:367  slabValues = [0,0,0,0,0] */\n  0xff\n  and\n  dup2\n  mstore\n  pop\n    /* \"Tokenslab.sol\":343:353  slabValues */\n  0x02\n    /* \"Tokenslab.sol\":343:367  slabValues = [0,0,0,0,0] */\n  swap1\n  0x05\n  tag_6\n  swap3\n  swap2\n  swap1\n  tag_7\n  jump\t// in\ntag_6:\n  pop\n    /* \"Tokenslab.sol\":71:1437  contract Tokenslab {\r... */\n  jump(tag_8)\ntag_5:\n  dup3\n  add(0x07, 0x05)\n  0x08\n  swap1\n  div\n  dup2\n  add\n  swap3\n  dup3\n  iszero\n  tag_9\n  jumpi\n  swap2\n  0x20\n  mul\n  dup3\n  add\n  0x00\ntag_10:\n  dup4\n  dup3\n  gt\n  iszero\n  tag_11\n  jumpi\n  dup4\n  mload\n  dup4\n  dup3\n  0x0100\n  exp\n  dup2\n  sload\n  dup2\n  0xffffffff\n  mul\n  not\n  and\n  swap1\n  dup4\n  0xffff\n  and\n  mul\n  or\n  swap1\n  sstore\n  pop\n  swap3\n  0x20\n  add\n  swap3\n  0x04\n  add\n  0x20\n  dup2\n  0x03\n  add\n  div\n  swap3\n  dup4\n  add\n  swap3\n  0x01\n  sub\n  mul\n  jump(tag_10)\ntag_11:\n  dup1\n  iszero\n  tag_12\n  jumpi\n  dup3\n  dup2\n  0x0100\n  exp\n  dup2\n  sload\n  swap1\n  0xffffffff\n  mul\n  not\n  and\n  swap1\n  sstore\n  0x04\n  add\n  0x20\n  dup2\n  0x03\n  add\n  div\n  swap3\n  dup4\n  add\n  swap3\n  0x01\n  sub\n  mul\n  jump(tag_11)\ntag_12:\n  pop\ntag_9:\n  pop\n  swap1\n  pop\n  tag_13\n  swap2\n  swap1\n  tag_14\n  jump\t// in\ntag_13:\n  pop\n  swap1\n  jump\t// out\ntag_7:\n  dup3\n  add(0x03, 0x05)\n  0x04\n  swap1\n  div\n  dup2\n  add\n  swap3\n  dup3\n  iszero\n  tag_15\n  jumpi\n  swap2\n  0x20\n  mul\n  dup3\n  add\n  0x00\ntag_16:\n  dup4\n  dup3\n  gt\n  iszero\n  tag_17\n  jumpi\n  dup4\n  mload\n  dup4\n  dup3\n  0x0100\n  exp\n  dup2\n  sload\n  dup2\n  0xffffffffffffffff\n  mul\n  not\n  and\n  swap1\n  dup4\n  0xff\n  and\n  mul\n  or\n  swap1\n  sstore\n  pop\n  swap3\n  0x20\n  add\n  swap3\n  0x08\n  add\n  0x20\n  dup2\n  0x07\n  add\n  div\n  swap3\n  dup4\n  add\n  swap3\n  0x01\n  sub\n  mul\n  jump(tag_16)\ntag_17:\n  dup1\n  iszero\n  tag_18\n  jumpi\n  dup3\n  dup2\n  0x0100\n  exp\n  dup2\n  sload\n  swap1\n  0xffffffffffffffff\n  mul\n  not\n  and\n  swap1\n  sstore\n  0x08\n  add\n  0x20\n  dup2\n  0x07\n  add\n  div\n  swap3\n  dup4\n  add\n  swap3\n  0x01\n  sub\n  mul\n  jump(tag_17)\ntag_18:\n  pop\ntag_15:\n  pop\n  swap1\n  pop\n  tag_19\n  swap2\n  swap1\n  tag_14\n  jump\t// in\ntag_19:\n  pop\n  swap1\n  jump\t// out\ntag_14:\ntag_20:\n  dup1\n  dup3\n  gt\n  iszero\n  tag_21\n  jumpi\n  0x00\n  dup2\n  0x00\n  swap1\n  sstore\n  pop\n  0x01\n  add\n  jump(tag_20)\ntag_21:\n  pop\n  swap1\n  jump\t// out\ntag_8:\n  dataSize(sub_0)\n  dup1\n  dataOffset(sub_0)\n  0x00\n  codecopy\n  0x00\n  return\nstop\n\nsub_0: assembly {\n        /* \"Tokenslab.sol\":71:1437  contract Tokenslab {\r... */\n      mstore(0x40, 0x80)\n      callvalue\n      dup1\n      iszero\n      tag_1\n      jumpi\n      0x00\n      dup1\n      revert\n    tag_1:\n      pop\n      jumpi(tag_2, lt(calldatasize, 0x04))\n      shr(0xe0, calldataload(0x00))\n      dup1\n      0x10af504a\n      eq\n      tag_3\n      jumpi\n      dup1\n      0xa72ae7a6\n      eq\n      tag_4\n      jumpi\n      dup1\n      0xeda2ab68\n      eq\n      tag_5\n      jumpi\n    tag_2:\n      0x00\n      dup1\n      revert\n        /* \"Tokenslab.sol\":391:694  function tokenDeposit(uint64 noofTokens) public\r... */\n    tag_3:\n      tag_6\n      0x04\n      dup1\n      calldatasize\n      sub\n      dup2\n      add\n      swap1\n      tag_7\n      swap2\n      swap1\n      tag_8\n      jump\t// in\n    tag_7:\n      tag_9\n      jump\t// in\n    tag_6:\n      stop\n        /* \"Tokenslab.sol\":160:187  uint64[5] public slabValues */\n    tag_4:\n      tag_10\n      0x04\n      dup1\n      calldatasize\n      sub\n      dup2\n      add\n      swap1\n      tag_11\n      swap2\n      swap1\n      tag_12\n      jump\t// in\n    tag_11:\n      tag_13\n      jump\t// in\n    tag_10:\n      mload(0x40)\n      tag_14\n      swap2\n      swap1\n      tag_15\n      jump\t// in\n    tag_14:\n      mload(0x40)\n      dup1\n      swap2\n      sub\n      swap1\n      return\n        /* \"Tokenslab.sol\":1319:1428  function viewSlabDetails() public view returns(uint8)\r... */\n    tag_5:\n      tag_16\n      tag_17\n      jump\t// in\n    tag_16:\n      mload(0x40)\n      tag_18\n      swap2\n      swap1\n      tag_19\n      jump\t// in\n    tag_18:\n      mload(0x40)\n      dup1\n      swap2\n      sub\n      swap1\n      return\n        /* \"Tokenslab.sol\":391:694  function tokenDeposit(uint64 noofTokens) public\r... */\n    tag_9:\n        /* \"Tokenslab.sol\":490:500  noofTokens */\n      dup1\n        /* \"Tokenslab.sol\":463:473  slabValues */\n      0x02\n        /* \"Tokenslab.sol\":474:485  currentSlab */\n      0x00\n      dup1\n      sload\n      swap1\n      0x0100\n      exp\n      swap1\n      div\n      0xff\n      and\n        /* \"Tokenslab.sol\":463:486  slabValues[currentSlab] */\n      0xff\n      and\n      0x05\n      dup2\n      lt\n      tag_21\n      jumpi\n      tag_22\n      tag_23\n      jump\t// in\n    tag_22:\n    tag_21:\n      0x04\n      swap2\n      dup3\n      dup3\n      div\n      add\n      swap2\n      swap1\n      mod\n      0x08\n      mul\n        /* \"Tokenslab.sol\":463:500  slabValues[currentSlab] += noofTokens */\n      dup3\n      dup3\n      dup3\n      swap1\n      sload\n      swap1\n      0x0100\n      exp\n      swap1\n      div\n      0xffffffffffffffff\n      and\n      tag_25\n      swap2\n      swap1\n      tag_26\n      jump\t// in\n    tag_25:\n      swap3\n      pop\n      0x0100\n      exp\n      dup2\n      sload\n      dup2\n      0xffffffffffffffff\n      mul\n      not\n      and\n      swap1\n      dup4\n      0xffffffffffffffff\n      and\n      mul\n      or\n      swap1\n      sstore\n      pop\n        /* \"Tokenslab.sol\":544:554  slabLimits */\n      0x01\n        /* \"Tokenslab.sol\":555:566  currentSlab */\n      0x00\n      dup1\n      sload\n      swap1\n      0x0100\n      exp\n      swap1\n      div\n      0xff\n      and\n        /* \"Tokenslab.sol\":544:567  slabLimits[currentSlab] */\n      0xff\n      and\n      0x05\n      dup2\n      lt\n      tag_27\n      jumpi\n      tag_28\n      tag_23\n      jump\t// in\n    tag_28:\n    tag_27:\n      0x08\n      swap2\n      dup3\n      dup3\n      div\n      add\n      swap2\n      swap1\n      mod\n      0x04\n      mul\n      swap1\n      sload\n      swap1\n      0x0100\n      exp\n      swap1\n      div\n      0xffffffff\n      and\n        /* \"Tokenslab.sol\":518:567  slabValues[currentSlab] > slabLimits[currentSlab] */\n      0xffffffff\n      and\n        /* \"Tokenslab.sol\":518:528  slabValues */\n      0x02\n        /* \"Tokenslab.sol\":529:540  currentSlab */\n      0x00\n      dup1\n      sload\n      swap1\n      0x0100\n      exp\n      swap1\n      div\n      0xff\n      and\n        /* \"Tokenslab.sol\":518:541  slabValues[currentSlab] */\n      0xff\n      and\n      0x05\n      dup2\n      lt\n      tag_30\n      jumpi\n      tag_31\n      tag_23\n      jump\t// in\n    tag_31:\n    tag_30:\n      0x04\n      swap2\n      dup3\n      dup3\n      div\n      add\n      swap2\n      swap1\n      mod\n      0x08\n      mul\n      swap1\n      sload\n      swap1\n      0x0100\n      exp\n      swap1\n      div\n      0xffffffffffffffff\n      and\n        /* \"Tokenslab.sol\":518:567  slabValues[currentSlab] > slabLimits[currentSlab] */\n      0xffffffffffffffff\n      and\n      gt\n        /* \"Tokenslab.sol\":515:683  if(slabValues[currentSlab] > slabLimits[currentSlab])\r... */\n      iszero\n      tag_33\n      jumpi\n        /* \"Tokenslab.sol\":601:667  overflowHandler(slabValues[currentSlab] - slabLimits[currentSlab]) */\n      tag_34\n        /* \"Tokenslab.sol\":643:653  slabLimits */\n      0x01\n        /* \"Tokenslab.sol\":654:665  currentSlab */\n      0x00\n      dup1\n      sload\n      swap1\n      0x0100\n      exp\n      swap1\n      div\n      0xff\n      and\n        /* \"Tokenslab.sol\":643:666  slabLimits[currentSlab] */\n      0xff\n      and\n      0x05\n      dup2\n      lt\n      tag_35\n      jumpi\n      tag_36\n      tag_23\n      jump\t// in\n    tag_36:\n    tag_35:\n      0x08\n      swap2\n      dup3\n      dup3\n      div\n      add\n      swap2\n      swap1\n      mod\n      0x04\n      mul\n      swap1\n      sload\n      swap1\n      0x0100\n      exp\n      swap1\n      div\n      0xffffffff\n      and\n        /* \"Tokenslab.sol\":617:666  slabValues[currentSlab] - slabLimits[currentSlab] */\n      0xffffffff\n      and\n        /* \"Tokenslab.sol\":617:627  slabValues */\n      0x02\n        /* \"Tokenslab.sol\":628:639  currentSlab */\n      0x00\n      dup1\n      sload\n      swap1\n      0x0100\n      exp\n      swap1\n      div\n      0xff\n      and\n        /* \"Tokenslab.sol\":617:640  slabValues[currentSlab] */\n      0xff\n      and\n      0x05\n      dup2\n      lt\n      tag_38\n      jumpi\n      tag_39\n      tag_23\n      jump\t// in\n    tag_39:\n    tag_38:\n      0x04\n      swap2\n      dup3\n      dup3\n      div\n      add\n      swap2\n      swap1\n      mod\n      0x08\n      mul\n      swap1\n      sload\n      swap1\n      0x0100\n      exp\n      swap1\n      div\n      0xffffffffffffffff\n      and\n        /* \"Tokenslab.sol\":617:666  slabValues[currentSlab] - slabLimits[currentSlab] */\n      tag_41\n      swap2\n      swap1\n      tag_42\n      jump\t// in\n    tag_41:\n        /* \"Tokenslab.sol\":601:616  overflowHandler */\n      tag_43\n        /* \"Tokenslab.sol\":601:667  overflowHandler(slabValues[currentSlab] - slabLimits[currentSlab]) */\n      jump\t// in\n    tag_34:\n        /* \"Tokenslab.sol\":515:683  if(slabValues[currentSlab] > slabLimits[currentSlab])\r... */\n    tag_33:\n        /* \"Tokenslab.sol\":391:694  function tokenDeposit(uint64 noofTokens) public\r... */\n      pop\n      jump\t// out\n        /* \"Tokenslab.sol\":160:187  uint64[5] public slabValues */\n    tag_13:\n      0x02\n      dup2\n      0x05\n      dup2\n      lt\n      tag_44\n      jumpi\n      0x00\n      dup1\n      revert\n    tag_44:\n      0x04\n      swap2\n      dup3\n      dup3\n      div\n      add\n      swap2\n      swap1\n      mod\n      0x08\n      mul\n      swap2\n      pop\n      sload\n      swap1\n      0x0100\n      exp\n      swap1\n      div\n      0xffffffffffffffff\n      and\n      dup2\n      jump\t// out\n        /* \"Tokenslab.sol\":1319:1428  function viewSlabDetails() public view returns(uint8)\r... */\n    tag_17:\n        /* \"Tokenslab.sol\":1366:1371  uint8 */\n      0x00\n        /* \"Tokenslab.sol\":1404:1415  currentSlab */\n      dup1\n      0x00\n      swap1\n      sload\n      swap1\n      0x0100\n      exp\n      swap1\n      div\n      0xff\n      and\n        /* \"Tokenslab.sol\":1397:1416  return(currentSlab) */\n      swap1\n      pop\n        /* \"Tokenslab.sol\":1319:1428  function viewSlabDetails() public view returns(uint8)\r... */\n      swap1\n      jump\t// out\n        /* \"Tokenslab.sol\":706:1306  function overflowHandler(uint64 overFlow) private \r... */\n    tag_43:\n        /* \"Tokenslab.sol\":884:894  slabLimits */\n      0x01\n        /* \"Tokenslab.sol\":895:906  currentSlab */\n      0x00\n      dup1\n      sload\n      swap1\n      0x0100\n      exp\n      swap1\n      div\n      0xff\n      and\n        /* \"Tokenslab.sol\":884:907  slabLimits[currentSlab] */\n      0xff\n      and\n      0x05\n      dup2\n      lt\n      tag_48\n      jumpi\n      tag_49\n      tag_23\n      jump\t// in\n    tag_49:\n    tag_48:\n      0x08\n      swap2\n      dup3\n      dup3\n      div\n      add\n      swap2\n      swap1\n      mod\n      0x04\n      mul\n      swap1\n      sload\n      swap1\n      0x0100\n      exp\n      swap1\n      div\n      0xffffffff\n      and\n        /* \"Tokenslab.sol\":858:907  slabValues[currentSlab] = slabLimits[currentSlab] */\n      0xffffffff\n      and\n        /* \"Tokenslab.sol\":858:868  slabValues */\n      0x02\n        /* \"Tokenslab.sol\":869:880  currentSlab */\n      0x00\n      dup1\n      sload\n      swap1\n      0x0100\n      exp\n      swap1\n      div\n      0xff\n      and\n        /* \"Tokenslab.sol\":858:881  slabValues[currentSlab] */\n      0xff\n      and\n      0x05\n      dup2\n      lt\n      tag_51\n      jumpi\n      tag_52\n      tag_23\n      jump\t// in\n    tag_52:\n    tag_51:\n      0x04\n      swap2\n      dup3\n      dup3\n      div\n      add\n      swap2\n      swap1\n      mod\n      0x08\n      mul\n        /* \"Tokenslab.sol\":858:907  slabValues[currentSlab] = slabLimits[currentSlab] */\n      0x0100\n      exp\n      dup2\n      sload\n      dup2\n      0xffffffffffffffff\n      mul\n      not\n      and\n      swap1\n      dup4\n      0xffffffffffffffff\n      and\n      mul\n      or\n      swap1\n      sstore\n      pop\n        /* \"Tokenslab.sol\":950:951  1 */\n      0x01\n        /* \"Tokenslab.sol\":936:947  currentSlab */\n      0x00\n      dup1\n      sload\n      swap1\n      0x0100\n      exp\n      swap1\n      div\n      0xff\n      and\n        /* \"Tokenslab.sol\":936:951  currentSlab - 1 */\n      tag_54\n      swap2\n      swap1\n      tag_55\n      jump\t// in\n    tag_54:\n        /* \"Tokenslab.sol\":922:933  currentSlab */\n      0x00\n      dup1\n        /* \"Tokenslab.sol\":922:951  currentSlab = currentSlab - 1 */\n      0x0100\n      exp\n      dup2\n      sload\n      dup2\n      0xff\n      mul\n      not\n      and\n      swap1\n      dup4\n      0xff\n      and\n      mul\n      or\n      swap1\n      sstore\n      pop\n        /* \"Tokenslab.sol\":991:992  0 */\n      0x00\n        /* \"Tokenslab.sol\":976:987  currentSlab */\n      dup1\n      0x00\n      swap1\n      sload\n      swap1\n      0x0100\n      exp\n      swap1\n      div\n      0xff\n      and\n        /* \"Tokenslab.sol\":976:992  currentSlab >= 0 */\n      0xff\n      and\n      lt\n      iszero\n        /* \"Tokenslab.sol\":968:1044  require(currentSlab >= 0, \"All slabs are full, more tokens cannot be added\") */\n      tag_56\n      jumpi\n      mload(0x40)\n      0x08c379a000000000000000000000000000000000000000000000000000000000\n      dup2\n      mstore\n      0x04\n      add\n      tag_57\n      swap1\n      tag_58\n      jump\t// in\n    tag_57:\n      mload(0x40)\n      dup1\n      swap2\n      sub\n      swap1\n      revert\n    tag_56:\n        /* \"Tokenslab.sol\":1088:1096  overFlow */\n      dup1\n        /* \"Tokenslab.sol\":1061:1071  slabValues */\n      0x02\n        /* \"Tokenslab.sol\":1072:1083  currentSlab */\n      0x00\n      dup1\n      sload\n      swap1\n      0x0100\n      exp\n      swap1\n      div\n      0xff\n      and\n        /* \"Tokenslab.sol\":1061:1084  slabValues[currentSlab] */\n      0xff\n      and\n      0x05\n      dup2\n      lt\n      tag_59\n      jumpi\n      tag_60\n      tag_23\n      jump\t// in\n    tag_60:\n    tag_59:\n      0x04\n      swap2\n      dup3\n      dup3\n      div\n      add\n      swap2\n      swap1\n      mod\n      0x08\n      mul\n        /* \"Tokenslab.sol\":1061:1096  slabValues[currentSlab] += overFlow */\n      dup3\n      dup3\n      dup3\n      swap1\n      sload\n      swap1\n      0x0100\n      exp\n      swap1\n      div\n      0xffffffffffffffff\n      and\n      tag_62\n      swap2\n      swap1\n      tag_26\n      jump\t// in\n    tag_62:\n      swap3\n      pop\n      0x0100\n      exp\n      dup2\n      sload\n      dup2\n      0xffffffffffffffff\n      mul\n      not\n      and\n      swap1\n      dup4\n      0xffffffffffffffff\n      and\n      mul\n      or\n      swap1\n      sstore\n      pop\n        /* \"Tokenslab.sol\":1142:1152  slabLimits */\n      0x01\n        /* \"Tokenslab.sol\":1153:1164  currentSlab */\n      0x00\n      dup1\n      sload\n      swap1\n      0x0100\n      exp\n      swap1\n      div\n      0xff\n      and\n        /* \"Tokenslab.sol\":1142:1165  slabLimits[currentSlab] */\n      0xff\n      and\n      0x05\n      dup2\n      lt\n      tag_63\n      jumpi\n      tag_64\n      tag_23\n      jump\t// in\n    tag_64:\n    tag_63:\n      0x08\n      swap2\n      dup3\n      dup3\n      div\n      add\n      swap2\n      swap1\n      mod\n      0x04\n      mul\n      swap1\n      sload\n      swap1\n      0x0100\n      exp\n      swap1\n      div\n      0xffffffff\n      and\n        /* \"Tokenslab.sol\":1116:1165  slabValues[currentSlab] > slabLimits[currentSlab] */\n      0xffffffff\n      and\n        /* \"Tokenslab.sol\":1116:1126  slabValues */\n      0x02\n        /* \"Tokenslab.sol\":1127:1138  currentSlab */\n      0x00\n      dup1\n      sload\n      swap1\n      0x0100\n      exp\n      swap1\n      div\n      0xff\n      and\n        /* \"Tokenslab.sol\":1116:1139  slabValues[currentSlab] */\n      0xff\n      and\n      0x05\n      dup2\n      lt\n      tag_66\n      jumpi\n      tag_67\n      tag_23\n      jump\t// in\n    tag_67:\n    tag_66:\n      0x04\n      swap2\n      dup3\n      dup3\n      div\n      add\n      swap2\n      swap1\n      mod\n      0x08\n      mul\n      swap1\n      sload\n      swap1\n      0x0100\n      exp\n      swap1\n      div\n      0xffffffffffffffff\n      and\n        /* \"Tokenslab.sol\":1116:1165  slabValues[currentSlab] > slabLimits[currentSlab] */\n      0xffffffffffffffff\n      and\n      gt\n        /* \"Tokenslab.sol\":1113:1281  if(slabValues[currentSlab] > slabLimits[currentSlab])\r... */\n      iszero\n      tag_69\n      jumpi\n        /* \"Tokenslab.sol\":1199:1265  overflowHandler(slabValues[currentSlab] - slabLimits[currentSlab]) */\n      tag_70\n        /* \"Tokenslab.sol\":1241:1251  slabLimits */\n      0x01\n        /* \"Tokenslab.sol\":1252:1263  currentSlab */\n      0x00\n      dup1\n      sload\n      swap1\n      0x0100\n      exp\n      swap1\n      div\n      0xff\n      and\n        /* \"Tokenslab.sol\":1241:1264  slabLimits[currentSlab] */\n      0xff\n      and\n      0x05\n      dup2\n      lt\n      tag_71\n      jumpi\n      tag_72\n      tag_23\n      jump\t// in\n    tag_72:\n    tag_71:\n      0x08\n      swap2\n      dup3\n      dup3\n      div\n      add\n      swap2\n      swap1\n      mod\n      0x04\n      mul\n      swap1\n      sload\n      swap1\n      0x0100\n      exp\n      swap1\n      div\n      0xffffffff\n      and\n        /* \"Tokenslab.sol\":1215:1264  slabValues[currentSlab] - slabLimits[currentSlab] */\n      0xffffffff\n      and\n        /* \"Tokenslab.sol\":1215:1225  slabValues */\n      0x02\n        /* \"Tokenslab.sol\":1226:1237  currentSlab */\n      0x00\n      dup1\n      sload\n      swap1\n      0x0100\n      exp\n      swap1\n      div\n      0xff\n      and\n        /* \"Tokenslab.sol\":1215:1238  slabValues[currentSlab] */\n      0xff\n      and\n      0x05\n      dup2\n      lt\n      tag_74\n      jumpi\n      tag_75\n      tag_23\n      jump\t// in\n    tag_75:\n    tag_74:\n      0x04\n      swap2\n      dup3\n      dup3\n      div\n      add\n      swap2\n      swap1\n      mod\n      0x08\n      mul\n      swap1\n      sload\n      swap1\n      0x0100\n      exp\n      swap1\n      div\n      0xffffffffffffffff\n      and\n        /* \"Tokenslab.sol\":1215:1264  slabValues[currentSlab] - slabLimits[currentSlab] */\n      tag_77\n      swap2\n      swap1\n      tag_42\n      jump\t// in\n    tag_77:\n        /* \"Tokenslab.sol\":1199:1214  overflowHandler */\n      tag_43\n        /* \"Tokenslab.sol\":1199:1265  overflowHandler(slabValues[currentSlab] - slabLimits[currentSlab]) */\n      jump\t// in\n    tag_70:\n        /* \"Tokenslab.sol\":1113:1281  if(slabValues[currentSlab] > slabLimits[currentSlab])\r... */\n    tag_69:\n        /* \"Tokenslab.sol\":706:1306  function overflowHandler(uint64 overFlow) private \r... */\n      pop\n      jump\t// out\n        /* \"#utility.yul\":7:146   */\n    tag_79:\n        /* \"#utility.yul\":53:58   */\n      0x00\n        /* \"#utility.yul\":91:97   */\n      dup2\n        /* \"#utility.yul\":78:98   */\n      calldataload\n        /* \"#utility.yul\":69:98   */\n      swap1\n      pop\n        /* \"#utility.yul\":107:140   */\n      tag_81\n        /* \"#utility.yul\":134:139   */\n      dup2\n        /* \"#utility.yul\":107:140   */\n      tag_82\n      jump\t// in\n    tag_81:\n        /* \"#utility.yul\":7:146   */\n      swap3\n      swap2\n      pop\n      pop\n      jump\t// out\n        /* \"#utility.yul\":152:289   */\n    tag_83:\n        /* \"#utility.yul\":197:202   */\n      0x00\n        /* \"#utility.yul\":235:241   */\n      dup2\n        /* \"#utility.yul\":222:242   */\n      calldataload\n        /* \"#utility.yul\":213:242   */\n      swap1\n      pop\n        /* \"#utility.yul\":251:283   */\n      tag_85\n        /* \"#utility.yul\":277:282   */\n      dup2\n        /* \"#utility.yul\":251:283   */\n      tag_86\n      jump\t// in\n    tag_85:\n        /* \"#utility.yul\":152:289   */\n      swap3\n      swap2\n      pop\n      pop\n      jump\t// out\n        /* \"#utility.yul\":295:624   */\n    tag_12:\n        /* \"#utility.yul\":354:360   */\n      0x00\n        /* \"#utility.yul\":403:405   */\n      0x20\n        /* \"#utility.yul\":391:400   */\n      dup3\n        /* \"#utility.yul\":382:389   */\n      dup5\n        /* \"#utility.yul\":378:401   */\n      sub\n        /* \"#utility.yul\":374:406   */\n      slt\n        /* \"#utility.yul\":371:490   */\n      iszero\n      tag_88\n      jumpi\n        /* \"#utility.yul\":409:488   */\n      tag_89\n      tag_90\n      jump\t// in\n    tag_89:\n        /* \"#utility.yul\":371:490   */\n    tag_88:\n        /* \"#utility.yul\":529:530   */\n      0x00\n        /* \"#utility.yul\":554:607   */\n      tag_91\n        /* \"#utility.yul\":599:606   */\n      dup5\n        /* \"#utility.yul\":590:596   */\n      dup3\n        /* \"#utility.yul\":579:588   */\n      dup6\n        /* \"#utility.yul\":575:597   */\n      add\n        /* \"#utility.yul\":554:607   */\n      tag_79\n      jump\t// in\n    tag_91:\n        /* \"#utility.yul\":544:607   */\n      swap2\n      pop\n        /* \"#utility.yul\":500:617   */\n      pop\n        /* \"#utility.yul\":295:624   */\n      swap3\n      swap2\n      pop\n      pop\n      jump\t// out\n        /* \"#utility.yul\":630:957   */\n    tag_8:\n        /* \"#utility.yul\":688:694   */\n      0x00\n        /* \"#utility.yul\":737:739   */\n      0x20\n        /* \"#utility.yul\":725:734   */\n      dup3\n        /* \"#utility.yul\":716:723   */\n      dup5\n        /* \"#utility.yul\":712:735   */\n      sub\n        /* \"#utility.yul\":708:740   */\n      slt\n        /* \"#utility.yul\":705:824   */\n      iszero\n      tag_93\n      jumpi\n        /* \"#utility.yul\":743:822   */\n      tag_94\n      tag_90\n      jump\t// in\n    tag_94:\n        /* \"#utility.yul\":705:824   */\n    tag_93:\n        /* \"#utility.yul\":863:864   */\n      0x00\n        /* \"#utility.yul\":888:940   */\n      tag_95\n        /* \"#utility.yul\":932:939   */\n      dup5\n        /* \"#utility.yul\":923:929   */\n      dup3\n        /* \"#utility.yul\":912:921   */\n      dup6\n        /* \"#utility.yul\":908:930   */\n      add\n        /* \"#utility.yul\":888:940   */\n      tag_83\n      jump\t// in\n    tag_95:\n        /* \"#utility.yul\":878:940   */\n      swap2\n      pop\n        /* \"#utility.yul\":834:950   */\n      pop\n        /* \"#utility.yul\":630:957   */\n      swap3\n      swap2\n      pop\n      pop\n      jump\t// out\n        /* \"#utility.yul\":963:1329   */\n    tag_96:\n        /* \"#utility.yul\":1105:1108   */\n      0x00\n        /* \"#utility.yul\":1126:1193   */\n      tag_98\n        /* \"#utility.yul\":1190:1192   */\n      0x2f\n        /* \"#utility.yul\":1185:1188   */\n      dup4\n        /* \"#utility.yul\":1126:1193   */\n      tag_99\n      jump\t// in\n    tag_98:\n        /* \"#utility.yul\":1119:1193   */\n      swap2\n      pop\n        /* \"#utility.yul\":1202:1295   */\n      tag_100\n        /* \"#utility.yul\":1291:1294   */\n      dup3\n        /* \"#utility.yul\":1202:1295   */\n      tag_101\n      jump\t// in\n    tag_100:\n        /* \"#utility.yul\":1320:1322   */\n      0x40\n        /* \"#utility.yul\":1315:1318   */\n      dup3\n        /* \"#utility.yul\":1311:1323   */\n      add\n        /* \"#utility.yul\":1304:1323   */\n      swap1\n      pop\n        /* \"#utility.yul\":963:1329   */\n      swap2\n      swap1\n      pop\n      jump\t// out\n        /* \"#utility.yul\":1335:1450   */\n    tag_102:\n        /* \"#utility.yul\":1420:1443   */\n      tag_104\n        /* \"#utility.yul\":1437:1442   */\n      dup2\n        /* \"#utility.yul\":1420:1443   */\n      tag_105\n      jump\t// in\n    tag_104:\n        /* \"#utility.yul\":1415:1418   */\n      dup3\n        /* \"#utility.yul\":1408:1444   */\n      mstore\n        /* \"#utility.yul\":1335:1450   */\n      pop\n      pop\n      jump\t// out\n        /* \"#utility.yul\":1456:1568   */\n    tag_106:\n        /* \"#utility.yul\":1539:1561   */\n      tag_108\n        /* \"#utility.yul\":1555:1560   */\n      dup2\n        /* \"#utility.yul\":1539:1561   */\n      tag_109\n      jump\t// in\n    tag_108:\n        /* \"#utility.yul\":1534:1537   */\n      dup3\n        /* \"#utility.yul\":1527:1562   */\n      mstore\n        /* \"#utility.yul\":1456:1568   */\n      pop\n      pop\n      jump\t// out\n        /* \"#utility.yul\":1574:1993   */\n    tag_58:\n        /* \"#utility.yul\":1740:1744   */\n      0x00\n        /* \"#utility.yul\":1778:1780   */\n      0x20\n        /* \"#utility.yul\":1767:1776   */\n      dup3\n        /* \"#utility.yul\":1763:1781   */\n      add\n        /* \"#utility.yul\":1755:1781   */\n      swap1\n      pop\n        /* \"#utility.yul\":1827:1836   */\n      dup2\n        /* \"#utility.yul\":1821:1825   */\n      dup2\n        /* \"#utility.yul\":1817:1837   */\n      sub\n        /* \"#utility.yul\":1813:1814   */\n      0x00\n        /* \"#utility.yul\":1802:1811   */\n      dup4\n        /* \"#utility.yul\":1798:1815   */\n      add\n        /* \"#utility.yul\":1791:1838   */\n      mstore\n        /* \"#utility.yul\":1855:1986   */\n      tag_111\n        /* \"#utility.yul\":1981:1985   */\n      dup2\n        /* \"#utility.yul\":1855:1986   */\n      tag_96\n      jump\t// in\n    tag_111:\n        /* \"#utility.yul\":1847:1986   */\n      swap1\n      pop\n        /* \"#utility.yul\":1574:1993   */\n      swap2\n      swap1\n      pop\n      jump\t// out\n        /* \"#utility.yul\":1999:2217   */\n    tag_15:\n        /* \"#utility.yul\":2090:2094   */\n      0x00\n        /* \"#utility.yul\":2128:2130   */\n      0x20\n        /* \"#utility.yul\":2117:2126   */\n      dup3\n        /* \"#utility.yul\":2113:2131   */\n      add\n        /* \"#utility.yul\":2105:2131   */\n      swap1\n      pop\n        /* \"#utility.yul\":2141:2210   */\n      tag_113\n        /* \"#utility.yul\":2207:2208   */\n      0x00\n        /* \"#utility.yul\":2196:2205   */\n      dup4\n        /* \"#utility.yul\":2192:2209   */\n      add\n        /* \"#utility.yul\":2183:2189   */\n      dup5\n        /* \"#utility.yul\":2141:2210   */\n      tag_102\n      jump\t// in\n    tag_113:\n        /* \"#utility.yul\":1999:2217   */\n      swap3\n      swap2\n      pop\n      pop\n      jump\t// out\n        /* \"#utility.yul\":2223:2437   */\n    tag_19:\n        /* \"#utility.yul\":2312:2316   */\n      0x00\n        /* \"#utility.yul\":2350:2352   */\n      0x20\n        /* \"#utility.yul\":2339:2348   */\n      dup3\n        /* \"#utility.yul\":2335:2353   */\n      add\n        /* \"#utility.yul\":2327:2353   */\n      swap1\n      pop\n        /* \"#utility.yul\":2363:2430   */\n      tag_115\n        /* \"#utility.yul\":2427:2428   */\n      0x00\n        /* \"#utility.yul\":2416:2425   */\n      dup4\n        /* \"#utility.yul\":2412:2429   */\n      add\n        /* \"#utility.yul\":2403:2409   */\n      dup5\n        /* \"#utility.yul\":2363:2430   */\n      tag_106\n      jump\t// in\n    tag_115:\n        /* \"#utility.yul\":2223:2437   */\n      swap3\n      swap2\n      pop\n      pop\n      jump\t// out\n        /* \"#utility.yul\":2524:2693   */\n    tag_99:\n        /* \"#utility.yul\":2608:2619   */\n      0x00\n        /* \"#utility.yul\":2642:2648   */\n      dup3\n        /* \"#utility.yul\":2637:2640   */\n      dup3\n        /* \"#utility.yul\":2630:2649   */\n      mstore\n        /* \"#utility.yul\":2682:2686   */\n      0x20\n        /* \"#utility.yul\":2677:2680   */\n      dup3\n        /* \"#utility.yul\":2673:2687   */\n      add\n        /* \"#utility.yul\":2658:2687   */\n      swap1\n      pop\n        /* \"#utility.yul\":2524:2693   */\n      swap3\n      swap2\n      pop\n      pop\n      jump\t// out\n        /* \"#utility.yul\":2699:2953   */\n    tag_26:\n        /* \"#utility.yul\":2738:2741   */\n      0x00\n        /* \"#utility.yul\":2757:2776   */\n      tag_120\n        /* \"#utility.yul\":2774:2775   */\n      dup3\n        /* \"#utility.yul\":2757:2776   */\n      tag_105\n      jump\t// in\n    tag_120:\n        /* \"#utility.yul\":2752:2776   */\n      swap2\n      pop\n        /* \"#utility.yul\":2790:2809   */\n      tag_121\n        /* \"#utility.yul\":2807:2808   */\n      dup4\n        /* \"#utility.yul\":2790:2809   */\n      tag_105\n      jump\t// in\n    tag_121:\n        /* \"#utility.yul\":2785:2809   */\n      swap3\n      pop\n        /* \"#utility.yul\":2895:2896   */\n      dup3\n        /* \"#utility.yul\":2875:2893   */\n      0xffffffffffffffff\n        /* \"#utility.yul\":2871:2897   */\n      sub\n        /* \"#utility.yul\":2868:2869   */\n      dup3\n        /* \"#utility.yul\":2865:2898   */\n      gt\n        /* \"#utility.yul\":2862:2921   */\n      iszero\n      tag_122\n      jumpi\n        /* \"#utility.yul\":2901:2919   */\n      tag_123\n      tag_124\n      jump\t// in\n    tag_123:\n        /* \"#utility.yul\":2862:2921   */\n    tag_122:\n        /* \"#utility.yul\":2945:2946   */\n      dup3\n        /* \"#utility.yul\":2942:2943   */\n      dup3\n        /* \"#utility.yul\":2938:2947   */\n      add\n        /* \"#utility.yul\":2931:2947   */\n      swap1\n      pop\n        /* \"#utility.yul\":2699:2953   */\n      swap3\n      swap2\n      pop\n      pop\n      jump\t// out\n        /* \"#utility.yul\":2959:3147   */\n    tag_42:\n        /* \"#utility.yul\":2998:3002   */\n      0x00\n        /* \"#utility.yul\":3018:3037   */\n      tag_126\n        /* \"#utility.yul\":3035:3036   */\n      dup3\n        /* \"#utility.yul\":3018:3037   */\n      tag_105\n      jump\t// in\n    tag_126:\n        /* \"#utility.yul\":3013:3037   */\n      swap2\n      pop\n        /* \"#utility.yul\":3051:3070   */\n      tag_127\n        /* \"#utility.yul\":3068:3069   */\n      dup4\n        /* \"#utility.yul\":3051:3070   */\n      tag_105\n      jump\t// in\n    tag_127:\n        /* \"#utility.yul\":3046:3070   */\n      swap3\n      pop\n        /* \"#utility.yul\":3089:3090   */\n      dup3\n        /* \"#utility.yul\":3086:3087   */\n      dup3\n        /* \"#utility.yul\":3083:3091   */\n      lt\n        /* \"#utility.yul\":3080:3114   */\n      iszero\n      tag_128\n      jumpi\n        /* \"#utility.yul\":3094:3112   */\n      tag_129\n      tag_124\n      jump\t// in\n    tag_129:\n        /* \"#utility.yul\":3080:3114   */\n    tag_128:\n        /* \"#utility.yul\":3139:3140   */\n      dup3\n        /* \"#utility.yul\":3136:3137   */\n      dup3\n        /* \"#utility.yul\":3132:3141   */\n      sub\n        /* \"#utility.yul\":3124:3141   */\n      swap1\n      pop\n        /* \"#utility.yul\":2959:3147   */\n      swap3\n      swap2\n      pop\n      pop\n      jump\t// out\n        /* \"#utility.yul\":3153:3338   */\n    tag_55:\n        /* \"#utility.yul\":3191:3195   */\n      0x00\n        /* \"#utility.yul\":3211:3229   */\n      tag_131\n        /* \"#utility.yul\":3227:3228   */\n      dup3\n        /* \"#utility.yul\":3211:3229   */\n      tag_109\n      jump\t// in\n    tag_131:\n        /* \"#utility.yul\":3206:3229   */\n      swap2\n      pop\n        /* \"#utility.yul\":3243:3261   */\n      tag_132\n        /* \"#utility.yul\":3259:3260   */\n      dup4\n        /* \"#utility.yul\":3243:3261   */\n      tag_109\n      jump\t// in\n    tag_132:\n        /* \"#utility.yul\":3238:3261   */\n      swap3\n      pop\n        /* \"#utility.yul\":3280:3281   */\n      dup3\n        /* \"#utility.yul\":3277:3278   */\n      dup3\n        /* \"#utility.yul\":3274:3282   */\n      lt\n        /* \"#utility.yul\":3271:3305   */\n      iszero\n      tag_133\n      jumpi\n        /* \"#utility.yul\":3285:3303   */\n      tag_134\n      tag_124\n      jump\t// in\n    tag_134:\n        /* \"#utility.yul\":3271:3305   */\n    tag_133:\n        /* \"#utility.yul\":3330:3331   */\n      dup3\n        /* \"#utility.yul\":3327:3328   */\n      dup3\n        /* \"#utility.yul\":3323:3332   */\n      sub\n        /* \"#utility.yul\":3315:3332   */\n      swap1\n      pop\n        /* \"#utility.yul\":3153:3338   */\n      swap3\n      swap2\n      pop\n      pop\n      jump\t// out\n        /* \"#utility.yul\":3344:3421   */\n    tag_135:\n        /* \"#utility.yul\":3381:3388   */\n      0x00\n        /* \"#utility.yul\":3410:3415   */\n      dup2\n        /* \"#utility.yul\":3399:3415   */\n      swap1\n      pop\n        /* \"#utility.yul\":3344:3421   */\n      swap2\n      swap1\n      pop\n      jump\t// out\n        /* \"#utility.yul\":3427:3528   */\n    tag_105:\n        /* \"#utility.yul\":3463:3470   */\n      0x00\n        /* \"#utility.yul\":3503:3521   */\n      0xffffffffffffffff\n        /* \"#utility.yul\":3496:3501   */\n      dup3\n        /* \"#utility.yul\":3492:3522   */\n      and\n        /* \"#utility.yul\":3481:3522   */\n      swap1\n      pop\n        /* \"#utility.yul\":3427:3528   */\n      swap2\n      swap1\n      pop\n      jump\t// out\n        /* \"#utility.yul\":3534:3620   */\n    tag_109:\n        /* \"#utility.yul\":3569:3576   */\n      0x00\n        /* \"#utility.yul\":3609:3613   */\n      0xff\n        /* \"#utility.yul\":3602:3607   */\n      dup3\n        /* \"#utility.yul\":3598:3614   */\n      and\n        /* \"#utility.yul\":3587:3614   */\n      swap1\n      pop\n        /* \"#utility.yul\":3534:3620   */\n      swap2\n      swap1\n      pop\n      jump\t// out\n        /* \"#utility.yul\":3626:3806   */\n    tag_124:\n        /* \"#utility.yul\":3674:3751   */\n      0x4e487b7100000000000000000000000000000000000000000000000000000000\n        /* \"#utility.yul\":3671:3672   */\n      0x00\n        /* \"#utility.yul\":3664:3752   */\n      mstore\n        /* \"#utility.yul\":3771:3775   */\n      0x11\n        /* \"#utility.yul\":3768:3769   */\n      0x04\n        /* \"#utility.yul\":3761:3776   */\n      mstore\n        /* \"#utility.yul\":3795:3799   */\n      0x24\n        /* \"#utility.yul\":3792:3793   */\n      0x00\n        /* \"#utility.yul\":3785:3800   */\n      revert\n        /* \"#utility.yul\":3812:3992   */\n    tag_23:\n        /* \"#utility.yul\":3860:3937   */\n      0x4e487b7100000000000000000000000000000000000000000000000000000000\n        /* \"#utility.yul\":3857:3858   */\n      0x00\n        /* \"#utility.yul\":3850:3938   */\n      mstore\n        /* \"#utility.yul\":3957:3961   */\n      0x32\n        /* \"#utility.yul\":3954:3955   */\n      0x04\n        /* \"#utility.yul\":3947:3962   */\n      mstore\n        /* \"#utility.yul\":3981:3985   */\n      0x24\n        /* \"#utility.yul\":3978:3979   */\n      0x00\n        /* \"#utility.yul\":3971:3986   */\n      revert\n        /* \"#utility.yul\":4121:4238   */\n    tag_90:\n        /* \"#utility.yul\":4230:4231   */\n      0x00\n        /* \"#utility.yul\":4227:4228   */\n      dup1\n        /* \"#utility.yul\":4220:4232   */\n      revert\n        /* \"#utility.yul\":4244:4478   */\n    tag_101:\n        /* \"#utility.yul\":4384:4418   */\n      0x416c6c20736c616273206172652066756c6c2c206d6f726520746f6b656e7320\n        /* \"#utility.yul\":4380:4381   */\n      0x00\n        /* \"#utility.yul\":4372:4378   */\n      dup3\n        /* \"#utility.yul\":4368:4382   */\n      add\n        /* \"#utility.yul\":4361:4419   */\n      mstore\n        /* \"#utility.yul\":4453:4470   */\n      0x63616e6e6f742062652061646465640000000000000000000000000000000000\n        /* \"#utility.yul\":4448:4450   */\n      0x20\n        /* \"#utility.yul\":4440:4446   */\n      dup3\n        /* \"#utility.yul\":4436:4451   */\n      add\n        /* \"#utility.yul\":4429:4471   */\n      mstore\n        /* \"#utility.yul\":4244:4478   */\n      pop\n      jump\t// out\n        /* \"#utility.yul\":4484:4606   */\n    tag_82:\n        /* \"#utility.yul\":4557:4581   */\n      tag_146\n        /* \"#utility.yul\":4575:4580   */\n      dup2\n        /* \"#utility.yul\":4557:4581   */\n      tag_135\n      jump\t// in\n    tag_146:\n        /* \"#utility.yul\":4550:4555   */\n      dup2\n        /* \"#utility.yul\":4547:4582   */\n      eq\n        /* \"#utility.yul\":4537:4600   */\n      tag_147\n      jumpi\n        /* \"#utility.yul\":4596:4597   */\n      0x00\n        /* \"#utility.yul\":4593:4594   */\n      dup1\n        /* \"#utility.yul\":4586:4598   */\n      revert\n        /* \"#utility.yul\":4537:4600   */\n    tag_147:\n        /* \"#utility.yul\":4484:4606   */\n      pop\n      jump\t// out\n        /* \"#utility.yul\":4612:4732   */\n    tag_86:\n        /* \"#utility.yul\":4684:4707   */\n      tag_149\n        /* \"#utility.yul\":4701:4706   */\n      dup2\n        /* \"#utility.yul\":4684:4707   */\n      tag_105\n      jump\t// in\n    tag_149:\n        /* \"#utility.yul\":4677:4682   */\n      dup2\n        /* \"#utility.yul\":4674:4708   */\n      eq\n        /* \"#utility.yul\":4664:4726   */\n      tag_150\n      jumpi\n        /* \"#utility.yul\":4722:4723   */\n      0x00\n        /* \"#utility.yul\":4719:4720   */\n      dup1\n        /* \"#utility.yul\":4712:4724   */\n      revert\n        /* \"#utility.yul\":4664:4726   */\n    tag_150:\n        /* \"#utility.yul\":4612:4732   */\n      pop\n      jump\t// out\n\n    auxdata: 0xa2646970667358221220f613897f62467b8b46cf5faafbea6cf7d91af6f50e4a8c61b5c563c702e954bf64736f6c63430008070033\n}\n",
				"bytecode": {
					"linkReferences": {},
					"object": "608060405234801561001057600080fd5b506040518060a00160405280606461ffff16815260200160c861ffff16815260200161012c61ffff16815260200161019061ffff1681526020016101f461ffff1681525060019060056100649291906100d1565b5060046000806101000a81548160ff021916908360ff1602179055506040518060a00160405280600060ff168152602001600060ff168152602001600060ff168152602001600060ff168152602001600060ff1681525060029060056100cb929190610172565b50610237565b8260056007016008900481019282156101615791602002820160005b8382111561012f57835183826101000a81548163ffffffff021916908361ffff16021790555092602001926004016020816003010492830192600103026100ed565b801561015f5782816101000a81549063ffffffff021916905560040160208160030104928301926001030261012f565b505b50905061016e919061021a565b5090565b8260056003016004900481019282156102095791602002820160005b838211156101d357835183826101000a81548167ffffffffffffffff021916908360ff160217905550926020019260080160208160070104928301926001030261018e565b80156102075782816101000a81549067ffffffffffffffff02191690556008016020816007010492830192600103026101d3565b505b509050610216919061021a565b5090565b5b8082111561023357600081600090555060010161021b565b5090565b610894806102466000396000f3fe608060405234801561001057600080fd5b50600436106100415760003560e01c806310af504a14610046578063a72ae7a614610062578063eda2ab6814610092575b600080fd5b610060600480360381019061005b91906105d8565b6100b0565b005b61007c600480360381019061007791906105ab565b610262565b6040516100899190610666565b60405180910390f35b61009a610296565b6040516100a79190610681565b60405180910390f35b80600260008054906101000a900460ff1660ff16600581106100d5576100d46107ad565b5b600491828204019190066008028282829054906101000a900467ffffffffffffffff1661010291906106ad565b92506101000a81548167ffffffffffffffff021916908367ffffffffffffffff160217905550600160008054906101000a900460ff1660ff166005811061014c5761014b6107ad565b5b600891828204019190066004029054906101000a900463ffffffff1663ffffffff16600260008054906101000a900460ff1660ff1660058110610192576101916107ad565b5b600491828204019190066008029054906101000a900467ffffffffffffffff1667ffffffffffffffff16111561025f5761025e600160008054906101000a900460ff1660ff16600581106101e9576101e86107ad565b5b600891828204019190066004029054906101000a900463ffffffff1663ffffffff16600260008054906101000a900460ff1660ff166005811061022f5761022e6107ad565b5b600491828204019190066008029054906101000a900467ffffffffffffffff1661025991906106eb565b6102ac565b5b50565b6002816005811061027257600080fd5b60049182820401919006600802915054906101000a900467ffffffffffffffff1681565b60008060009054906101000a900460ff16905090565b600160008054906101000a900460ff1660ff16600581106102d0576102cf6107ad565b5b600891828204019190066004029054906101000a900463ffffffff1663ffffffff16600260008054906101000a900460ff1660ff1660058110610316576103156107ad565b5b600491828204019190066008026101000a81548167ffffffffffffffff021916908367ffffffffffffffff160217905550600160008054906101000a900460ff16610361919061071f565b6000806101000a81548160ff021916908360ff16021790555060008060009054906101000a900460ff1660ff1610156103cf576040517f08c379a00000000000000000000000000000000000000000000000000000000081526004016103c690610646565b60405180910390fd5b80600260008054906101000a900460ff1660ff16600581106103f4576103f36107ad565b5b600491828204019190066008028282829054906101000a900467ffffffffffffffff1661042191906106ad565b92506101000a81548167ffffffffffffffff021916908367ffffffffffffffff160217905550600160008054906101000a900460ff1660ff166005811061046b5761046a6107ad565b5b600891828204019190066004029054906101000a900463ffffffff1663ffffffff16600260008054906101000a900460ff1660ff16600581106104b1576104b06107ad565b5b600491828204019190066008029054906101000a900467ffffffffffffffff1667ffffffffffffffff16111561057e5761057d600160008054906101000a900460ff1660ff1660058110610508576105076107ad565b5b600891828204019190066004029054906101000a900463ffffffff1663ffffffff16600260008054906101000a900460ff1660ff166005811061054e5761054d6107ad565b5b600491828204019190066008029054906101000a900467ffffffffffffffff1661057891906106eb565b6102ac565b5b50565b60008135905061059081610830565b92915050565b6000813590506105a581610847565b92915050565b6000602082840312156105c1576105c06107dc565b5b60006105cf84828501610581565b91505092915050565b6000602082840312156105ee576105ed6107dc565b5b60006105fc84828501610596565b91505092915050565b6000610612602f8361069c565b915061061d826107e1565b604082019050919050565b6106318161075d565b82525050565b61064081610771565b82525050565b6000602082019050818103600083015261065f81610605565b9050919050565b600060208201905061067b6000830184610628565b92915050565b60006020820190506106966000830184610637565b92915050565b600082825260208201905092915050565b60006106b88261075d565b91506106c38361075d565b92508267ffffffffffffffff038211156106e0576106df61077e565b5b828201905092915050565b60006106f68261075d565b91506107018361075d565b9250828210156107145761071361077e565b5b828203905092915050565b600061072a82610771565b915061073583610771565b9250828210156107485761074761077e565b5b828203905092915050565b6000819050919050565b600067ffffffffffffffff82169050919050565b600060ff82169050919050565b7f4e487b7100000000000000000000000000000000000000000000000000000000600052601160045260246000fd5b7f4e487b7100000000000000000000000000000000000000000000000000000000600052603260045260246000fd5b600080fd5b7f416c6c20736c616273206172652066756c6c2c206d6f726520746f6b656e732060008201527f63616e6e6f742062652061646465640000000000000000000000000000000000602082015250565b61083981610753565b811461084457600080fd5b50565b6108508161075d565b811461085b57600080fd5b5056fea2646970667358221220f613897f62467b8b46cf5faafbea6cf7d91af6f50e4a8c61b5c563c702e954bf64736f6c63430008070033",
					"opcodes": "PUSH1 0x80 PUSH1 0x40 MSTORE CALLVALUE DUP1 ISZERO PUSH2 0x10 JUMPI PUSH1 0x0 DUP1 REVERT JUMPDEST POP PUSH1 0x40 MLOAD DUP1 PUSH1 0xA0 ADD PUSH1 0x40 MSTORE DUP1 PUSH1 0x64 PUSH2 0xFFFF AND DUP2 MSTORE PUSH1 0x20 ADD PUSH1 0xC8 PUSH2 0xFFFF AND DUP2 MSTORE PUSH1 0x20 ADD PUSH2 0x12C PUSH2 0xFFFF AND DUP2 MSTORE PUSH1 0x20 ADD PUSH2 0x190 PUSH2 0xFFFF AND DUP2 MSTORE PUSH1 0x20 ADD PUSH2 0x1F4 PUSH2 0xFFFF AND DUP2 MSTORE POP PUSH1 0x1 SWAP1 PUSH1 0x5 PUSH2 0x64 SWAP3 SWAP2 SWAP1 PUSH2 0xD1 JUMP JUMPDEST POP PUSH1 0x4 PUSH1 0x0 DUP1 PUSH2 0x100 EXP DUP2 SLOAD DUP2 PUSH1 0xFF MUL NOT AND SWAP1 DUP4 PUSH1 0xFF AND MUL OR SWAP1 SSTORE POP PUSH1 0x40 MLOAD DUP1 PUSH1 0xA0 ADD PUSH1 0x40 MSTORE DUP1 PUSH1 0x0 PUSH1 0xFF AND DUP2 MSTORE PUSH1 0x20 ADD PUSH1 0x0 PUSH1 0xFF AND DUP2 MSTORE PUSH1 0x20 ADD PUSH1 0x0 PUSH1 0xFF AND DUP2 MSTORE PUSH1 0x20 ADD PUSH1 0x0 PUSH1 0xFF AND DUP2 MSTORE PUSH1 0x20 ADD PUSH1 0x0 PUSH1 0xFF AND DUP2 MSTORE POP PUSH1 0x2 SWAP1 PUSH1 0x5 PUSH2 0xCB SWAP3 SWAP2 SWAP1 PUSH2 0x172 JUMP JUMPDEST POP PUSH2 0x237 JUMP JUMPDEST DUP3 PUSH1 0x5 PUSH1 0x7 ADD PUSH1 0x8 SWAP1 DIV DUP2 ADD SWAP3 DUP3 ISZERO PUSH2 0x161 JUMPI SWAP2 PUSH1 0x20 MUL DUP3 ADD PUSH1 0x0 JUMPDEST DUP4 DUP3 GT ISZERO PUSH2 0x12F JUMPI DUP4 MLOAD DUP4 DUP3 PUSH2 0x100 EXP DUP2 SLOAD DUP2 PUSH4 0xFFFFFFFF MUL NOT AND SWAP1 DUP4 PUSH2 0xFFFF AND MUL OR SWAP1 SSTORE POP SWAP3 PUSH1 0x20 ADD SWAP3 PUSH1 0x4 ADD PUSH1 0x20 DUP2 PUSH1 0x3 ADD DIV SWAP3 DUP4 ADD SWAP3 PUSH1 0x1 SUB MUL PUSH2 0xED JUMP JUMPDEST DUP1 ISZERO PUSH2 0x15F JUMPI DUP3 DUP2 PUSH2 0x100 EXP DUP2 SLOAD SWAP1 PUSH4 0xFFFFFFFF MUL NOT AND SWAP1 SSTORE PUSH1 0x4 ADD PUSH1 0x20 DUP2 PUSH1 0x3 ADD DIV SWAP3 DUP4 ADD SWAP3 PUSH1 0x1 SUB MUL PUSH2 0x12F JUMP JUMPDEST POP JUMPDEST POP SWAP1 POP PUSH2 0x16E SWAP2 SWAP1 PUSH2 0x21A JUMP JUMPDEST POP SWAP1 JUMP JUMPDEST DUP3 PUSH1 0x5 PUSH1 0x3 ADD PUSH1 0x4 SWAP1 DIV DUP2 ADD SWAP3 DUP3 ISZERO PUSH2 0x209 JUMPI SWAP2 PUSH1 0x20 MUL DUP3 ADD PUSH1 0x0 JUMPDEST DUP4 DUP3 GT ISZERO PUSH2 0x1D3 JUMPI DUP4 MLOAD DUP4 DUP3 PUSH2 0x100 EXP DUP2 SLOAD DUP2 PUSH8 0xFFFFFFFFFFFFFFFF MUL NOT AND SWAP1 DUP4 PUSH1 0xFF AND MUL OR SWAP1 SSTORE POP SWAP3 PUSH1 0x20 ADD SWAP3 PUSH1 0x8 ADD PUSH1 0x20 DUP2 PUSH1 0x7 ADD DIV SWAP3 DUP4 ADD SWAP3 PUSH1 0x1 SUB MUL PUSH2 0x18E JUMP JUMPDEST DUP1 ISZERO PUSH2 0x207 JUMPI DUP3 DUP2 PUSH2 0x100 EXP DUP2 SLOAD SWAP1 PUSH8 0xFFFFFFFFFFFFFFFF MUL NOT AND SWAP1 SSTORE PUSH1 0x8 ADD PUSH1 0x20 DUP2 PUSH1 0x7 ADD DIV SWAP3 DUP4 ADD SWAP3 PUSH1 0x1 SUB MUL PUSH2 0x1D3 JUMP JUMPDEST POP JUMPDEST POP SWAP1 POP PUSH2 0x216 SWAP2 SWAP1 PUSH2 0x21A JUMP JUMPDEST POP SWAP1 JUMP JUMPDEST JUMPDEST DUP1 DUP3 GT ISZERO PUSH2 0x233 JUMPI PUSH1 0x0 DUP2 PUSH1 0x0 SWAP1 SSTORE POP PUSH1 0x1 ADD PUSH2 0x21B JUMP JUMPDEST POP SWAP1 JUMP JUMPDEST PUSH2 0x894 DUP1 PUSH2 0x246 PUSH1 0x0 CODECOPY PUSH1 0x0 RETURN INVALID PUSH1 0x80 PUSH1 0x40 MSTORE CALLVALUE DUP1 ISZERO PUSH2 0x10 JUMPI PUSH1 0x0 DUP1 REVERT JUMPDEST POP PUSH1 0x4 CALLDATASIZE LT PUSH2 0x41 JUMPI PUSH1 0x0 CALLDATALOAD PUSH1 0xE0 SHR DUP1 PUSH4 0x10AF504A EQ PUSH2 0x46 JUMPI DUP1 PUSH4 0xA72AE7A6 EQ PUSH2 0x62 JUMPI DUP1 PUSH4 0xEDA2AB68 EQ PUSH2 0x92 JUMPI JUMPDEST PUSH1 0x0 DUP1 REVERT JUMPDEST PUSH2 0x60 PUSH1 0x4 DUP1 CALLDATASIZE SUB DUP2 ADD SWAP1 PUSH2 0x5B SWAP2 SWAP1 PUSH2 0x5D8 JUMP JUMPDEST PUSH2 0xB0 JUMP JUMPDEST STOP JUMPDEST PUSH2 0x7C PUSH1 0x4 DUP1 CALLDATASIZE SUB DUP2 ADD SWAP1 PUSH2 0x77 SWAP2 SWAP1 PUSH2 0x5AB JUMP JUMPDEST PUSH2 0x262 JUMP JUMPDEST PUSH1 0x40 MLOAD PUSH2 0x89 SWAP2 SWAP1 PUSH2 0x666 JUMP JUMPDEST PUSH1 0x40 MLOAD DUP1 SWAP2 SUB SWAP1 RETURN JUMPDEST PUSH2 0x9A PUSH2 0x296 JUMP JUMPDEST PUSH1 0x40 MLOAD PUSH2 0xA7 SWAP2 SWAP1 PUSH2 0x681 JUMP JUMPDEST PUSH1 0x40 MLOAD DUP1 SWAP2 SUB SWAP1 RETURN JUMPDEST DUP1 PUSH1 0x2 PUSH1 0x0 DUP1 SLOAD SWAP1 PUSH2 0x100 EXP SWAP1 DIV PUSH1 0xFF AND PUSH1 0xFF AND PUSH1 0x5 DUP2 LT PUSH2 0xD5 JUMPI PUSH2 0xD4 PUSH2 0x7AD JUMP JUMPDEST JUMPDEST PUSH1 0x4 SWAP2 DUP3 DUP3 DIV ADD SWAP2 SWAP1 MOD PUSH1 0x8 MUL DUP3 DUP3 DUP3 SWAP1 SLOAD SWAP1 PUSH2 0x100 EXP SWAP1 DIV PUSH8 0xFFFFFFFFFFFFFFFF AND PUSH2 0x102 SWAP2 SWAP1 PUSH2 0x6AD JUMP JUMPDEST SWAP3 POP PUSH2 0x100 EXP DUP2 SLOAD DUP2 PUSH8 0xFFFFFFFFFFFFFFFF MUL NOT AND SWAP1 DUP4 PUSH8 0xFFFFFFFFFFFFFFFF AND MUL OR SWAP1 SSTORE POP PUSH1 0x1 PUSH1 0x0 DUP1 SLOAD SWAP1 PUSH2 0x100 EXP SWAP1 DIV PUSH1 0xFF AND PUSH1 0xFF AND PUSH1 0x5 DUP2 LT PUSH2 0x14C JUMPI PUSH2 0x14B PUSH2 0x7AD JUMP JUMPDEST JUMPDEST PUSH1 0x8 SWAP2 DUP3 DUP3 DIV ADD SWAP2 SWAP1 MOD PUSH1 0x4 MUL SWAP1 SLOAD SWAP1 PUSH2 0x100 EXP SWAP1 DIV PUSH4 0xFFFFFFFF AND PUSH4 0xFFFFFFFF AND PUSH1 0x2 PUSH1 0x0 DUP1 SLOAD SWAP1 PUSH2 0x100 EXP SWAP1 DIV PUSH1 0xFF AND PUSH1 0xFF AND PUSH1 0x5 DUP2 LT PUSH2 0x192 JUMPI PUSH2 0x191 PUSH2 0x7AD JUMP JUMPDEST JUMPDEST PUSH1 0x4 SWAP2 DUP3 DUP3 DIV ADD SWAP2 SWAP1 MOD PUSH1 0x8 MUL SWAP1 SLOAD SWAP1 PUSH2 0x100 EXP SWAP1 DIV PUSH8 0xFFFFFFFFFFFFFFFF AND PUSH8 0xFFFFFFFFFFFFFFFF AND GT ISZERO PUSH2 0x25F JUMPI PUSH2 0x25E PUSH1 0x1 PUSH1 0x0 DUP1 SLOAD SWAP1 PUSH2 0x100 EXP SWAP1 DIV PUSH1 0xFF AND PUSH1 0xFF AND PUSH1 0x5 DUP2 LT PUSH2 0x1E9 JUMPI PUSH2 0x1E8 PUSH2 0x7AD JUMP JUMPDEST JUMPDEST PUSH1 0x8 SWAP2 DUP3 DUP3 DIV ADD SWAP2 SWAP1 MOD PUSH1 0x4 MUL SWAP1 SLOAD SWAP1 PUSH2 0x100 EXP SWAP1 DIV PUSH4 0xFFFFFFFF AND PUSH4 0xFFFFFFFF AND PUSH1 0x2 PUSH1 0x0 DUP1 SLOAD SWAP1 PUSH2 0x100 EXP SWAP1 DIV PUSH1 0xFF AND PUSH1 0xFF AND PUSH1 0x5 DUP2 LT PUSH2 0x22F JUMPI PUSH2 0x22E PUSH2 0x7AD JUMP JUMPDEST JUMPDEST PUSH1 0x4 SWAP2 DUP3 DUP3 DIV ADD SWAP2 SWAP1 MOD PUSH1 0x8 MUL SWAP1 SLOAD SWAP1 PUSH2 0x100 EXP SWAP1 DIV PUSH8 0xFFFFFFFFFFFFFFFF AND PUSH2 0x259 SWAP2 SWAP1 PUSH2 0x6EB JUMP JUMPDEST PUSH2 0x2AC JUMP JUMPDEST JUMPDEST POP JUMP JUMPDEST PUSH1 0x2 DUP2 PUSH1 0x5 DUP2 LT PUSH2 0x272 JUMPI PUSH1 0x0 DUP1 REVERT JUMPDEST PUSH1 0x4 SWAP2 DUP3 DUP3 DIV ADD SWAP2 SWAP1 MOD PUSH1 0x8 MUL SWAP2 POP SLOAD SWAP1 PUSH2 0x100 EXP SWAP1 DIV PUSH8 0xFFFFFFFFFFFFFFFF AND DUP2 JUMP JUMPDEST PUSH1 0x0 DUP1 PUSH1 0x0 SWAP1 SLOAD SWAP1 PUSH2 0x100 EXP SWAP1 DIV PUSH1 0xFF AND SWAP1 POP SWAP1 JUMP JUMPDEST PUSH1 0x1 PUSH1 0x0 DUP1 SLOAD SWAP1 PUSH2 0x100 EXP SWAP1 DIV PUSH1 0xFF AND PUSH1 0xFF AND PUSH1 0x5 DUP2 LT PUSH2 0x2D0 JUMPI PUSH2 0x2CF PUSH2 0x7AD JUMP JUMPDEST JUMPDEST PUSH1 0x8 SWAP2 DUP3 DUP3 DIV ADD SWAP2 SWAP1 MOD PUSH1 0x4 MUL SWAP1 SLOAD SWAP1 PUSH2 0x100 EXP SWAP1 DIV PUSH4 0xFFFFFFFF AND PUSH4 0xFFFFFFFF AND PUSH1 0x2 PUSH1 0x0 DUP1 SLOAD SWAP1 PUSH2 0x100 EXP SWAP1 DIV PUSH1 0xFF AND PUSH1 0xFF AND PUSH1 0x5 DUP2 LT PUSH2 0x316 JUMPI PUSH2 0x315 PUSH2 0x7AD JUMP JUMPDEST JUMPDEST PUSH1 0x4 SWAP2 DUP3 DUP3 DIV ADD SWAP2 SWAP1 MOD PUSH1 0x8 MUL PUSH2 0x100 EXP DUP2 SLOAD DUP2 PUSH8 0xFFFFFFFFFFFFFFFF MUL NOT AND SWAP1 DUP4 PUSH8 0xFFFFFFFFFFFFFFFF AND MUL OR SWAP1 SSTORE POP PUSH1 0x1 PUSH1 0x0 DUP1 SLOAD SWAP1 PUSH2 0x100 EXP SWAP1 DIV PUSH1 0xFF AND PUSH2 0x361 SWAP2 SWAP1 PUSH2 0x71F JUMP JUMPDEST PUSH1 0x0 DUP1 PUSH2 0x100 EXP DUP2 SLOAD DUP2 PUSH1 0xFF MUL NOT AND SWAP1 DUP4 PUSH1 0xFF AND MUL OR SWAP1 SSTORE POP PUSH1 0x0 DUP1 PUSH1 0x0 SWAP1 SLOAD SWAP1 PUSH2 0x100 EXP SWAP1 DIV PUSH1 0xFF AND PUSH1 0xFF AND LT ISZERO PUSH2 0x3CF JUMPI PUSH1 0x40 MLOAD PUSH32 0x8C379A000000000000000000000000000000000000000000000000000000000 DUP2 MSTORE PUSH1 0x4 ADD PUSH2 0x3C6 SWAP1 PUSH2 0x646 JUMP JUMPDEST PUSH1 0x40 MLOAD DUP1 SWAP2 SUB SWAP1 REVERT JUMPDEST DUP1 PUSH1 0x2 PUSH1 0x0 DUP1 SLOAD SWAP1 PUSH2 0x100 EXP SWAP1 DIV PUSH1 0xFF AND PUSH1 0xFF AND PUSH1 0x5 DUP2 LT PUSH2 0x3F4 JUMPI PUSH2 0x3F3 PUSH2 0x7AD JUMP JUMPDEST JUMPDEST PUSH1 0x4 SWAP2 DUP3 DUP3 DIV ADD SWAP2 SWAP1 MOD PUSH1 0x8 MUL DUP3 DUP3 DUP3 SWAP1 SLOAD SWAP1 PUSH2 0x100 EXP SWAP1 DIV PUSH8 0xFFFFFFFFFFFFFFFF AND PUSH2 0x421 SWAP2 SWAP1 PUSH2 0x6AD JUMP JUMPDEST SWAP3 POP PUSH2 0x100 EXP DUP2 SLOAD DUP2 PUSH8 0xFFFFFFFFFFFFFFFF MUL NOT AND SWAP1 DUP4 PUSH8 0xFFFFFFFFFFFFFFFF AND MUL OR SWAP1 SSTORE POP PUSH1 0x1 PUSH1 0x0 DUP1 SLOAD SWAP1 PUSH2 0x100 EXP SWAP1 DIV PUSH1 0xFF AND PUSH1 0xFF AND PUSH1 0x5 DUP2 LT PUSH2 0x46B JUMPI PUSH2 0x46A PUSH2 0x7AD JUMP JUMPDEST JUMPDEST PUSH1 0x8 SWAP2 DUP3 DUP3 DIV ADD SWAP2 SWAP1 MOD PUSH1 0x4 MUL SWAP1 SLOAD SWAP1 PUSH2 0x100 EXP SWAP1 DIV PUSH4 0xFFFFFFFF AND PUSH4 0xFFFFFFFF AND PUSH1 0x2 PUSH1 0x0 DUP1 SLOAD SWAP1 PUSH2 0x100 EXP SWAP1 DIV PUSH1 0xFF AND PUSH1 0xFF AND PUSH1 0x5 DUP2 LT PUSH2 0x4B1 JUMPI PUSH2 0x4B0 PUSH2 0x7AD JUMP JUMPDEST JUMPDEST PUSH1 0x4 SWAP2 DUP3 DUP3 DIV ADD SWAP2 SWAP1 MOD PUSH1 0x8 MUL SWAP1 SLOAD SWAP1 PUSH2 0x100 EXP SWAP1 DIV PUSH8 0xFFFFFFFFFFFFFFFF AND PUSH8 0xFFFFFFFFFFFFFFFF AND GT ISZERO PUSH2 0x57E JUMPI PUSH2 0x57D PUSH1 0x1 PUSH1 0x0 DUP1 SLOAD SWAP1 PUSH2 0x100 EXP SWAP1 DIV PUSH1 0xFF AND PUSH1 0xFF AND PUSH1 0x5 DUP2 LT PUSH2 0x508 JUMPI PUSH2 0x507 PUSH2 0x7AD JUMP JUMPDEST JUMPDEST PUSH1 0x8 SWAP2 DUP3 DUP3 DIV ADD SWAP2 SWAP1 MOD PUSH1 0x4 MUL SWAP1 SLOAD SWAP1 PUSH2 0x100 EXP SWAP1 DIV PUSH4 0xFFFFFFFF AND PUSH4 0xFFFFFFFF AND PUSH1 0x2 PUSH1 0x0 DUP1 SLOAD SWAP1 PUSH2 0x100 EXP SWAP1 DIV PUSH1 0xFF AND PUSH1 0xFF AND PUSH1 0x5 DUP2 LT PUSH2 0x54E JUMPI PUSH2 0x54D PUSH2 0x7AD JUMP JUMPDEST JUMPDEST PUSH1 0x4 SWAP2 DUP3 DUP3 DIV ADD SWAP2 SWAP1 MOD PUSH1 0x8 MUL SWAP1 SLOAD SWAP1 PUSH2 0x100 EXP SWAP1 DIV PUSH8 0xFFFFFFFFFFFFFFFF AND PUSH2 0x578 SWAP2 SWAP1 PUSH2 0x6EB JUMP JUMPDEST PUSH2 0x2AC JUMP JUMPDEST JUMPDEST POP JUMP JUMPDEST PUSH1 0x0 DUP2 CALLDATALOAD SWAP1 POP PUSH2 0x590 DUP2 PUSH2 0x830 JUMP JUMPDEST SWAP3 SWAP2 POP POP JUMP JUMPDEST PUSH1 0x0 DUP2 CALLDATALOAD SWAP1 POP PUSH2 0x5A5 DUP2 PUSH2 0x847 JUMP JUMPDEST SWAP3 SWAP2 POP POP JUMP JUMPDEST PUSH1 0x0 PUSH1 0x20 DUP3 DUP5 SUB SLT ISZERO PUSH2 0x5C1 JUMPI PUSH2 0x5C0 PUSH2 0x7DC JUMP JUMPDEST JUMPDEST PUSH1 0x0 PUSH2 0x5CF DUP5 DUP3 DUP6 ADD PUSH2 0x581 JUMP JUMPDEST SWAP2 POP POP SWAP3 SWAP2 POP POP JUMP JUMPDEST PUSH1 0x0 PUSH1 0x20 DUP3 DUP5 SUB SLT ISZERO PUSH2 0x5EE JUMPI PUSH2 0x5ED PUSH2 0x7DC JUMP JUMPDEST JUMPDEST PUSH1 0x0 PUSH2 0x5FC DUP5 DUP3 DUP6 ADD PUSH2 0x596 JUMP JUMPDEST SWAP2 POP POP SWAP3 SWAP2 POP POP JUMP JUMPDEST PUSH1 0x0 PUSH2 0x612 PUSH1 0x2F DUP4 PUSH2 0x69C JUMP JUMPDEST SWAP2 POP PUSH2 0x61D DUP3 PUSH2 0x7E1 JUMP JUMPDEST PUSH1 0x40 DUP3 ADD SWAP1 POP SWAP2 SWAP1 POP JUMP JUMPDEST PUSH2 0x631 DUP2 PUSH2 0x75D JUMP JUMPDEST DUP3 MSTORE POP POP JUMP JUMPDEST PUSH2 0x640 DUP2 PUSH2 0x771 JUMP JUMPDEST DUP3 MSTORE POP POP JUMP JUMPDEST PUSH1 0x0 PUSH1 0x20 DUP3 ADD SWAP1 POP DUP2 DUP2 SUB PUSH1 0x0 DUP4 ADD MSTORE PUSH2 0x65F DUP2 PUSH2 0x605 JUMP JUMPDEST SWAP1 POP SWAP2 SWAP1 POP JUMP JUMPDEST PUSH1 0x0 PUSH1 0x20 DUP3 ADD SWAP1 POP PUSH2 0x67B PUSH1 0x0 DUP4 ADD DUP5 PUSH2 0x628 JUMP JUMPDEST SWAP3 SWAP2 POP POP JUMP JUMPDEST PUSH1 0x0 PUSH1 0x20 DUP3 ADD SWAP1 POP PUSH2 0x696 PUSH1 0x0 DUP4 ADD DUP5 PUSH2 0x637 JUMP JUMPDEST SWAP3 SWAP2 POP POP JUMP JUMPDEST PUSH1 0x0 DUP3 DUP3 MSTORE PUSH1 0x20 DUP3 ADD SWAP1 POP SWAP3 SWAP2 POP POP JUMP JUMPDEST PUSH1 0x0 PUSH2 0x6B8 DUP3 PUSH2 0x75D JUMP JUMPDEST SWAP2 POP PUSH2 0x6C3 DUP4 PUSH2 0x75D JUMP JUMPDEST SWAP3 POP DUP3 PUSH8 0xFFFFFFFFFFFFFFFF SUB DUP3 GT ISZERO PUSH2 0x6E0 JUMPI PUSH2 0x6DF PUSH2 0x77E JUMP JUMPDEST JUMPDEST DUP3 DUP3 ADD SWAP1 POP SWAP3 SWAP2 POP POP JUMP JUMPDEST PUSH1 0x0 PUSH2 0x6F6 DUP3 PUSH2 0x75D JUMP JUMPDEST SWAP2 POP PUSH2 0x701 DUP4 PUSH2 0x75D JUMP JUMPDEST SWAP3 POP DUP3 DUP3 LT ISZERO PUSH2 0x714 JUMPI PUSH2 0x713 PUSH2 0x77E JUMP JUMPDEST JUMPDEST DUP3 DUP3 SUB SWAP1 POP SWAP3 SWAP2 POP POP JUMP JUMPDEST PUSH1 0x0 PUSH2 0x72A DUP3 PUSH2 0x771 JUMP JUMPDEST SWAP2 POP PUSH2 0x735 DUP4 PUSH2 0x771 JUMP JUMPDEST SWAP3 POP DUP3 DUP3 LT ISZERO PUSH2 0x748 JUMPI PUSH2 0x747 PUSH2 0x77E JUMP JUMPDEST JUMPDEST DUP3 DUP3 SUB SWAP1 POP SWAP3 SWAP2 POP POP JUMP JUMPDEST PUSH1 0x0 DUP2 SWAP1 POP SWAP2 SWAP1 POP JUMP JUMPDEST PUSH1 0x0 PUSH8 0xFFFFFFFFFFFFFFFF DUP3 AND SWAP1 POP SWAP2 SWAP1 POP JUMP JUMPDEST PUSH1 0x0 PUSH1 0xFF DUP3 AND SWAP1 POP SWAP2 SWAP1 POP JUMP JUMPDEST PUSH32 0x4E487B7100000000000000000000000000000000000000000000000000000000 PUSH1 0x0 MSTORE PUSH1 0x11 PUSH1 0x4 MSTORE PUSH1 0x24 PUSH1 0x0 REVERT JUMPDEST PUSH32 0x4E487B7100000000000000000000000000000000000000000000000000000000 PUSH1 0x0 MSTORE PUSH1 0x32 PUSH1 0x4 MSTORE PUSH1 0x24 PUSH1 0x0 REVERT JUMPDEST PUSH1 0x0 DUP1 REVERT JUMPDEST PUSH32 0x416C6C20736C616273206172652066756C6C2C206D6F726520746F6B656E7320 PUSH1 0x0 DUP3 ADD MSTORE PUSH32 0x63616E6E6F742062652061646465640000000000000000000000000000000000 PUSH1 0x20 DUP3 ADD MSTORE POP JUMP JUMPDEST PUSH2 0x839 DUP2 PUSH2 0x753 JUMP JUMPDEST DUP2 EQ PUSH2 0x844 JUMPI PUSH1 0x0 DUP1 REVERT JUMPDEST POP JUMP JUMPDEST PUSH2 0x850 DUP2 PUSH2 0x75D JUMP JUMPDEST DUP2 EQ PUSH2 0x85B JUMPI PUSH1 0x0 DUP1 REVERT JUMPDEST POP JUMP INVALID LOG2 PUSH5 0x6970667358 0x22 SLT KECCAK256 0xF6 SGT DUP10 PUSH32 0x62467B8B46CF5FAAFBEA6CF7D91AF6F50E4A8C61B5C563C702E954BF64736F6C PUSH4 0x43000807 STOP CALLER "
				},
				"gasEstimates": {
					"creation": {
						"codeDepositCost": "439200",
						"executionCost": "infinite",
						"totalCost": "infinite"
					},
					"external": {
						"slabValues(uint256)": "4395",
						"tokenDeposit(uint64)": "infinite",
						"viewSlabDetails()": "2501"
					},
					"internal": {
						"overflowHandler(uint64)": "infinite"
					}
				},
				"methodIdentifiers": {
					"slabValues(uint256)": "a72ae7a6",
					"tokenDeposit(uint64)": "10af504a",
					"viewSlabDetails()": "eda2ab68"
				}
			},
			"storageLayout": {
				"storage": [
					{
						"astId": 3,
						"contract": "Tokenslab.sol:Tokenslab",
						"label": "currentSlab",
						"offset": 0,
						"slot": "0",
						"type": "t_uint8"
					},
					{
						"astId": 7,
						"contract": "Tokenslab.sol:Tokenslab",
						"label": "slabLimits",
						"offset": 0,
						"slot": "1",
						"type": "t_array(t_uint32)5_storage"
					},
					{
						"astId": 11,
						"contract": "Tokenslab.sol:Tokenslab",
						"label": "slabValues",
						"offset": 0,
						"slot": "2",
						"type": "t_array(t_uint64)5_storage"
					}
				],
				"types": {
					"t_array(t_uint32)5_storage": {
						"base": "t_uint32",
						"encoding": "inplace",
						"label": "uint32[5]",
						"numberOfBytes": "32"
					},
					"t_array(t_uint64)5_storage": {
						"base": "t_uint64",
						"encoding": "inplace",
						"label": "uint64[5]",
						"numberOfBytes": "64"
					},
					"t_uint32": {
						"encoding": "inplace",
						"label": "uint32",
						"numberOfBytes": "4"
					},
					"t_uint64": {
						"encoding": "inplace",
						"label": "uint64",
						"numberOfBytes": "8"
					},
					"t_uint8": {
						"encoding": "inplace",
						"label": "uint8",
						"numberOfBytes": "1"
					}
				}
			},
			"userdoc": {
				"kind": "user",
				"methods": {},
				"version": 1
			}
		}
	}
}