{
	"Tokenslab.sol": {
		"Tokenslab": {
			"abi": [
				{
					"inputs": [],
					"stateMutability": "nonpayable",
					"type": "constructor"
				},
				{
					"inputs": [
						{
							"internalType": "uint32",
							"name": "noofTokens",
							"type": "uint32"
						}
					],
					"name": "tokenDeposit",
					"outputs": [],
					"stateMutability": "nonpayable",
					"type": "function"
				},
				{
					"inputs": [],
					"name": "viewSlabDetails",
					"outputs": [
						{
							"internalType": "uint8",
							"name": "",
							"type": "uint8"
						}
					],
					"stateMutability": "view",
					"type": "function"
				},
				{
					"inputs": [
						{
							"internalType": "uint8",
							"name": "slabInd",
							"type": "uint8"
						}
					],
					"name": "viewSlabvalues",
					"outputs": [
						{
							"internalType": "uint32",
							"name": "",
							"type": "uint32"
						}
					],
					"stateMutability": "view",
					"type": "function"
				}
			],
			"devdoc": {
				"kind": "dev",
				"methods": {},
				"version": 1
			},
			"evm": {
				"assembly": "    /* \"Tokenslab.sol\":71:2096  contract Tokenslab {\r... */\n  mstore(0x40, 0x80)\n    /* \"Tokenslab.sol\":193:411  constructor()\r... */\n  callvalue\n  dup1\n  iszero\n  tag_1\n  jumpi\n  0x00\n  dup1\n  revert\ntag_1:\n  pop\n    /* \"Tokenslab.sol\":270:304  slabLimits = [100,200,300,400,500] */\n  mload(0x40)\n  dup1\n  0xa0\n  add\n  0x40\n  mstore\n  dup1\n    /* \"Tokenslab.sol\":284:287  100 */\n  0x64\n    /* \"Tokenslab.sol\":270:304  slabLimits = [100,200,300,400,500] */\n  0xffff\n  and\n  dup2\n  mstore\n  0x20\n  add\n    /* \"Tokenslab.sol\":288:291  200 */\n  0xc8\n    /* \"Tokenslab.sol\":270:304  slabLimits = [100,200,300,400,500] */\n  0xffff\n  and\n  dup2\n  mstore\n  0x20\n  add\n    /* \"Tokenslab.sol\":292:295  300 */\n  0x012c\n    /* \"Tokenslab.sol\":270:304  slabLimits = [100,200,300,400,500] */\n  0xffff\n  and\n  dup2\n  mstore\n  0x20\n  add\n    /* \"Tokenslab.sol\":296:299  400 */\n  0x0190\n    /* \"Tokenslab.sol\":270:304  slabLimits = [100,200,300,400,500] */\n  0xffff\n  and\n  dup2\n  mstore\n  0x20\n  add\n    /* \"Tokenslab.sol\":300:303  500 */\n  0x01f4\n    /* \"Tokenslab.sol\":270:304  slabLimits = [100,200,300,400,500] */\n  0xffff\n  and\n  dup2\n  mstore\n  pop\n    /* \"Tokenslab.sol\":270:280  slabLimits */\n  0x01\n    /* \"Tokenslab.sol\":270:304  slabLimits = [100,200,300,400,500] */\n  swap1\n  0x05\n  tag_4\n  swap3\n  swap2\n  swap1\n  tag_5\n  jump\t// in\ntag_4:\n  pop\n    /* \"Tokenslab.sol\":333:334  4 */\n  0x04\n    /* \"Tokenslab.sol\":319:330  currentSlab */\n  0x00\n  dup1\n    /* \"Tokenslab.sol\":319:334  currentSlab = 4 */\n  0x0100\n  exp\n  dup2\n  sload\n  dup2\n  0xff\n  mul\n  not\n  and\n  swap1\n  dup4\n  0xff\n  and\n  mul\n  or\n  swap1\n  sstore\n  pop\n    /* \"Tokenslab.sol\":375:399  slabValues = [0,0,0,0,0] */\n  mload(0x40)\n  dup1\n  0xa0\n  add\n  0x40\n  mstore\n  dup1\n    /* \"Tokenslab.sol\":389:390  0 */\n  0x00\n    /* \"Tokenslab.sol\":375:399  slabValues = [0,0,0,0,0] */\n  0xff\n  and\n  dup2\n  mstore\n  0x20\n  add\n    /* \"Tokenslab.sol\":391:392  0 */\n  0x00\n    /* \"Tokenslab.sol\":375:399  slabValues = [0,0,0,0,0] */\n  0xff\n  and\n  dup2\n  mstore\n  0x20\n  add\n    /* \"Tokenslab.sol\":393:394  0 */\n  0x00\n    /* \"Tokenslab.sol\":375:399  slabValues = [0,0,0,0,0] */\n  0xff\n  and\n  dup2\n  mstore\n  0x20\n  add\n    /* \"Tokenslab.sol\":395:396  0 */\n  0x00\n    /* \"Tokenslab.sol\":375:399  slabValues = [0,0,0,0,0] */\n  0xff\n  and\n  dup2\n  mstore\n  0x20\n  add\n    /* \"Tokenslab.sol\":397:398  0 */\n  0x00\n    /* \"Tokenslab.sol\":375:399  slabValues = [0,0,0,0,0] */\n  0xff\n  and\n  dup2\n  mstore\n  pop\n    /* \"Tokenslab.sol\":375:385  slabValues */\n  0x02\n    /* \"Tokenslab.sol\":375:399  slabValues = [0,0,0,0,0] */\n  swap1\n  0x05\n  tag_6\n  swap3\n  swap2\n  swap1\n  tag_7\n  jump\t// in\ntag_6:\n  pop\n    /* \"Tokenslab.sol\":71:2096  contract Tokenslab {\r... */\n  jump(tag_8)\ntag_5:\n  dup3\n  add(0x07, 0x05)\n  0x08\n  swap1\n  div\n  dup2\n  add\n  swap3\n  dup3\n  iszero\n  tag_9\n  jumpi\n  swap2\n  0x20\n  mul\n  dup3\n  add\n  0x00\ntag_10:\n  dup4\n  dup3\n  gt\n  iszero\n  tag_11\n  jumpi\n  dup4\n  mload\n  dup4\n  dup3\n  0x0100\n  exp\n  dup2\n  sload\n  dup2\n  0xffffffff\n  mul\n  not\n  and\n  swap1\n  dup4\n  0xffff\n  and\n  mul\n  or\n  swap1\n  sstore\n  pop\n  swap3\n  0x20\n  add\n  swap3\n  0x04\n  add\n  0x20\n  dup2\n  0x03\n  add\n  div\n  swap3\n  dup4\n  add\n  swap3\n  0x01\n  sub\n  mul\n  jump(tag_10)\ntag_11:\n  dup1\n  iszero\n  tag_12\n  jumpi\n  dup3\n  dup2\n  0x0100\n  exp\n  dup2\n  sload\n  swap1\n  0xffffffff\n  mul\n  not\n  and\n  swap1\n  sstore\n  0x04\n  add\n  0x20\n  dup2\n  0x03\n  add\n  div\n  swap3\n  dup4\n  add\n  swap3\n  0x01\n  sub\n  mul\n  jump(tag_11)\ntag_12:\n  pop\ntag_9:\n  pop\n  swap1\n  pop\n  tag_13\n  swap2\n  swap1\n  tag_14\n  jump\t// in\ntag_13:\n  pop\n  swap1\n  jump\t// out\ntag_7:\n  dup3\n  add(0x07, 0x05)\n  0x08\n  swap1\n  div\n  dup2\n  add\n  swap3\n  dup3\n  iszero\n  tag_15\n  jumpi\n  swap2\n  0x20\n  mul\n  dup3\n  add\n  0x00\ntag_16:\n  dup4\n  dup3\n  gt\n  iszero\n  tag_17\n  jumpi\n  dup4\n  mload\n  dup4\n  dup3\n  0x0100\n  exp\n  dup2\n  sload\n  dup2\n  0xffffffff\n  mul\n  not\n  and\n  swap1\n  dup4\n  0xff\n  and\n  mul\n  or\n  swap1\n  sstore\n  pop\n  swap3\n  0x20\n  add\n  swap3\n  0x04\n  add\n  0x20\n  dup2\n  0x03\n  add\n  div\n  swap3\n  dup4\n  add\n  swap3\n  0x01\n  sub\n  mul\n  jump(tag_16)\ntag_17:\n  dup1\n  iszero\n  tag_18\n  jumpi\n  dup3\n  dup2\n  0x0100\n  exp\n  dup2\n  sload\n  swap1\n  0xffffffff\n  mul\n  not\n  and\n  swap1\n  sstore\n  0x04\n  add\n  0x20\n  dup2\n  0x03\n  add\n  div\n  swap3\n  dup4\n  add\n  swap3\n  0x01\n  sub\n  mul\n  jump(tag_17)\ntag_18:\n  pop\ntag_15:\n  pop\n  swap1\n  pop\n  tag_19\n  swap2\n  swap1\n  tag_14\n  jump\t// in\ntag_19:\n  pop\n  swap1\n  jump\t// out\ntag_14:\ntag_20:\n  dup1\n  dup3\n  gt\n  iszero\n  tag_21\n  jumpi\n  0x00\n  dup2\n  0x00\n  swap1\n  sstore\n  pop\n  0x01\n  add\n  jump(tag_20)\ntag_21:\n  pop\n  swap1\n  jump\t// out\ntag_8:\n  dataSize(sub_0)\n  dup1\n  dataOffset(sub_0)\n  0x00\n  codecopy\n  0x00\n  return\nstop\n\nsub_0: assembly {\n        /* \"Tokenslab.sol\":71:2096  contract Tokenslab {\r... */\n      mstore(0x40, 0x80)\n      callvalue\n      dup1\n      iszero\n      tag_1\n      jumpi\n      0x00\n      dup1\n      revert\n    tag_1:\n      pop\n      jumpi(tag_2, lt(calldatasize, 0x04))\n      shr(0xe0, calldataload(0x00))\n      dup1\n      0x144611ca\n      eq\n      tag_3\n      jumpi\n      dup1\n      0x6587ae42\n      eq\n      tag_4\n      jumpi\n      dup1\n      0xeda2ab68\n      eq\n      tag_5\n      jumpi\n    tag_2:\n      0x00\n      dup1\n      revert\n        /* \"Tokenslab.sol\":1957:2087  function viewSlabvalues(uint8 slabInd) public view returns(uint32)\r... */\n    tag_3:\n      tag_6\n      0x04\n      dup1\n      calldatasize\n      sub\n      dup2\n      add\n      swap1\n      tag_7\n      swap2\n      swap1\n      tag_8\n      jump\t// in\n    tag_7:\n      tag_9\n      jump\t// in\n    tag_6:\n      mload(0x40)\n      tag_10\n      swap2\n      swap1\n      tag_11\n      jump\t// in\n    tag_10:\n      mload(0x40)\n      dup1\n      swap2\n      sub\n      swap1\n      return\n        /* \"Tokenslab.sol\":423:997  function tokenDeposit(uint32 noofTokens) public\r... */\n    tag_4:\n      tag_12\n      0x04\n      dup1\n      calldatasize\n      sub\n      dup2\n      add\n      swap1\n      tag_13\n      swap2\n      swap1\n      tag_14\n      jump\t// in\n    tag_13:\n      tag_15\n      jump\t// in\n    tag_12:\n      stop\n        /* \"Tokenslab.sol\":1771:1945  function viewSlabDetails() public view returns(uint8)\r... */\n    tag_5:\n      tag_16\n      tag_17\n      jump\t// in\n    tag_16:\n      mload(0x40)\n      tag_18\n      swap2\n      swap1\n      tag_19\n      jump\t// in\n    tag_18:\n      mload(0x40)\n      dup1\n      swap2\n      sub\n      swap1\n      return\n        /* \"Tokenslab.sol\":1957:2087  function viewSlabvalues(uint8 slabInd) public view returns(uint32)\r... */\n    tag_9:\n        /* \"Tokenslab.sol\":2016:2022  uint32 */\n      0x00\n        /* \"Tokenslab.sol\":2055:2065  slabValues */\n      0x02\n        /* \"Tokenslab.sol\":2066:2073  slabInd */\n      dup3\n        /* \"Tokenslab.sol\":2055:2074  slabValues[slabInd] */\n      0xff\n      and\n      0x05\n      dup2\n      lt\n      tag_21\n      jumpi\n      tag_22\n      tag_23\n      jump\t// in\n    tag_22:\n    tag_21:\n      0x08\n      swap2\n      dup3\n      dup3\n      div\n      add\n      swap2\n      swap1\n      mod\n      0x04\n      mul\n      swap1\n      sload\n      swap1\n      0x0100\n      exp\n      swap1\n      div\n      0xffffffff\n      and\n        /* \"Tokenslab.sol\":2048:2075  return(slabValues[slabInd]) */\n      swap1\n      pop\n        /* \"Tokenslab.sol\":1957:2087  function viewSlabvalues(uint8 slabInd) public view returns(uint32)\r... */\n      swap2\n      swap1\n      pop\n      jump\t// out\n        /* \"Tokenslab.sol\":423:997  function tokenDeposit(uint32 noofTokens) public\r... */\n    tag_15:\n        /* \"Tokenslab.sol\":675:685  noofTokens */\n      dup1\n        /* \"Tokenslab.sol\":648:658  slabValues */\n      0x02\n        /* \"Tokenslab.sol\":659:670  currentSlab */\n      0x00\n      dup1\n      sload\n      swap1\n      0x0100\n      exp\n      swap1\n      div\n      0xff\n      and\n        /* \"Tokenslab.sol\":648:671  slabValues[currentSlab] */\n      0xff\n      and\n      0x05\n      dup2\n      lt\n      tag_26\n      jumpi\n      tag_27\n      tag_23\n      jump\t// in\n    tag_27:\n    tag_26:\n      0x08\n      swap2\n      dup3\n      dup3\n      div\n      add\n      swap2\n      swap1\n      mod\n      0x04\n      mul\n        /* \"Tokenslab.sol\":648:685  slabValues[currentSlab] += noofTokens */\n      dup3\n      dup3\n      dup3\n      swap1\n      sload\n      swap1\n      0x0100\n      exp\n      swap1\n      div\n      0xffffffff\n      and\n      tag_29\n      swap2\n      swap1\n      tag_30\n      jump\t// in\n    tag_29:\n      swap3\n      pop\n      0x0100\n      exp\n      dup2\n      sload\n      dup2\n      0xffffffff\n      mul\n      not\n      and\n      swap1\n      dup4\n      0xffffffff\n      and\n      mul\n      or\n      swap1\n      sstore\n      pop\n        /* \"Tokenslab.sol\":729:739  slabLimits */\n      0x01\n        /* \"Tokenslab.sol\":740:751  currentSlab */\n      0x00\n      dup1\n      sload\n      swap1\n      0x0100\n      exp\n      swap1\n      div\n      0xff\n      and\n        /* \"Tokenslab.sol\":729:752  slabLimits[currentSlab] */\n      0xff\n      and\n      0x05\n      dup2\n      lt\n      tag_31\n      jumpi\n      tag_32\n      tag_23\n      jump\t// in\n    tag_32:\n    tag_31:\n      0x08\n      swap2\n      dup3\n      dup3\n      div\n      add\n      swap2\n      swap1\n      mod\n      0x04\n      mul\n      swap1\n      sload\n      swap1\n      0x0100\n      exp\n      swap1\n      div\n      0xffffffff\n      and\n        /* \"Tokenslab.sol\":703:752  slabValues[currentSlab] > slabLimits[currentSlab] */\n      0xffffffff\n      and\n        /* \"Tokenslab.sol\":703:713  slabValues */\n      0x02\n        /* \"Tokenslab.sol\":714:725  currentSlab */\n      0x00\n      dup1\n      sload\n      swap1\n      0x0100\n      exp\n      swap1\n      div\n      0xff\n      and\n        /* \"Tokenslab.sol\":703:726  slabValues[currentSlab] */\n      0xff\n      and\n      0x05\n      dup2\n      lt\n      tag_34\n      jumpi\n      tag_35\n      tag_23\n      jump\t// in\n    tag_35:\n    tag_34:\n      0x08\n      swap2\n      dup3\n      dup3\n      div\n      add\n      swap2\n      swap1\n      mod\n      0x04\n      mul\n      swap1\n      sload\n      swap1\n      0x0100\n      exp\n      swap1\n      div\n      0xffffffff\n      and\n        /* \"Tokenslab.sol\":703:752  slabValues[currentSlab] > slabLimits[currentSlab] */\n      0xffffffff\n      and\n      gt\n        /* \"Tokenslab.sol\":700:986  if(slabValues[currentSlab] > slabLimits[currentSlab])\r... */\n      iszero\n      tag_37\n      jumpi\n        /* \"Tokenslab.sol\":786:799  uint32 excess */\n      0x00\n        /* \"Tokenslab.sol\":853:863  slabLimits */\n      0x01\n        /* \"Tokenslab.sol\":864:875  currentSlab */\n      0x00\n      dup1\n      sload\n      swap1\n      0x0100\n      exp\n      swap1\n      div\n      0xff\n      and\n        /* \"Tokenslab.sol\":853:876  slabLimits[currentSlab] */\n      0xff\n      and\n      0x05\n      dup2\n      lt\n      tag_38\n      jumpi\n      tag_39\n      tag_23\n      jump\t// in\n    tag_39:\n    tag_38:\n      0x08\n      swap2\n      dup3\n      dup3\n      div\n      add\n      swap2\n      swap1\n      mod\n      0x04\n      mul\n      swap1\n      sload\n      swap1\n      0x0100\n      exp\n      swap1\n      div\n      0xffffffff\n      and\n        /* \"Tokenslab.sol\":827:837  slabValues */\n      0x02\n        /* \"Tokenslab.sol\":838:849  currentSlab */\n      0x00\n      dup1\n      sload\n      swap1\n      0x0100\n      exp\n      swap1\n      div\n      0xff\n      and\n        /* \"Tokenslab.sol\":827:850  slabValues[currentSlab] */\n      0xff\n      and\n      0x05\n      dup2\n      lt\n      tag_41\n      jumpi\n      tag_42\n      tag_23\n      jump\t// in\n    tag_42:\n    tag_41:\n      0x08\n      swap2\n      dup3\n      dup3\n      div\n      add\n      swap2\n      swap1\n      mod\n      0x04\n      mul\n      swap1\n      sload\n      swap1\n      0x0100\n      exp\n      swap1\n      div\n      0xffffffff\n      and\n        /* \"Tokenslab.sol\":827:876  slabValues[currentSlab] - slabLimits[currentSlab] */\n      tag_44\n      swap2\n      swap1\n      tag_45\n      jump\t// in\n    tag_44:\n        /* \"Tokenslab.sol\":818:876  excess = slabValues[currentSlab] - slabLimits[currentSlab] */\n      swap1\n      pop\n        /* \"Tokenslab.sol\":922:928  excess */\n      dup1\n        /* \"Tokenslab.sol\":895:905  slabValues */\n      0x02\n        /* \"Tokenslab.sol\":906:917  currentSlab */\n      0x00\n      dup1\n      sload\n      swap1\n      0x0100\n      exp\n      swap1\n      div\n      0xff\n      and\n        /* \"Tokenslab.sol\":895:918  slabValues[currentSlab] */\n      0xff\n      and\n      0x05\n      dup2\n      lt\n      tag_46\n      jumpi\n      tag_47\n      tag_23\n      jump\t// in\n    tag_47:\n    tag_46:\n      0x08\n      swap2\n      dup3\n      dup3\n      div\n      add\n      swap2\n      swap1\n      mod\n      0x04\n      mul\n        /* \"Tokenslab.sol\":895:928  slabValues[currentSlab] -= excess */\n      dup3\n      dup3\n      dup3\n      swap1\n      sload\n      swap1\n      0x0100\n      exp\n      swap1\n      div\n      0xffffffff\n      and\n      tag_49\n      swap2\n      swap1\n      tag_45\n      jump\t// in\n    tag_49:\n      swap3\n      pop\n      0x0100\n      exp\n      dup2\n      sload\n      dup2\n      0xffffffff\n      mul\n      not\n      and\n      swap1\n      dup4\n      0xffffffff\n      and\n      mul\n      or\n      swap1\n      sstore\n      pop\n        /* \"Tokenslab.sol\":947:970  overflowHandler(excess) */\n      tag_50\n        /* \"Tokenslab.sol\":963:969  excess */\n      dup2\n        /* \"Tokenslab.sol\":947:962  overflowHandler */\n      tag_51\n        /* \"Tokenslab.sol\":947:970  overflowHandler(excess) */\n      jump\t// in\n    tag_50:\n        /* \"Tokenslab.sol\":767:986  {\r... */\n      pop\n        /* \"Tokenslab.sol\":700:986  if(slabValues[currentSlab] > slabLimits[currentSlab])\r... */\n    tag_37:\n        /* \"Tokenslab.sol\":423:997  function tokenDeposit(uint32 noofTokens) public\r... */\n      pop\n      jump\t// out\n        /* \"Tokenslab.sol\":1771:1945  function viewSlabDetails() public view returns(uint8)\r... */\n    tag_17:\n        /* \"Tokenslab.sol\":1818:1823  uint8 */\n      0x00\n        /* \"Tokenslab.sol\":1921:1932  currentSlab */\n      dup1\n      0x00\n      swap1\n      sload\n      swap1\n      0x0100\n      exp\n      swap1\n      div\n      0xff\n      and\n        /* \"Tokenslab.sol\":1914:1933  return(currentSlab) */\n      swap1\n      pop\n        /* \"Tokenslab.sol\":1771:1945  function viewSlabDetails() public view returns(uint8)\r... */\n      swap1\n      jump\t// out\n        /* \"Tokenslab.sol\":1009:1758  function overflowHandler(uint32 overFlow) private \r... */\n    tag_51:\n        /* \"Tokenslab.sol\":1218:1228  slabLimits */\n      0x01\n        /* \"Tokenslab.sol\":1229:1240  currentSlab */\n      0x00\n      dup1\n      sload\n      swap1\n      0x0100\n      exp\n      swap1\n      div\n      0xff\n      and\n        /* \"Tokenslab.sol\":1218:1241  slabLimits[currentSlab] */\n      0xff\n      and\n      0x05\n      dup2\n      lt\n      tag_54\n      jumpi\n      tag_55\n      tag_23\n      jump\t// in\n    tag_55:\n    tag_54:\n      0x08\n      swap2\n      dup3\n      dup3\n      div\n      add\n      swap2\n      swap1\n      mod\n      0x04\n      mul\n      swap1\n      sload\n      swap1\n      0x0100\n      exp\n      swap1\n      div\n      0xffffffff\n      and\n        /* \"Tokenslab.sol\":1192:1202  slabValues */\n      0x02\n        /* \"Tokenslab.sol\":1203:1214  currentSlab */\n      0x00\n      dup1\n      sload\n      swap1\n      0x0100\n      exp\n      swap1\n      div\n      0xff\n      and\n        /* \"Tokenslab.sol\":1192:1215  slabValues[currentSlab] */\n      0xff\n      and\n      0x05\n      dup2\n      lt\n      tag_57\n      jumpi\n      tag_58\n      tag_23\n      jump\t// in\n    tag_58:\n    tag_57:\n      0x08\n      swap2\n      dup3\n      dup3\n      div\n      add\n      swap2\n      swap1\n      mod\n      0x04\n      mul\n        /* \"Tokenslab.sol\":1192:1241  slabValues[currentSlab] = slabLimits[currentSlab] */\n      0x0100\n      exp\n      dup2\n      sload\n      dup2\n      0xffffffff\n      mul\n      not\n      and\n      swap1\n      dup4\n      0xffffffff\n      and\n      mul\n      or\n      swap1\n      sstore\n      pop\n        /* \"Tokenslab.sol\":1284:1285  1 */\n      0x01\n        /* \"Tokenslab.sol\":1270:1281  currentSlab */\n      0x00\n      dup1\n      sload\n      swap1\n      0x0100\n      exp\n      swap1\n      div\n      0xff\n      and\n        /* \"Tokenslab.sol\":1270:1285  currentSlab - 1 */\n      tag_60\n      swap2\n      swap1\n      tag_61\n      jump\t// in\n    tag_60:\n        /* \"Tokenslab.sol\":1256:1267  currentSlab */\n      0x00\n      dup1\n        /* \"Tokenslab.sol\":1256:1285  currentSlab = currentSlab - 1 */\n      0x0100\n      exp\n      dup2\n      sload\n      dup2\n      0xff\n      mul\n      not\n      and\n      swap1\n      dup4\n      0xff\n      and\n      mul\n      or\n      swap1\n      sstore\n      pop\n        /* \"Tokenslab.sol\":1325:1326  0 */\n      0x00\n        /* \"Tokenslab.sol\":1310:1321  currentSlab */\n      dup1\n      0x00\n      swap1\n      sload\n      swap1\n      0x0100\n      exp\n      swap1\n      div\n      0xff\n      and\n        /* \"Tokenslab.sol\":1310:1326  currentSlab >= 0 */\n      0xff\n      and\n      lt\n      iszero\n        /* \"Tokenslab.sol\":1302:1378  require(currentSlab >= 0, \"All slabs are full, more tokens cannot be added\") */\n      tag_62\n      jumpi\n      mload(0x40)\n      0x08c379a000000000000000000000000000000000000000000000000000000000\n      dup2\n      mstore\n      0x04\n      add\n      tag_63\n      swap1\n      tag_64\n      jump\t// in\n    tag_63:\n      mload(0x40)\n      dup1\n      swap2\n      sub\n      swap1\n      revert\n    tag_62:\n        /* \"Tokenslab.sol\":1422:1430  overFlow */\n      dup1\n        /* \"Tokenslab.sol\":1395:1405  slabValues */\n      0x02\n        /* \"Tokenslab.sol\":1406:1417  currentSlab */\n      0x00\n      dup1\n      sload\n      swap1\n      0x0100\n      exp\n      swap1\n      div\n      0xff\n      and\n        /* \"Tokenslab.sol\":1395:1418  slabValues[currentSlab] */\n      0xff\n      and\n      0x05\n      dup2\n      lt\n      tag_65\n      jumpi\n      tag_66\n      tag_23\n      jump\t// in\n    tag_66:\n    tag_65:\n      0x08\n      swap2\n      dup3\n      dup3\n      div\n      add\n      swap2\n      swap1\n      mod\n      0x04\n      mul\n        /* \"Tokenslab.sol\":1395:1430  slabValues[currentSlab] += overFlow */\n      dup3\n      dup3\n      dup3\n      swap1\n      sload\n      swap1\n      0x0100\n      exp\n      swap1\n      div\n      0xffffffff\n      and\n      tag_68\n      swap2\n      swap1\n      tag_30\n      jump\t// in\n    tag_68:\n      swap3\n      pop\n      0x0100\n      exp\n      dup2\n      sload\n      dup2\n      0xffffffff\n      mul\n      not\n      and\n      swap1\n      dup4\n      0xffffffff\n      and\n      mul\n      or\n      swap1\n      sstore\n      pop\n        /* \"Tokenslab.sol\":1476:1486  slabLimits */\n      0x01\n        /* \"Tokenslab.sol\":1487:1498  currentSlab */\n      0x00\n      dup1\n      sload\n      swap1\n      0x0100\n      exp\n      swap1\n      div\n      0xff\n      and\n        /* \"Tokenslab.sol\":1476:1499  slabLimits[currentSlab] */\n      0xff\n      and\n      0x05\n      dup2\n      lt\n      tag_69\n      jumpi\n      tag_70\n      tag_23\n      jump\t// in\n    tag_70:\n    tag_69:\n      0x08\n      swap2\n      dup3\n      dup3\n      div\n      add\n      swap2\n      swap1\n      mod\n      0x04\n      mul\n      swap1\n      sload\n      swap1\n      0x0100\n      exp\n      swap1\n      div\n      0xffffffff\n      and\n        /* \"Tokenslab.sol\":1450:1499  slabValues[currentSlab] > slabLimits[currentSlab] */\n      0xffffffff\n      and\n        /* \"Tokenslab.sol\":1450:1460  slabValues */\n      0x02\n        /* \"Tokenslab.sol\":1461:1472  currentSlab */\n      0x00\n      dup1\n      sload\n      swap1\n      0x0100\n      exp\n      swap1\n      div\n      0xff\n      and\n        /* \"Tokenslab.sol\":1450:1473  slabValues[currentSlab] */\n      0xff\n      and\n      0x05\n      dup2\n      lt\n      tag_72\n      jumpi\n      tag_73\n      tag_23\n      jump\t// in\n    tag_73:\n    tag_72:\n      0x08\n      swap2\n      dup3\n      dup3\n      div\n      add\n      swap2\n      swap1\n      mod\n      0x04\n      mul\n      swap1\n      sload\n      swap1\n      0x0100\n      exp\n      swap1\n      div\n      0xffffffff\n      and\n        /* \"Tokenslab.sol\":1450:1499  slabValues[currentSlab] > slabLimits[currentSlab] */\n      0xffffffff\n      and\n      gt\n        /* \"Tokenslab.sol\":1447:1733  if(slabValues[currentSlab] > slabLimits[currentSlab])\r... */\n      iszero\n      tag_75\n      jumpi\n        /* \"Tokenslab.sol\":1533:1546  uint32 excess */\n      0x00\n        /* \"Tokenslab.sol\":1600:1610  slabLimits */\n      0x01\n        /* \"Tokenslab.sol\":1611:1622  currentSlab */\n      0x00\n      dup1\n      sload\n      swap1\n      0x0100\n      exp\n      swap1\n      div\n      0xff\n      and\n        /* \"Tokenslab.sol\":1600:1623  slabLimits[currentSlab] */\n      0xff\n      and\n      0x05\n      dup2\n      lt\n      tag_76\n      jumpi\n      tag_77\n      tag_23\n      jump\t// in\n    tag_77:\n    tag_76:\n      0x08\n      swap2\n      dup3\n      dup3\n      div\n      add\n      swap2\n      swap1\n      mod\n      0x04\n      mul\n      swap1\n      sload\n      swap1\n      0x0100\n      exp\n      swap1\n      div\n      0xffffffff\n      and\n        /* \"Tokenslab.sol\":1574:1584  slabValues */\n      0x02\n        /* \"Tokenslab.sol\":1585:1596  currentSlab */\n      0x00\n      dup1\n      sload\n      swap1\n      0x0100\n      exp\n      swap1\n      div\n      0xff\n      and\n        /* \"Tokenslab.sol\":1574:1597  slabValues[currentSlab] */\n      0xff\n      and\n      0x05\n      dup2\n      lt\n      tag_79\n      jumpi\n      tag_80\n      tag_23\n      jump\t// in\n    tag_80:\n    tag_79:\n      0x08\n      swap2\n      dup3\n      dup3\n      div\n      add\n      swap2\n      swap1\n      mod\n      0x04\n      mul\n      swap1\n      sload\n      swap1\n      0x0100\n      exp\n      swap1\n      div\n      0xffffffff\n      and\n        /* \"Tokenslab.sol\":1574:1623  slabValues[currentSlab] - slabLimits[currentSlab] */\n      tag_82\n      swap2\n      swap1\n      tag_45\n      jump\t// in\n    tag_82:\n        /* \"Tokenslab.sol\":1565:1623  excess = slabValues[currentSlab] - slabLimits[currentSlab] */\n      swap1\n      pop\n        /* \"Tokenslab.sol\":1669:1675  excess */\n      dup1\n        /* \"Tokenslab.sol\":1642:1652  slabValues */\n      0x02\n        /* \"Tokenslab.sol\":1653:1664  currentSlab */\n      0x00\n      dup1\n      sload\n      swap1\n      0x0100\n      exp\n      swap1\n      div\n      0xff\n      and\n        /* \"Tokenslab.sol\":1642:1665  slabValues[currentSlab] */\n      0xff\n      and\n      0x05\n      dup2\n      lt\n      tag_83\n      jumpi\n      tag_84\n      tag_23\n      jump\t// in\n    tag_84:\n    tag_83:\n      0x08\n      swap2\n      dup3\n      dup3\n      div\n      add\n      swap2\n      swap1\n      mod\n      0x04\n      mul\n        /* \"Tokenslab.sol\":1642:1675  slabValues[currentSlab] -= excess */\n      dup3\n      dup3\n      dup3\n      swap1\n      sload\n      swap1\n      0x0100\n      exp\n      swap1\n      div\n      0xffffffff\n      and\n      tag_86\n      swap2\n      swap1\n      tag_45\n      jump\t// in\n    tag_86:\n      swap3\n      pop\n      0x0100\n      exp\n      dup2\n      sload\n      dup2\n      0xffffffff\n      mul\n      not\n      and\n      swap1\n      dup4\n      0xffffffff\n      and\n      mul\n      or\n      swap1\n      sstore\n      pop\n        /* \"Tokenslab.sol\":1694:1717  overflowHandler(excess) */\n      tag_87\n        /* \"Tokenslab.sol\":1710:1716  excess */\n      dup2\n        /* \"Tokenslab.sol\":1694:1709  overflowHandler */\n      tag_51\n        /* \"Tokenslab.sol\":1694:1717  overflowHandler(excess) */\n      jump\t// in\n    tag_87:\n        /* \"Tokenslab.sol\":1514:1733  {\r... */\n      pop\n        /* \"Tokenslab.sol\":1447:1733  if(slabValues[currentSlab] > slabLimits[currentSlab])\r... */\n    tag_75:\n        /* \"Tokenslab.sol\":1009:1758  function overflowHandler(uint32 overFlow) private \r... */\n      pop\n      jump\t// out\n        /* \"#utility.yul\":7:144   */\n    tag_89:\n        /* \"#utility.yul\":52:57   */\n      0x00\n        /* \"#utility.yul\":90:96   */\n      dup2\n        /* \"#utility.yul\":77:97   */\n      calldataload\n        /* \"#utility.yul\":68:97   */\n      swap1\n      pop\n        /* \"#utility.yul\":106:138   */\n      tag_91\n        /* \"#utility.yul\":132:137   */\n      dup2\n        /* \"#utility.yul\":106:138   */\n      tag_92\n      jump\t// in\n    tag_91:\n        /* \"#utility.yul\":7:144   */\n      swap3\n      swap2\n      pop\n      pop\n      jump\t// out\n        /* \"#utility.yul\":150:285   */\n    tag_93:\n        /* \"#utility.yul\":194:199   */\n      0x00\n        /* \"#utility.yul\":232:238   */\n      dup2\n        /* \"#utility.yul\":219:239   */\n      calldataload\n        /* \"#utility.yul\":210:239   */\n      swap1\n      pop\n        /* \"#utility.yul\":248:279   */\n      tag_95\n        /* \"#utility.yul\":273:278   */\n      dup2\n        /* \"#utility.yul\":248:279   */\n      tag_96\n      jump\t// in\n    tag_95:\n        /* \"#utility.yul\":150:285   */\n      swap3\n      swap2\n      pop\n      pop\n      jump\t// out\n        /* \"#utility.yul\":291:618   */\n    tag_14:\n        /* \"#utility.yul\":349:355   */\n      0x00\n        /* \"#utility.yul\":398:400   */\n      0x20\n        /* \"#utility.yul\":386:395   */\n      dup3\n        /* \"#utility.yul\":377:384   */\n      dup5\n        /* \"#utility.yul\":373:396   */\n      sub\n        /* \"#utility.yul\":369:401   */\n      slt\n        /* \"#utility.yul\":366:485   */\n      iszero\n      tag_98\n      jumpi\n        /* \"#utility.yul\":404:483   */\n      tag_99\n      tag_100\n      jump\t// in\n    tag_99:\n        /* \"#utility.yul\":366:485   */\n    tag_98:\n        /* \"#utility.yul\":524:525   */\n      0x00\n        /* \"#utility.yul\":549:601   */\n      tag_101\n        /* \"#utility.yul\":593:600   */\n      dup5\n        /* \"#utility.yul\":584:590   */\n      dup3\n        /* \"#utility.yul\":573:582   */\n      dup6\n        /* \"#utility.yul\":569:591   */\n      add\n        /* \"#utility.yul\":549:601   */\n      tag_89\n      jump\t// in\n    tag_101:\n        /* \"#utility.yul\":539:601   */\n      swap2\n      pop\n        /* \"#utility.yul\":495:611   */\n      pop\n        /* \"#utility.yul\":291:618   */\n      swap3\n      swap2\n      pop\n      pop\n      jump\t// out\n        /* \"#utility.yul\":624:949   */\n    tag_8:\n        /* \"#utility.yul\":681:687   */\n      0x00\n        /* \"#utility.yul\":730:732   */\n      0x20\n        /* \"#utility.yul\":718:727   */\n      dup3\n        /* \"#utility.yul\":709:716   */\n      dup5\n        /* \"#utility.yul\":705:728   */\n      sub\n        /* \"#utility.yul\":701:733   */\n      slt\n        /* \"#utility.yul\":698:817   */\n      iszero\n      tag_103\n      jumpi\n        /* \"#utility.yul\":736:815   */\n      tag_104\n      tag_100\n      jump\t// in\n    tag_104:\n        /* \"#utility.yul\":698:817   */\n    tag_103:\n        /* \"#utility.yul\":856:857   */\n      0x00\n        /* \"#utility.yul\":881:932   */\n      tag_105\n        /* \"#utility.yul\":924:931   */\n      dup5\n        /* \"#utility.yul\":915:921   */\n      dup3\n        /* \"#utility.yul\":904:913   */\n      dup6\n        /* \"#utility.yul\":900:922   */\n      add\n        /* \"#utility.yul\":881:932   */\n      tag_93\n      jump\t// in\n    tag_105:\n        /* \"#utility.yul\":871:932   */\n      swap2\n      pop\n        /* \"#utility.yul\":827:942   */\n      pop\n        /* \"#utility.yul\":624:949   */\n      swap3\n      swap2\n      pop\n      pop\n      jump\t// out\n        /* \"#utility.yul\":955:1321   */\n    tag_106:\n        /* \"#utility.yul\":1097:1100   */\n      0x00\n        /* \"#utility.yul\":1118:1185   */\n      tag_108\n        /* \"#utility.yul\":1182:1184   */\n      0x2f\n        /* \"#utility.yul\":1177:1180   */\n      dup4\n        /* \"#utility.yul\":1118:1185   */\n      tag_109\n      jump\t// in\n    tag_108:\n        /* \"#utility.yul\":1111:1185   */\n      swap2\n      pop\n        /* \"#utility.yul\":1194:1287   */\n      tag_110\n        /* \"#utility.yul\":1283:1286   */\n      dup3\n        /* \"#utility.yul\":1194:1287   */\n      tag_111\n      jump\t// in\n    tag_110:\n        /* \"#utility.yul\":1312:1314   */\n      0x40\n        /* \"#utility.yul\":1307:1310   */\n      dup3\n        /* \"#utility.yul\":1303:1315   */\n      add\n        /* \"#utility.yul\":1296:1315   */\n      swap1\n      pop\n        /* \"#utility.yul\":955:1321   */\n      swap2\n      swap1\n      pop\n      jump\t// out\n        /* \"#utility.yul\":1327:1442   */\n    tag_112:\n        /* \"#utility.yul\":1412:1435   */\n      tag_114\n        /* \"#utility.yul\":1429:1434   */\n      dup2\n        /* \"#utility.yul\":1412:1435   */\n      tag_115\n      jump\t// in\n    tag_114:\n        /* \"#utility.yul\":1407:1410   */\n      dup3\n        /* \"#utility.yul\":1400:1436   */\n      mstore\n        /* \"#utility.yul\":1327:1442   */\n      pop\n      pop\n      jump\t// out\n        /* \"#utility.yul\":1448:1560   */\n    tag_116:\n        /* \"#utility.yul\":1531:1553   */\n      tag_118\n        /* \"#utility.yul\":1547:1552   */\n      dup2\n        /* \"#utility.yul\":1531:1553   */\n      tag_119\n      jump\t// in\n    tag_118:\n        /* \"#utility.yul\":1526:1529   */\n      dup3\n        /* \"#utility.yul\":1519:1554   */\n      mstore\n        /* \"#utility.yul\":1448:1560   */\n      pop\n      pop\n      jump\t// out\n        /* \"#utility.yul\":1566:1985   */\n    tag_64:\n        /* \"#utility.yul\":1732:1736   */\n      0x00\n        /* \"#utility.yul\":1770:1772   */\n      0x20\n        /* \"#utility.yul\":1759:1768   */\n      dup3\n        /* \"#utility.yul\":1755:1773   */\n      add\n        /* \"#utility.yul\":1747:1773   */\n      swap1\n      pop\n        /* \"#utility.yul\":1819:1828   */\n      dup2\n        /* \"#utility.yul\":1813:1817   */\n      dup2\n        /* \"#utility.yul\":1809:1829   */\n      sub\n        /* \"#utility.yul\":1805:1806   */\n      0x00\n        /* \"#utility.yul\":1794:1803   */\n      dup4\n        /* \"#utility.yul\":1790:1807   */\n      add\n        /* \"#utility.yul\":1783:1830   */\n      mstore\n        /* \"#utility.yul\":1847:1978   */\n      tag_121\n        /* \"#utility.yul\":1973:1977   */\n      dup2\n        /* \"#utility.yul\":1847:1978   */\n      tag_106\n      jump\t// in\n    tag_121:\n        /* \"#utility.yul\":1839:1978   */\n      swap1\n      pop\n        /* \"#utility.yul\":1566:1985   */\n      swap2\n      swap1\n      pop\n      jump\t// out\n        /* \"#utility.yul\":1991:2209   */\n    tag_11:\n        /* \"#utility.yul\":2082:2086   */\n      0x00\n        /* \"#utility.yul\":2120:2122   */\n      0x20\n        /* \"#utility.yul\":2109:2118   */\n      dup3\n        /* \"#utility.yul\":2105:2123   */\n      add\n        /* \"#utility.yul\":2097:2123   */\n      swap1\n      pop\n        /* \"#utility.yul\":2133:2202   */\n      tag_123\n        /* \"#utility.yul\":2199:2200   */\n      0x00\n        /* \"#utility.yul\":2188:2197   */\n      dup4\n        /* \"#utility.yul\":2184:2201   */\n      add\n        /* \"#utility.yul\":2175:2181   */\n      dup5\n        /* \"#utility.yul\":2133:2202   */\n      tag_112\n      jump\t// in\n    tag_123:\n        /* \"#utility.yul\":1991:2209   */\n      swap3\n      swap2\n      pop\n      pop\n      jump\t// out\n        /* \"#utility.yul\":2215:2429   */\n    tag_19:\n        /* \"#utility.yul\":2304:2308   */\n      0x00\n        /* \"#utility.yul\":2342:2344   */\n      0x20\n        /* \"#utility.yul\":2331:2340   */\n      dup3\n        /* \"#utility.yul\":2327:2345   */\n      add\n        /* \"#utility.yul\":2319:2345   */\n      swap1\n      pop\n        /* \"#utility.yul\":2355:2422   */\n      tag_125\n        /* \"#utility.yul\":2419:2420   */\n      0x00\n        /* \"#utility.yul\":2408:2417   */\n      dup4\n        /* \"#utility.yul\":2404:2421   */\n      add\n        /* \"#utility.yul\":2395:2401   */\n      dup5\n        /* \"#utility.yul\":2355:2422   */\n      tag_116\n      jump\t// in\n    tag_125:\n        /* \"#utility.yul\":2215:2429   */\n      swap3\n      swap2\n      pop\n      pop\n      jump\t// out\n        /* \"#utility.yul\":2516:2685   */\n    tag_109:\n        /* \"#utility.yul\":2600:2611   */\n      0x00\n        /* \"#utility.yul\":2634:2640   */\n      dup3\n        /* \"#utility.yul\":2629:2632   */\n      dup3\n        /* \"#utility.yul\":2622:2641   */\n      mstore\n        /* \"#utility.yul\":2674:2678   */\n      0x20\n        /* \"#utility.yul\":2669:2672   */\n      dup3\n        /* \"#utility.yul\":2665:2679   */\n      add\n        /* \"#utility.yul\":2650:2679   */\n      swap1\n      pop\n        /* \"#utility.yul\":2516:2685   */\n      swap3\n      swap2\n      pop\n      pop\n      jump\t// out\n        /* \"#utility.yul\":2691:2937   */\n    tag_30:\n        /* \"#utility.yul\":2730:2733   */\n      0x00\n        /* \"#utility.yul\":2749:2768   */\n      tag_130\n        /* \"#utility.yul\":2766:2767   */\n      dup3\n        /* \"#utility.yul\":2749:2768   */\n      tag_115\n      jump\t// in\n    tag_130:\n        /* \"#utility.yul\":2744:2768   */\n      swap2\n      pop\n        /* \"#utility.yul\":2782:2801   */\n      tag_131\n        /* \"#utility.yul\":2799:2800   */\n      dup4\n        /* \"#utility.yul\":2782:2801   */\n      tag_115\n      jump\t// in\n    tag_131:\n        /* \"#utility.yul\":2777:2801   */\n      swap3\n      pop\n        /* \"#utility.yul\":2879:2880   */\n      dup3\n        /* \"#utility.yul\":2867:2877   */\n      0xffffffff\n        /* \"#utility.yul\":2863:2881   */\n      sub\n        /* \"#utility.yul\":2860:2861   */\n      dup3\n        /* \"#utility.yul\":2857:2882   */\n      gt\n        /* \"#utility.yul\":2854:2905   */\n      iszero\n      tag_132\n      jumpi\n        /* \"#utility.yul\":2885:2903   */\n      tag_133\n      tag_134\n      jump\t// in\n    tag_133:\n        /* \"#utility.yul\":2854:2905   */\n    tag_132:\n        /* \"#utility.yul\":2929:2930   */\n      dup3\n        /* \"#utility.yul\":2926:2927   */\n      dup3\n        /* \"#utility.yul\":2922:2931   */\n      add\n        /* \"#utility.yul\":2915:2931   */\n      swap1\n      pop\n        /* \"#utility.yul\":2691:2937   */\n      swap3\n      swap2\n      pop\n      pop\n      jump\t// out\n        /* \"#utility.yul\":2943:3131   */\n    tag_45:\n        /* \"#utility.yul\":2982:2986   */\n      0x00\n        /* \"#utility.yul\":3002:3021   */\n      tag_136\n        /* \"#utility.yul\":3019:3020   */\n      dup3\n        /* \"#utility.yul\":3002:3021   */\n      tag_115\n      jump\t// in\n    tag_136:\n        /* \"#utility.yul\":2997:3021   */\n      swap2\n      pop\n        /* \"#utility.yul\":3035:3054   */\n      tag_137\n        /* \"#utility.yul\":3052:3053   */\n      dup4\n        /* \"#utility.yul\":3035:3054   */\n      tag_115\n      jump\t// in\n    tag_137:\n        /* \"#utility.yul\":3030:3054   */\n      swap3\n      pop\n        /* \"#utility.yul\":3073:3074   */\n      dup3\n        /* \"#utility.yul\":3070:3071   */\n      dup3\n        /* \"#utility.yul\":3067:3075   */\n      lt\n        /* \"#utility.yul\":3064:3098   */\n      iszero\n      tag_138\n      jumpi\n        /* \"#utility.yul\":3078:3096   */\n      tag_139\n      tag_134\n      jump\t// in\n    tag_139:\n        /* \"#utility.yul\":3064:3098   */\n    tag_138:\n        /* \"#utility.yul\":3123:3124   */\n      dup3\n        /* \"#utility.yul\":3120:3121   */\n      dup3\n        /* \"#utility.yul\":3116:3125   */\n      sub\n        /* \"#utility.yul\":3108:3125   */\n      swap1\n      pop\n        /* \"#utility.yul\":2943:3131   */\n      swap3\n      swap2\n      pop\n      pop\n      jump\t// out\n        /* \"#utility.yul\":3137:3322   */\n    tag_61:\n        /* \"#utility.yul\":3175:3179   */\n      0x00\n        /* \"#utility.yul\":3195:3213   */\n      tag_141\n        /* \"#utility.yul\":3211:3212   */\n      dup3\n        /* \"#utility.yul\":3195:3213   */\n      tag_119\n      jump\t// in\n    tag_141:\n        /* \"#utility.yul\":3190:3213   */\n      swap2\n      pop\n        /* \"#utility.yul\":3227:3245   */\n      tag_142\n        /* \"#utility.yul\":3243:3244   */\n      dup4\n        /* \"#utility.yul\":3227:3245   */\n      tag_119\n      jump\t// in\n    tag_142:\n        /* \"#utility.yul\":3222:3245   */\n      swap3\n      pop\n        /* \"#utility.yul\":3264:3265   */\n      dup3\n        /* \"#utility.yul\":3261:3262   */\n      dup3\n        /* \"#utility.yul\":3258:3266   */\n      lt\n        /* \"#utility.yul\":3255:3289   */\n      iszero\n      tag_143\n      jumpi\n        /* \"#utility.yul\":3269:3287   */\n      tag_144\n      tag_134\n      jump\t// in\n    tag_144:\n        /* \"#utility.yul\":3255:3289   */\n    tag_143:\n        /* \"#utility.yul\":3314:3315   */\n      dup3\n        /* \"#utility.yul\":3311:3312   */\n      dup3\n        /* \"#utility.yul\":3307:3316   */\n      sub\n        /* \"#utility.yul\":3299:3316   */\n      swap1\n      pop\n        /* \"#utility.yul\":3137:3322   */\n      swap3\n      swap2\n      pop\n      pop\n      jump\t// out\n        /* \"#utility.yul\":3328:3421   */\n    tag_115:\n        /* \"#utility.yul\":3364:3371   */\n      0x00\n        /* \"#utility.yul\":3404:3414   */\n      0xffffffff\n        /* \"#utility.yul\":3397:3402   */\n      dup3\n        /* \"#utility.yul\":3393:3415   */\n      and\n        /* \"#utility.yul\":3382:3415   */\n      swap1\n      pop\n        /* \"#utility.yul\":3328:3421   */\n      swap2\n      swap1\n      pop\n      jump\t// out\n        /* \"#utility.yul\":3427:3513   */\n    tag_119:\n        /* \"#utility.yul\":3462:3469   */\n      0x00\n        /* \"#utility.yul\":3502:3506   */\n      0xff\n        /* \"#utility.yul\":3495:3500   */\n      dup3\n        /* \"#utility.yul\":3491:3507   */\n      and\n        /* \"#utility.yul\":3480:3507   */\n      swap1\n      pop\n        /* \"#utility.yul\":3427:3513   */\n      swap2\n      swap1\n      pop\n      jump\t// out\n        /* \"#utility.yul\":3519:3699   */\n    tag_134:\n        /* \"#utility.yul\":3567:3644   */\n      0x4e487b7100000000000000000000000000000000000000000000000000000000\n        /* \"#utility.yul\":3564:3565   */\n      0x00\n        /* \"#utility.yul\":3557:3645   */\n      mstore\n        /* \"#utility.yul\":3664:3668   */\n      0x11\n        /* \"#utility.yul\":3661:3662   */\n      0x04\n        /* \"#utility.yul\":3654:3669   */\n      mstore\n        /* \"#utility.yul\":3688:3692   */\n      0x24\n        /* \"#utility.yul\":3685:3686   */\n      0x00\n        /* \"#utility.yul\":3678:3693   */\n      revert\n        /* \"#utility.yul\":3705:3885   */\n    tag_23:\n        /* \"#utility.yul\":3753:3830   */\n      0x4e487b7100000000000000000000000000000000000000000000000000000000\n        /* \"#utility.yul\":3750:3751   */\n      0x00\n        /* \"#utility.yul\":3743:3831   */\n      mstore\n        /* \"#utility.yul\":3850:3854   */\n      0x32\n        /* \"#utility.yul\":3847:3848   */\n      0x04\n        /* \"#utility.yul\":3840:3855   */\n      mstore\n        /* \"#utility.yul\":3874:3878   */\n      0x24\n        /* \"#utility.yul\":3871:3872   */\n      0x00\n        /* \"#utility.yul\":3864:3879   */\n      revert\n        /* \"#utility.yul\":4014:4131   */\n    tag_100:\n        /* \"#utility.yul\":4123:4124   */\n      0x00\n        /* \"#utility.yul\":4120:4121   */\n      dup1\n        /* \"#utility.yul\":4113:4125   */\n      revert\n        /* \"#utility.yul\":4137:4371   */\n    tag_111:\n        /* \"#utility.yul\":4277:4311   */\n      0x416c6c20736c616273206172652066756c6c2c206d6f726520746f6b656e7320\n        /* \"#utility.yul\":4273:4274   */\n      0x00\n        /* \"#utility.yul\":4265:4271   */\n      dup3\n        /* \"#utility.yul\":4261:4275   */\n      add\n        /* \"#utility.yul\":4254:4312   */\n      mstore\n        /* \"#utility.yul\":4346:4363   */\n      0x63616e6e6f742062652061646465640000000000000000000000000000000000\n        /* \"#utility.yul\":4341:4343   */\n      0x20\n        /* \"#utility.yul\":4333:4339   */\n      dup3\n        /* \"#utility.yul\":4329:4344   */\n      add\n        /* \"#utility.yul\":4322:4364   */\n      mstore\n        /* \"#utility.yul\":4137:4371   */\n      pop\n      jump\t// out\n        /* \"#utility.yul\":4377:4497   */\n    tag_92:\n        /* \"#utility.yul\":4449:4472   */\n      tag_154\n        /* \"#utility.yul\":4466:4471   */\n      dup2\n        /* \"#utility.yul\":4449:4472   */\n      tag_115\n      jump\t// in\n    tag_154:\n        /* \"#utility.yul\":4442:4447   */\n      dup2\n        /* \"#utility.yul\":4439:4473   */\n      eq\n        /* \"#utility.yul\":4429:4491   */\n      tag_155\n      jumpi\n        /* \"#utility.yul\":4487:4488   */\n      0x00\n        /* \"#utility.yul\":4484:4485   */\n      dup1\n        /* \"#utility.yul\":4477:4489   */\n      revert\n        /* \"#utility.yul\":4429:4491   */\n    tag_155:\n        /* \"#utility.yul\":4377:4497   */\n      pop\n      jump\t// out\n        /* \"#utility.yul\":4503:4621   */\n    tag_96:\n        /* \"#utility.yul\":4574:4596   */\n      tag_157\n        /* \"#utility.yul\":4590:4595   */\n      dup2\n        /* \"#utility.yul\":4574:4596   */\n      tag_119\n      jump\t// in\n    tag_157:\n        /* \"#utility.yul\":4567:4572   */\n      dup2\n        /* \"#utility.yul\":4564:4597   */\n      eq\n        /* \"#utility.yul\":4554:4615   */\n      tag_158\n      jumpi\n        /* \"#utility.yul\":4611:4612   */\n      0x00\n        /* \"#utility.yul\":4608:4609   */\n      dup1\n        /* \"#utility.yul\":4601:4613   */\n      revert\n        /* \"#utility.yul\":4554:4615   */\n    tag_158:\n        /* \"#utility.yul\":4503:4621   */\n      pop\n      jump\t// out\n\n    auxdata: 0xa26469706673582212201f9597983fcdd70752ae6ca46faf5bebda9d615332607447b99615981ed63acf64736f6c63430008070033\n}\n",
				"bytecode": {
					"linkReferences": {},
					"object": "608060405234801561001057600080fd5b506040518060a00160405280606461ffff16815260200160c861ffff16815260200161012c61ffff16815260200161019061ffff1681526020016101f461ffff1681525060019060056100649291906100d1565b5060046000806101000a81548160ff021916908360ff1602179055506040518060a00160405280600060ff168152602001600060ff168152602001600060ff168152602001600060ff168152602001600060ff1681525060029060056100cb929190610172565b5061022f565b8260056007016008900481019282156101615791602002820160005b8382111561012f57835183826101000a81548163ffffffff021916908361ffff16021790555092602001926004016020816003010492830192600103026100ed565b801561015f5782816101000a81549063ffffffff021916905560040160208160030104928301926001030261012f565b505b50905061016e9190610212565b5090565b8260056007016008900481019282156102015791602002820160005b838211156101cf57835183826101000a81548163ffffffff021916908360ff160217905550926020019260040160208160030104928301926001030261018e565b80156101ff5782816101000a81549063ffffffff02191690556004016020816003010492830192600103026101cf565b505b50905061020e9190610212565b5090565b5b8082111561022b576000816000905550600101610213565b5090565b6109248061023e6000396000f3fe608060405234801561001057600080fd5b50600436106100415760003560e01c8063144611ca146100465780636587ae4214610076578063eda2ab6814610092575b600080fd5b610060600480360381019061005b919061067a565b6100b0565b60405161006d9190610708565b60405180910390f35b610090600480360381019061008b919061064d565b6100ec565b005b61009a6102f2565b6040516100a79190610723565b60405180910390f35b600060028260ff16600581106100c9576100c861083d565b5b600891828204019190066004029054906101000a900463ffffffff169050919050565b80600260008054906101000a900460ff1660ff16600581106101115761011061083d565b5b600891828204019190066004028282829054906101000a900463ffffffff1661013a919061074f565b92506101000a81548163ffffffff021916908363ffffffff160217905550600160008054906101000a900460ff1660ff166005811061017c5761017b61083d565b5b600891828204019190066004029054906101000a900463ffffffff1663ffffffff16600260008054906101000a900460ff1660ff16600581106101c2576101c161083d565b5b600891828204019190066004029054906101000a900463ffffffff1663ffffffff1611156102ef576000600160008054906101000a900460ff1660ff16600581106102105761020f61083d565b5b600891828204019190066004029054906101000a900463ffffffff16600260008054906101000a900460ff1660ff16600581106102505761024f61083d565b5b600891828204019190066004029054906101000a900463ffffffff166102769190610789565b905080600260008054906101000a900460ff1660ff166005811061029d5761029c61083d565b5b600891828204019190066004028282829054906101000a900463ffffffff166102c69190610789565b92506101000a81548163ffffffff021916908363ffffffff1602179055506102ed81610308565b505b50565b60008060009054906101000a900460ff16905090565b600160008054906101000a900460ff1660ff166005811061032c5761032b61083d565b5b600891828204019190066004029054906101000a900463ffffffff16600260008054906101000a900460ff1660ff166005811061036c5761036b61083d565b5b600891828204019190066004026101000a81548163ffffffff021916908363ffffffff160217905550600160008054906101000a900460ff166103af91906107bd565b6000806101000a81548160ff021916908360ff16021790555060008060009054906101000a900460ff1660ff16101561041d576040517f08c379a0000000000000000000000000000000000000000000000000000000008152600401610414906106e8565b60405180910390fd5b80600260008054906101000a900460ff1660ff16600581106104425761044161083d565b5b600891828204019190066004028282829054906101000a900463ffffffff1661046b919061074f565b92506101000a81548163ffffffff021916908363ffffffff160217905550600160008054906101000a900460ff1660ff16600581106104ad576104ac61083d565b5b600891828204019190066004029054906101000a900463ffffffff1663ffffffff16600260008054906101000a900460ff1660ff16600581106104f3576104f261083d565b5b600891828204019190066004029054906101000a900463ffffffff1663ffffffff161115610620576000600160008054906101000a900460ff1660ff16600581106105415761054061083d565b5b600891828204019190066004029054906101000a900463ffffffff16600260008054906101000a900460ff1660ff16600581106105815761058061083d565b5b600891828204019190066004029054906101000a900463ffffffff166105a79190610789565b905080600260008054906101000a900460ff1660ff16600581106105ce576105cd61083d565b5b600891828204019190066004028282829054906101000a900463ffffffff166105f79190610789565b92506101000a81548163ffffffff021916908363ffffffff16021790555061061e81610308565b505b50565b600081359050610632816108c0565b92915050565b600081359050610647816108d7565b92915050565b6000602082840312156106635761066261086c565b5b600061067184828501610623565b91505092915050565b6000602082840312156106905761068f61086c565b5b600061069e84828501610638565b91505092915050565b60006106b4602f8361073e565b91506106bf82610871565b604082019050919050565b6106d3816107f1565b82525050565b6106e281610801565b82525050565b60006020820190508181036000830152610701816106a7565b9050919050565b600060208201905061071d60008301846106ca565b92915050565b600060208201905061073860008301846106d9565b92915050565b600082825260208201905092915050565b600061075a826107f1565b9150610765836107f1565b92508263ffffffff0382111561077e5761077d61080e565b5b828201905092915050565b6000610794826107f1565b915061079f836107f1565b9250828210156107b2576107b161080e565b5b828203905092915050565b60006107c882610801565b91506107d383610801565b9250828210156107e6576107e561080e565b5b828203905092915050565b600063ffffffff82169050919050565b600060ff82169050919050565b7f4e487b7100000000000000000000000000000000000000000000000000000000600052601160045260246000fd5b7f4e487b7100000000000000000000000000000000000000000000000000000000600052603260045260246000fd5b600080fd5b7f416c6c20736c616273206172652066756c6c2c206d6f726520746f6b656e732060008201527f63616e6e6f742062652061646465640000000000000000000000000000000000602082015250565b6108c9816107f1565b81146108d457600080fd5b50565b6108e081610801565b81146108eb57600080fd5b5056fea26469706673582212201f9597983fcdd70752ae6ca46faf5bebda9d615332607447b99615981ed63acf64736f6c63430008070033",
					"opcodes": "PUSH1 0x80 PUSH1 0x40 MSTORE CALLVALUE DUP1 ISZERO PUSH2 0x10 JUMPI PUSH1 0x0 DUP1 REVERT JUMPDEST POP PUSH1 0x40 MLOAD DUP1 PUSH1 0xA0 ADD PUSH1 0x40 MSTORE DUP1 PUSH1 0x64 PUSH2 0xFFFF AND DUP2 MSTORE PUSH1 0x20 ADD PUSH1 0xC8 PUSH2 0xFFFF AND DUP2 MSTORE PUSH1 0x20 ADD PUSH2 0x12C PUSH2 0xFFFF AND DUP2 MSTORE PUSH1 0x20 ADD PUSH2 0x190 PUSH2 0xFFFF AND DUP2 MSTORE PUSH1 0x20 ADD PUSH2 0x1F4 PUSH2 0xFFFF AND DUP2 MSTORE POP PUSH1 0x1 SWAP1 PUSH1 0x5 PUSH2 0x64 SWAP3 SWAP2 SWAP1 PUSH2 0xD1 JUMP JUMPDEST POP PUSH1 0x4 PUSH1 0x0 DUP1 PUSH2 0x100 EXP DUP2 SLOAD DUP2 PUSH1 0xFF MUL NOT AND SWAP1 DUP4 PUSH1 0xFF AND MUL OR SWAP1 SSTORE POP PUSH1 0x40 MLOAD DUP1 PUSH1 0xA0 ADD PUSH1 0x40 MSTORE DUP1 PUSH1 0x0 PUSH1 0xFF AND DUP2 MSTORE PUSH1 0x20 ADD PUSH1 0x0 PUSH1 0xFF AND DUP2 MSTORE PUSH1 0x20 ADD PUSH1 0x0 PUSH1 0xFF AND DUP2 MSTORE PUSH1 0x20 ADD PUSH1 0x0 PUSH1 0xFF AND DUP2 MSTORE PUSH1 0x20 ADD PUSH1 0x0 PUSH1 0xFF AND DUP2 MSTORE POP PUSH1 0x2 SWAP1 PUSH1 0x5 PUSH2 0xCB SWAP3 SWAP2 SWAP1 PUSH2 0x172 JUMP JUMPDEST POP PUSH2 0x22F JUMP JUMPDEST DUP3 PUSH1 0x5 PUSH1 0x7 ADD PUSH1 0x8 SWAP1 DIV DUP2 ADD SWAP3 DUP3 ISZERO PUSH2 0x161 JUMPI SWAP2 PUSH1 0x20 MUL DUP3 ADD PUSH1 0x0 JUMPDEST DUP4 DUP3 GT ISZERO PUSH2 0x12F JUMPI DUP4 MLOAD DUP4 DUP3 PUSH2 0x100 EXP DUP2 SLOAD DUP2 PUSH4 0xFFFFFFFF MUL NOT AND SWAP1 DUP4 PUSH2 0xFFFF AND MUL OR SWAP1 SSTORE POP SWAP3 PUSH1 0x20 ADD SWAP3 PUSH1 0x4 ADD PUSH1 0x20 DUP2 PUSH1 0x3 ADD DIV SWAP3 DUP4 ADD SWAP3 PUSH1 0x1 SUB MUL PUSH2 0xED JUMP JUMPDEST DUP1 ISZERO PUSH2 0x15F JUMPI DUP3 DUP2 PUSH2 0x100 EXP DUP2 SLOAD SWAP1 PUSH4 0xFFFFFFFF MUL NOT AND SWAP1 SSTORE PUSH1 0x4 ADD PUSH1 0x20 DUP2 PUSH1 0x3 ADD DIV SWAP3 DUP4 ADD SWAP3 PUSH1 0x1 SUB MUL PUSH2 0x12F JUMP JUMPDEST POP JUMPDEST POP SWAP1 POP PUSH2 0x16E SWAP2 SWAP1 PUSH2 0x212 JUMP JUMPDEST POP SWAP1 JUMP JUMPDEST DUP3 PUSH1 0x5 PUSH1 0x7 ADD PUSH1 0x8 SWAP1 DIV DUP2 ADD SWAP3 DUP3 ISZERO PUSH2 0x201 JUMPI SWAP2 PUSH1 0x20 MUL DUP3 ADD PUSH1 0x0 JUMPDEST DUP4 DUP3 GT ISZERO PUSH2 0x1CF JUMPI DUP4 MLOAD DUP4 DUP3 PUSH2 0x100 EXP DUP2 SLOAD DUP2 PUSH4 0xFFFFFFFF MUL NOT AND SWAP1 DUP4 PUSH1 0xFF AND MUL OR SWAP1 SSTORE POP SWAP3 PUSH1 0x20 ADD SWAP3 PUSH1 0x4 ADD PUSH1 0x20 DUP2 PUSH1 0x3 ADD DIV SWAP3 DUP4 ADD SWAP3 PUSH1 0x1 SUB MUL PUSH2 0x18E JUMP JUMPDEST DUP1 ISZERO PUSH2 0x1FF JUMPI DUP3 DUP2 PUSH2 0x100 EXP DUP2 SLOAD SWAP1 PUSH4 0xFFFFFFFF MUL NOT AND SWAP1 SSTORE PUSH1 0x4 ADD PUSH1 0x20 DUP2 PUSH1 0x3 ADD DIV SWAP3 DUP4 ADD SWAP3 PUSH1 0x1 SUB MUL PUSH2 0x1CF JUMP JUMPDEST POP JUMPDEST POP SWAP1 POP PUSH2 0x20E SWAP2 SWAP1 PUSH2 0x212 JUMP JUMPDEST POP SWAP1 JUMP JUMPDEST JUMPDEST DUP1 DUP3 GT ISZERO PUSH2 0x22B JUMPI PUSH1 0x0 DUP2 PUSH1 0x0 SWAP1 SSTORE POP PUSH1 0x1 ADD PUSH2 0x213 JUMP JUMPDEST POP SWAP1 JUMP JUMPDEST PUSH2 0x924 DUP1 PUSH2 0x23E PUSH1 0x0 CODECOPY PUSH1 0x0 RETURN INVALID PUSH1 0x80 PUSH1 0x40 MSTORE CALLVALUE DUP1 ISZERO PUSH2 0x10 JUMPI PUSH1 0x0 DUP1 REVERT JUMPDEST POP PUSH1 0x4 CALLDATASIZE LT PUSH2 0x41 JUMPI PUSH1 0x0 CALLDATALOAD PUSH1 0xE0 SHR DUP1 PUSH4 0x144611CA EQ PUSH2 0x46 JUMPI DUP1 PUSH4 0x6587AE42 EQ PUSH2 0x76 JUMPI DUP1 PUSH4 0xEDA2AB68 EQ PUSH2 0x92 JUMPI JUMPDEST PUSH1 0x0 DUP1 REVERT JUMPDEST PUSH2 0x60 PUSH1 0x4 DUP1 CALLDATASIZE SUB DUP2 ADD SWAP1 PUSH2 0x5B SWAP2 SWAP1 PUSH2 0x67A JUMP JUMPDEST PUSH2 0xB0 JUMP JUMPDEST PUSH1 0x40 MLOAD PUSH2 0x6D SWAP2 SWAP1 PUSH2 0x708 JUMP JUMPDEST PUSH1 0x40 MLOAD DUP1 SWAP2 SUB SWAP1 RETURN JUMPDEST PUSH2 0x90 PUSH1 0x4 DUP1 CALLDATASIZE SUB DUP2 ADD SWAP1 PUSH2 0x8B SWAP2 SWAP1 PUSH2 0x64D JUMP JUMPDEST PUSH2 0xEC JUMP JUMPDEST STOP JUMPDEST PUSH2 0x9A PUSH2 0x2F2 JUMP JUMPDEST PUSH1 0x40 MLOAD PUSH2 0xA7 SWAP2 SWAP1 PUSH2 0x723 JUMP JUMPDEST PUSH1 0x40 MLOAD DUP1 SWAP2 SUB SWAP1 RETURN JUMPDEST PUSH1 0x0 PUSH1 0x2 DUP3 PUSH1 0xFF AND PUSH1 0x5 DUP2 LT PUSH2 0xC9 JUMPI PUSH2 0xC8 PUSH2 0x83D JUMP JUMPDEST JUMPDEST PUSH1 0x8 SWAP2 DUP3 DUP3 DIV ADD SWAP2 SWAP1 MOD PUSH1 0x4 MUL SWAP1 SLOAD SWAP1 PUSH2 0x100 EXP SWAP1 DIV PUSH4 0xFFFFFFFF AND SWAP1 POP SWAP2 SWAP1 POP JUMP JUMPDEST DUP1 PUSH1 0x2 PUSH1 0x0 DUP1 SLOAD SWAP1 PUSH2 0x100 EXP SWAP1 DIV PUSH1 0xFF AND PUSH1 0xFF AND PUSH1 0x5 DUP2 LT PUSH2 0x111 JUMPI PUSH2 0x110 PUSH2 0x83D JUMP JUMPDEST JUMPDEST PUSH1 0x8 SWAP2 DUP3 DUP3 DIV ADD SWAP2 SWAP1 MOD PUSH1 0x4 MUL DUP3 DUP3 DUP3 SWAP1 SLOAD SWAP1 PUSH2 0x100 EXP SWAP1 DIV PUSH4 0xFFFFFFFF AND PUSH2 0x13A SWAP2 SWAP1 PUSH2 0x74F JUMP JUMPDEST SWAP3 POP PUSH2 0x100 EXP DUP2 SLOAD DUP2 PUSH4 0xFFFFFFFF MUL NOT AND SWAP1 DUP4 PUSH4 0xFFFFFFFF AND MUL OR SWAP1 SSTORE POP PUSH1 0x1 PUSH1 0x0 DUP1 SLOAD SWAP1 PUSH2 0x100 EXP SWAP1 DIV PUSH1 0xFF AND PUSH1 0xFF AND PUSH1 0x5 DUP2 LT PUSH2 0x17C JUMPI PUSH2 0x17B PUSH2 0x83D JUMP JUMPDEST JUMPDEST PUSH1 0x8 SWAP2 DUP3 DUP3 DIV ADD SWAP2 SWAP1 MOD PUSH1 0x4 MUL SWAP1 SLOAD SWAP1 PUSH2 0x100 EXP SWAP1 DIV PUSH4 0xFFFFFFFF AND PUSH4 0xFFFFFFFF AND PUSH1 0x2 PUSH1 0x0 DUP1 SLOAD SWAP1 PUSH2 0x100 EXP SWAP1 DIV PUSH1 0xFF AND PUSH1 0xFF AND PUSH1 0x5 DUP2 LT PUSH2 0x1C2 JUMPI PUSH2 0x1C1 PUSH2 0x83D JUMP JUMPDEST JUMPDEST PUSH1 0x8 SWAP2 DUP3 DUP3 DIV ADD SWAP2 SWAP1 MOD PUSH1 0x4 MUL SWAP1 SLOAD SWAP1 PUSH2 0x100 EXP SWAP1 DIV PUSH4 0xFFFFFFFF AND PUSH4 0xFFFFFFFF AND GT ISZERO PUSH2 0x2EF JUMPI PUSH1 0x0 PUSH1 0x1 PUSH1 0x0 DUP1 SLOAD SWAP1 PUSH2 0x100 EXP SWAP1 DIV PUSH1 0xFF AND PUSH1 0xFF AND PUSH1 0x5 DUP2 LT PUSH2 0x210 JUMPI PUSH2 0x20F PUSH2 0x83D JUMP JUMPDEST JUMPDEST PUSH1 0x8 SWAP2 DUP3 DUP3 DIV ADD SWAP2 SWAP1 MOD PUSH1 0x4 MUL SWAP1 SLOAD SWAP1 PUSH2 0x100 EXP SWAP1 DIV PUSH4 0xFFFFFFFF AND PUSH1 0x2 PUSH1 0x0 DUP1 SLOAD SWAP1 PUSH2 0x100 EXP SWAP1 DIV PUSH1 0xFF AND PUSH1 0xFF AND PUSH1 0x5 DUP2 LT PUSH2 0x250 JUMPI PUSH2 0x24F PUSH2 0x83D JUMP JUMPDEST JUMPDEST PUSH1 0x8 SWAP2 DUP3 DUP3 DIV ADD SWAP2 SWAP1 MOD PUSH1 0x4 MUL SWAP1 SLOAD SWAP1 PUSH2 0x100 EXP SWAP1 DIV PUSH4 0xFFFFFFFF AND PUSH2 0x276 SWAP2 SWAP1 PUSH2 0x789 JUMP JUMPDEST SWAP1 POP DUP1 PUSH1 0x2 PUSH1 0x0 DUP1 SLOAD SWAP1 PUSH2 0x100 EXP SWAP1 DIV PUSH1 0xFF AND PUSH1 0xFF AND PUSH1 0x5 DUP2 LT PUSH2 0x29D JUMPI PUSH2 0x29C PUSH2 0x83D JUMP JUMPDEST JUMPDEST PUSH1 0x8 SWAP2 DUP3 DUP3 DIV ADD SWAP2 SWAP1 MOD PUSH1 0x4 MUL DUP3 DUP3 DUP3 SWAP1 SLOAD SWAP1 PUSH2 0x100 EXP SWAP1 DIV PUSH4 0xFFFFFFFF AND PUSH2 0x2C6 SWAP2 SWAP1 PUSH2 0x789 JUMP JUMPDEST SWAP3 POP PUSH2 0x100 EXP DUP2 SLOAD DUP2 PUSH4 0xFFFFFFFF MUL NOT AND SWAP1 DUP4 PUSH4 0xFFFFFFFF AND MUL OR SWAP1 SSTORE POP PUSH2 0x2ED DUP2 PUSH2 0x308 JUMP JUMPDEST POP JUMPDEST POP JUMP JUMPDEST PUSH1 0x0 DUP1 PUSH1 0x0 SWAP1 SLOAD SWAP1 PUSH2 0x100 EXP SWAP1 DIV PUSH1 0xFF AND SWAP1 POP SWAP1 JUMP JUMPDEST PUSH1 0x1 PUSH1 0x0 DUP1 SLOAD SWAP1 PUSH2 0x100 EXP SWAP1 DIV PUSH1 0xFF AND PUSH1 0xFF AND PUSH1 0x5 DUP2 LT PUSH2 0x32C JUMPI PUSH2 0x32B PUSH2 0x83D JUMP JUMPDEST JUMPDEST PUSH1 0x8 SWAP2 DUP3 DUP3 DIV ADD SWAP2 SWAP1 MOD PUSH1 0x4 MUL SWAP1 SLOAD SWAP1 PUSH2 0x100 EXP SWAP1 DIV PUSH4 0xFFFFFFFF AND PUSH1 0x2 PUSH1 0x0 DUP1 SLOAD SWAP1 PUSH2 0x100 EXP SWAP1 DIV PUSH1 0xFF AND PUSH1 0xFF AND PUSH1 0x5 DUP2 LT PUSH2 0x36C JUMPI PUSH2 0x36B PUSH2 0x83D JUMP JUMPDEST JUMPDEST PUSH1 0x8 SWAP2 DUP3 DUP3 DIV ADD SWAP2 SWAP1 MOD PUSH1 0x4 MUL PUSH2 0x100 EXP DUP2 SLOAD DUP2 PUSH4 0xFFFFFFFF MUL NOT AND SWAP1 DUP4 PUSH4 0xFFFFFFFF AND MUL OR SWAP1 SSTORE POP PUSH1 0x1 PUSH1 0x0 DUP1 SLOAD SWAP1 PUSH2 0x100 EXP SWAP1 DIV PUSH1 0xFF AND PUSH2 0x3AF SWAP2 SWAP1 PUSH2 0x7BD JUMP JUMPDEST PUSH1 0x0 DUP1 PUSH2 0x100 EXP DUP2 SLOAD DUP2 PUSH1 0xFF MUL NOT AND SWAP1 DUP4 PUSH1 0xFF AND MUL OR SWAP1 SSTORE POP PUSH1 0x0 DUP1 PUSH1 0x0 SWAP1 SLOAD SWAP1 PUSH2 0x100 EXP SWAP1 DIV PUSH1 0xFF AND PUSH1 0xFF AND LT ISZERO PUSH2 0x41D JUMPI PUSH1 0x40 MLOAD PUSH32 0x8C379A000000000000000000000000000000000000000000000000000000000 DUP2 MSTORE PUSH1 0x4 ADD PUSH2 0x414 SWAP1 PUSH2 0x6E8 JUMP JUMPDEST PUSH1 0x40 MLOAD DUP1 SWAP2 SUB SWAP1 REVERT JUMPDEST DUP1 PUSH1 0x2 PUSH1 0x0 DUP1 SLOAD SWAP1 PUSH2 0x100 EXP SWAP1 DIV PUSH1 0xFF AND PUSH1 0xFF AND PUSH1 0x5 DUP2 LT PUSH2 0x442 JUMPI PUSH2 0x441 PUSH2 0x83D JUMP JUMPDEST JUMPDEST PUSH1 0x8 SWAP2 DUP3 DUP3 DIV ADD SWAP2 SWAP1 MOD PUSH1 0x4 MUL DUP3 DUP3 DUP3 SWAP1 SLOAD SWAP1 PUSH2 0x100 EXP SWAP1 DIV PUSH4 0xFFFFFFFF AND PUSH2 0x46B SWAP2 SWAP1 PUSH2 0x74F JUMP JUMPDEST SWAP3 POP PUSH2 0x100 EXP DUP2 SLOAD DUP2 PUSH4 0xFFFFFFFF MUL NOT AND SWAP1 DUP4 PUSH4 0xFFFFFFFF AND MUL OR SWAP1 SSTORE POP PUSH1 0x1 PUSH1 0x0 DUP1 SLOAD SWAP1 PUSH2 0x100 EXP SWAP1 DIV PUSH1 0xFF AND PUSH1 0xFF AND PUSH1 0x5 DUP2 LT PUSH2 0x4AD JUMPI PUSH2 0x4AC PUSH2 0x83D JUMP JUMPDEST JUMPDEST PUSH1 0x8 SWAP2 DUP3 DUP3 DIV ADD SWAP2 SWAP1 MOD PUSH1 0x4 MUL SWAP1 SLOAD SWAP1 PUSH2 0x100 EXP SWAP1 DIV PUSH4 0xFFFFFFFF AND PUSH4 0xFFFFFFFF AND PUSH1 0x2 PUSH1 0x0 DUP1 SLOAD SWAP1 PUSH2 0x100 EXP SWAP1 DIV PUSH1 0xFF AND PUSH1 0xFF AND PUSH1 0x5 DUP2 LT PUSH2 0x4F3 JUMPI PUSH2 0x4F2 PUSH2 0x83D JUMP JUMPDEST JUMPDEST PUSH1 0x8 SWAP2 DUP3 DUP3 DIV ADD SWAP2 SWAP1 MOD PUSH1 0x4 MUL SWAP1 SLOAD SWAP1 PUSH2 0x100 EXP SWAP1 DIV PUSH4 0xFFFFFFFF AND PUSH4 0xFFFFFFFF AND GT ISZERO PUSH2 0x620 JUMPI PUSH1 0x0 PUSH1 0x1 PUSH1 0x0 DUP1 SLOAD SWAP1 PUSH2 0x100 EXP SWAP1 DIV PUSH1 0xFF AND PUSH1 0xFF AND PUSH1 0x5 DUP2 LT PUSH2 0x541 JUMPI PUSH2 0x540 PUSH2 0x83D JUMP JUMPDEST JUMPDEST PUSH1 0x8 SWAP2 DUP3 DUP3 DIV ADD SWAP2 SWAP1 MOD PUSH1 0x4 MUL SWAP1 SLOAD SWAP1 PUSH2 0x100 EXP SWAP1 DIV PUSH4 0xFFFFFFFF AND PUSH1 0x2 PUSH1 0x0 DUP1 SLOAD SWAP1 PUSH2 0x100 EXP SWAP1 DIV PUSH1 0xFF AND PUSH1 0xFF AND PUSH1 0x5 DUP2 LT PUSH2 0x581 JUMPI PUSH2 0x580 PUSH2 0x83D JUMP JUMPDEST JUMPDEST PUSH1 0x8 SWAP2 DUP3 DUP3 DIV ADD SWAP2 SWAP1 MOD PUSH1 0x4 MUL SWAP1 SLOAD SWAP1 PUSH2 0x100 EXP SWAP1 DIV PUSH4 0xFFFFFFFF AND PUSH2 0x5A7 SWAP2 SWAP1 PUSH2 0x789 JUMP JUMPDEST SWAP1 POP DUP1 PUSH1 0x2 PUSH1 0x0 DUP1 SLOAD SWAP1 PUSH2 0x100 EXP SWAP1 DIV PUSH1 0xFF AND PUSH1 0xFF AND PUSH1 0x5 DUP2 LT PUSH2 0x5CE JUMPI PUSH2 0x5CD PUSH2 0x83D JUMP JUMPDEST JUMPDEST PUSH1 0x8 SWAP2 DUP3 DUP3 DIV ADD SWAP2 SWAP1 MOD PUSH1 0x4 MUL DUP3 DUP3 DUP3 SWAP1 SLOAD SWAP1 PUSH2 0x100 EXP SWAP1 DIV PUSH4 0xFFFFFFFF AND PUSH2 0x5F7 SWAP2 SWAP1 PUSH2 0x789 JUMP JUMPDEST SWAP3 POP PUSH2 0x100 EXP DUP2 SLOAD DUP2 PUSH4 0xFFFFFFFF MUL NOT AND SWAP1 DUP4 PUSH4 0xFFFFFFFF AND MUL OR SWAP1 SSTORE POP PUSH2 0x61E DUP2 PUSH2 0x308 JUMP JUMPDEST POP JUMPDEST POP JUMP JUMPDEST PUSH1 0x0 DUP2 CALLDATALOAD SWAP1 POP PUSH2 0x632 DUP2 PUSH2 0x8C0 JUMP JUMPDEST SWAP3 SWAP2 POP POP JUMP JUMPDEST PUSH1 0x0 DUP2 CALLDATALOAD SWAP1 POP PUSH2 0x647 DUP2 PUSH2 0x8D7 JUMP JUMPDEST SWAP3 SWAP2 POP POP JUMP JUMPDEST PUSH1 0x0 PUSH1 0x20 DUP3 DUP5 SUB SLT ISZERO PUSH2 0x663 JUMPI PUSH2 0x662 PUSH2 0x86C JUMP JUMPDEST JUMPDEST PUSH1 0x0 PUSH2 0x671 DUP5 DUP3 DUP6 ADD PUSH2 0x623 JUMP JUMPDEST SWAP2 POP POP SWAP3 SWAP2 POP POP JUMP JUMPDEST PUSH1 0x0 PUSH1 0x20 DUP3 DUP5 SUB SLT ISZERO PUSH2 0x690 JUMPI PUSH2 0x68F PUSH2 0x86C JUMP JUMPDEST JUMPDEST PUSH1 0x0 PUSH2 0x69E DUP5 DUP3 DUP6 ADD PUSH2 0x638 JUMP JUMPDEST SWAP2 POP POP SWAP3 SWAP2 POP POP JUMP JUMPDEST PUSH1 0x0 PUSH2 0x6B4 PUSH1 0x2F DUP4 PUSH2 0x73E JUMP JUMPDEST SWAP2 POP PUSH2 0x6BF DUP3 PUSH2 0x871 JUMP JUMPDEST PUSH1 0x40 DUP3 ADD SWAP1 POP SWAP2 SWAP1 POP JUMP JUMPDEST PUSH2 0x6D3 DUP2 PUSH2 0x7F1 JUMP JUMPDEST DUP3 MSTORE POP POP JUMP JUMPDEST PUSH2 0x6E2 DUP2 PUSH2 0x801 JUMP JUMPDEST DUP3 MSTORE POP POP JUMP JUMPDEST PUSH1 0x0 PUSH1 0x20 DUP3 ADD SWAP1 POP DUP2 DUP2 SUB PUSH1 0x0 DUP4 ADD MSTORE PUSH2 0x701 DUP2 PUSH2 0x6A7 JUMP JUMPDEST SWAP1 POP SWAP2 SWAP1 POP JUMP JUMPDEST PUSH1 0x0 PUSH1 0x20 DUP3 ADD SWAP1 POP PUSH2 0x71D PUSH1 0x0 DUP4 ADD DUP5 PUSH2 0x6CA JUMP JUMPDEST SWAP3 SWAP2 POP POP JUMP JUMPDEST PUSH1 0x0 PUSH1 0x20 DUP3 ADD SWAP1 POP PUSH2 0x738 PUSH1 0x0 DUP4 ADD DUP5 PUSH2 0x6D9 JUMP JUMPDEST SWAP3 SWAP2 POP POP JUMP JUMPDEST PUSH1 0x0 DUP3 DUP3 MSTORE PUSH1 0x20 DUP3 ADD SWAP1 POP SWAP3 SWAP2 POP POP JUMP JUMPDEST PUSH1 0x0 PUSH2 0x75A DUP3 PUSH2 0x7F1 JUMP JUMPDEST SWAP2 POP PUSH2 0x765 DUP4 PUSH2 0x7F1 JUMP JUMPDEST SWAP3 POP DUP3 PUSH4 0xFFFFFFFF SUB DUP3 GT ISZERO PUSH2 0x77E JUMPI PUSH2 0x77D PUSH2 0x80E JUMP JUMPDEST JUMPDEST DUP3 DUP3 ADD SWAP1 POP SWAP3 SWAP2 POP POP JUMP JUMPDEST PUSH1 0x0 PUSH2 0x794 DUP3 PUSH2 0x7F1 JUMP JUMPDEST SWAP2 POP PUSH2 0x79F DUP4 PUSH2 0x7F1 JUMP JUMPDEST SWAP3 POP DUP3 DUP3 LT ISZERO PUSH2 0x7B2 JUMPI PUSH2 0x7B1 PUSH2 0x80E JUMP JUMPDEST JUMPDEST DUP3 DUP3 SUB SWAP1 POP SWAP3 SWAP2 POP POP JUMP JUMPDEST PUSH1 0x0 PUSH2 0x7C8 DUP3 PUSH2 0x801 JUMP JUMPDEST SWAP2 POP PUSH2 0x7D3 DUP4 PUSH2 0x801 JUMP JUMPDEST SWAP3 POP DUP3 DUP3 LT ISZERO PUSH2 0x7E6 JUMPI PUSH2 0x7E5 PUSH2 0x80E JUMP JUMPDEST JUMPDEST DUP3 DUP3 SUB SWAP1 POP SWAP3 SWAP2 POP POP JUMP JUMPDEST PUSH1 0x0 PUSH4 0xFFFFFFFF DUP3 AND SWAP1 POP SWAP2 SWAP1 POP JUMP JUMPDEST PUSH1 0x0 PUSH1 0xFF DUP3 AND SWAP1 POP SWAP2 SWAP1 POP JUMP JUMPDEST PUSH32 0x4E487B7100000000000000000000000000000000000000000000000000000000 PUSH1 0x0 MSTORE PUSH1 0x11 PUSH1 0x4 MSTORE PUSH1 0x24 PUSH1 0x0 REVERT JUMPDEST PUSH32 0x4E487B7100000000000000000000000000000000000000000000000000000000 PUSH1 0x0 MSTORE PUSH1 0x32 PUSH1 0x4 MSTORE PUSH1 0x24 PUSH1 0x0 REVERT JUMPDEST PUSH1 0x0 DUP1 REVERT JUMPDEST PUSH32 0x416C6C20736C616273206172652066756C6C2C206D6F726520746F6B656E7320 PUSH1 0x0 DUP3 ADD MSTORE PUSH32 0x63616E6E6F742062652061646465640000000000000000000000000000000000 PUSH1 0x20 DUP3 ADD MSTORE POP JUMP JUMPDEST PUSH2 0x8C9 DUP2 PUSH2 0x7F1 JUMP JUMPDEST DUP2 EQ PUSH2 0x8D4 JUMPI PUSH1 0x0 DUP1 REVERT JUMPDEST POP JUMP JUMPDEST PUSH2 0x8E0 DUP2 PUSH2 0x801 JUMP JUMPDEST DUP2 EQ PUSH2 0x8EB JUMPI PUSH1 0x0 DUP1 REVERT JUMPDEST POP JUMP INVALID LOG2 PUSH5 0x6970667358 0x22 SLT KECCAK256 0x1F SWAP6 SWAP8 SWAP9 EXTCODEHASH 0xCD 0xD7 SMOD MSTORE 0xAE PUSH13 0xA46FAF5BEBDA9D615332607447 0xB9 SWAP7 ISZERO SWAP9 0x1E 0xD6 GASPRICE 0xCF PUSH5 0x736F6C6343 STOP ADDMOD SMOD STOP CALLER "
				},
				"gasEstimates": {
					"creation": {
						"codeDepositCost": "468000",
						"executionCost": "infinite",
						"totalCost": "infinite"
					},
					"external": {
						"tokenDeposit(uint32)": "infinite",
						"viewSlabDetails()": "2501",
						"viewSlabvalues(uint8)": "4396"
					},
					"internal": {
						"overflowHandler(uint32)": "infinite"
					}
				},
				"methodIdentifiers": {
					"tokenDeposit(uint32)": "6587ae42",
					"viewSlabDetails()": "eda2ab68",
					"viewSlabvalues(uint8)": "144611ca"
				}
			},
			"storageLayout": {
				"storage": [
					{
						"astId": 3,
						"contract": "Tokenslab.sol:Tokenslab",
						"label": "currentSlab",
						"offset": 0,
						"slot": "0",
						"type": "t_uint8"
					},
					{
						"astId": 7,
						"contract": "Tokenslab.sol:Tokenslab",
						"label": "slabLimits",
						"offset": 0,
						"slot": "1",
						"type": "t_array(t_uint32)5_storage"
					},
					{
						"astId": 11,
						"contract": "Tokenslab.sol:Tokenslab",
						"label": "slabValues",
						"offset": 0,
						"slot": "2",
						"type": "t_array(t_uint32)5_storage"
					}
				],
				"types": {
					"t_array(t_uint32)5_storage": {
						"base": "t_uint32",
						"encoding": "inplace",
						"label": "uint32[5]",
						"numberOfBytes": "32"
					},
					"t_uint32": {
						"encoding": "inplace",
						"label": "uint32",
						"numberOfBytes": "4"
					},
					"t_uint8": {
						"encoding": "inplace",
						"label": "uint8",
						"numberOfBytes": "1"
					}
				}
			},
			"userdoc": {
				"kind": "user",
				"methods": {},
				"version": 1
			}
		}
	}
}